{
	"wallet.sol": {
		"Paymaster": {
			"abi": [
				{
					"inputs": [
						{
							"internalType": "address",
							"name": "_owner",
							"type": "address"
						}
					],
					"stateMutability": "nonpayable",
					"type": "constructor"
				},
				{
					"anonymous": false,
					"inputs": [
						{
							"indexed": true,
							"internalType": "address",
							"name": "wallet",
							"type": "address"
						},
						{
							"indexed": true,
							"internalType": "address",
							"name": "token",
							"type": "address"
						},
						{
							"indexed": false,
							"internalType": "uint256",
							"name": "amount",
							"type": "uint256"
						}
					],
					"name": "ERC20GasPaid",
					"type": "event"
				},
				{
					"anonymous": false,
					"inputs": [
						{
							"indexed": true,
							"internalType": "address",
							"name": "wallet",
							"type": "address"
						},
						{
							"indexed": false,
							"internalType": "uint256",
							"name": "amount",
							"type": "uint256"
						}
					],
					"name": "GasSponsored",
					"type": "event"
				},
				{
					"inputs": [],
					"name": "owner",
					"outputs": [
						{
							"internalType": "address",
							"name": "",
							"type": "address"
						}
					],
					"stateMutability": "view",
					"type": "function"
				},
				{
					"inputs": [
						{
							"internalType": "uint256",
							"name": "actualGasCost",
							"type": "uint256"
						},
						{
							"internalType": "bytes",
							"name": "context",
							"type": "bytes"
						}
					],
					"name": "postOp",
					"outputs": [],
					"stateMutability": "nonpayable",
					"type": "function"
				},
				{
					"inputs": [
						{
							"components": [
								{
									"internalType": "address",
									"name": "sender",
									"type": "address"
								},
								{
									"internalType": "uint256",
									"name": "nonce",
									"type": "uint256"
								},
								{
									"internalType": "bytes",
									"name": "callData",
									"type": "bytes"
								},
								{
									"internalType": "uint256",
									"name": "callGasLimit",
									"type": "uint256"
								},
								{
									"internalType": "uint256",
									"name": "verificationGasLimit",
									"type": "uint256"
								},
								{
									"internalType": "uint256",
									"name": "preVerificationGas",
									"type": "uint256"
								},
								{
									"internalType": "uint256",
									"name": "maxFeePerGas",
									"type": "uint256"
								},
								{
									"internalType": "uint256",
									"name": "maxPriorityFeePerGas",
									"type": "uint256"
								},
								{
									"internalType": "bytes",
									"name": "paymasterAndData",
									"type": "bytes"
								},
								{
									"internalType": "bytes",
									"name": "signature",
									"type": "bytes"
								}
							],
							"internalType": "struct UserOperation",
							"name": "userOp",
							"type": "tuple"
						},
						{
							"internalType": "bytes32",
							"name": "userOpHash",
							"type": "bytes32"
						},
						{
							"internalType": "uint256",
							"name": "requiredPreFund",
							"type": "uint256"
						}
					],
					"name": "validatePaymasterUserOp",
					"outputs": [
						{
							"internalType": "uint256",
							"name": "validationResult",
							"type": "uint256"
						}
					],
					"stateMutability": "view",
					"type": "function"
				},
				{
					"stateMutability": "payable",
					"type": "receive"
				}
			],
			"devdoc": {
				"kind": "dev",
				"methods": {},
				"version": 1
			},
			"evm": {
				"assembly": "    /* \"wallet.sol\":13427:18610  contract Paymaster {... */\n  mstore(0x40, 0x80)\n    /* \"wallet.sol\":13764:13908  constructor(address _owner) {... */\n  callvalue\n  dup1\n  iszero\n  tag_1\n  jumpi\n  revert(0x00, 0x00)\ntag_1:\n  pop\n  mload(0x40)\n  sub(codesize, bytecodeSize)\n  dup1\n  bytecodeSize\n  dup4\n  codecopy\n  dup2\n  dup2\n  add\n  0x40\n  mstore\n  dup2\n  add\n  swap1\n  tag_2\n  swap2\n  swap1\n  tag_3\n  jump\t// in\ntag_2:\n    /* \"wallet.sol\":13829:13830  0 */\n  0x00\n    /* \"wallet.sol\":13811:13831  _owner != address(0) */\n  0xffffffffffffffffffffffffffffffffffffffff\n  and\n    /* \"wallet.sol\":13811:13817  _owner */\n  dup2\n    /* \"wallet.sol\":13811:13831  _owner != address(0) */\n  0xffffffffffffffffffffffffffffffffffffffff\n  and\n  sub\n    /* \"wallet.sol\":13803:13875  require(_owner != address(0), \"Paymaster owner cannot be zero address.\") */\n  tag_6\n  jumpi\n  mload(0x40)\n  0x08c379a000000000000000000000000000000000000000000000000000000000\n  dup2\n  mstore\n  0x04\n  add\n  tag_7\n  swap1\n  tag_8\n  jump\t// in\ntag_7:\n  mload(0x40)\n  dup1\n  swap2\n  sub\n  swap1\n  revert\ntag_6:\n    /* \"wallet.sol\":13894:13900  _owner */\n  dup1\n    /* \"wallet.sol\":13886:13891  owner */\n  0x00\n  0x00\n    /* \"wallet.sol\":13886:13900  owner = _owner */\n  0x0100\n  exp\n  dup2\n  sload\n  dup2\n  0xffffffffffffffffffffffffffffffffffffffff\n  mul\n  not\n  and\n  swap1\n  dup4\n  0xffffffffffffffffffffffffffffffffffffffff\n  and\n  mul\n  or\n  swap1\n  sstore\n  pop\n    /* \"wallet.sol\":13764:13908  constructor(address _owner) {... */\n  pop\n    /* \"wallet.sol\":13427:18610  contract Paymaster {... */\n  jump(tag_9)\n    /* \"#utility.yul\":88:205   */\ntag_11:\n    /* \"#utility.yul\":197:198   */\n  0x00\n    /* \"#utility.yul\":194:195   */\n  0x00\n    /* \"#utility.yul\":187:199   */\n  revert\n    /* \"#utility.yul\":334:460   */\ntag_13:\n    /* \"#utility.yul\":371:378   */\n  0x00\n    /* \"#utility.yul\":411:453   */\n  0xffffffffffffffffffffffffffffffffffffffff\n    /* \"#utility.yul\":404:409   */\n  dup3\n    /* \"#utility.yul\":400:454   */\n  and\n    /* \"#utility.yul\":389:454   */\n  swap1\n  pop\n    /* \"#utility.yul\":334:460   */\n  swap2\n  swap1\n  pop\n  jump\t// out\n    /* \"#utility.yul\":466:562   */\ntag_14:\n    /* \"#utility.yul\":503:510   */\n  0x00\n    /* \"#utility.yul\":532:556   */\n  tag_26\n    /* \"#utility.yul\":550:555   */\n  dup3\n    /* \"#utility.yul\":532:556   */\n  tag_13\n  jump\t// in\ntag_26:\n    /* \"#utility.yul\":521:556   */\n  swap1\n  pop\n    /* \"#utility.yul\":466:562   */\n  swap2\n  swap1\n  pop\n  jump\t// out\n    /* \"#utility.yul\":568:690   */\ntag_15:\n    /* \"#utility.yul\":641:665   */\n  tag_28\n    /* \"#utility.yul\":659:664   */\n  dup2\n    /* \"#utility.yul\":641:665   */\n  tag_14\n  jump\t// in\ntag_28:\n    /* \"#utility.yul\":634:639   */\n  dup2\n    /* \"#utility.yul\":631:666   */\n  eq\n    /* \"#utility.yul\":621:684   */\n  tag_29\n  jumpi\n    /* \"#utility.yul\":680:681   */\n  0x00\n    /* \"#utility.yul\":677:678   */\n  0x00\n    /* \"#utility.yul\":670:682   */\n  revert\n    /* \"#utility.yul\":621:684   */\ntag_29:\n    /* \"#utility.yul\":568:690   */\n  pop\n  jump\t// out\n    /* \"#utility.yul\":696:839   */\ntag_16:\n    /* \"#utility.yul\":753:758   */\n  0x00\n    /* \"#utility.yul\":784:790   */\n  dup2\n    /* \"#utility.yul\":778:791   */\n  mload\n    /* \"#utility.yul\":769:791   */\n  swap1\n  pop\n    /* \"#utility.yul\":800:833   */\n  tag_31\n    /* \"#utility.yul\":827:832   */\n  dup2\n    /* \"#utility.yul\":800:833   */\n  tag_15\n  jump\t// in\ntag_31:\n    /* \"#utility.yul\":696:839   */\n  swap3\n  swap2\n  pop\n  pop\n  jump\t// out\n    /* \"#utility.yul\":845:1196   */\ntag_3:\n    /* \"#utility.yul\":915:921   */\n  0x00\n    /* \"#utility.yul\":964:966   */\n  0x20\n    /* \"#utility.yul\":952:961   */\n  dup3\n    /* \"#utility.yul\":943:950   */\n  dup5\n    /* \"#utility.yul\":939:962   */\n  sub\n    /* \"#utility.yul\":935:967   */\n  slt\n    /* \"#utility.yul\":932:1051   */\n  iszero\n  tag_33\n  jumpi\n    /* \"#utility.yul\":970:1049   */\n  tag_34\n  tag_11\n  jump\t// in\ntag_34:\n    /* \"#utility.yul\":932:1051   */\ntag_33:\n    /* \"#utility.yul\":1090:1091   */\n  0x00\n    /* \"#utility.yul\":1115:1179   */\n  tag_35\n    /* \"#utility.yul\":1171:1178   */\n  dup5\n    /* \"#utility.yul\":1162:1168   */\n  dup3\n    /* \"#utility.yul\":1151:1160   */\n  dup6\n    /* \"#utility.yul\":1147:1169   */\n  add\n    /* \"#utility.yul\":1115:1179   */\n  tag_16\n  jump\t// in\ntag_35:\n    /* \"#utility.yul\":1105:1179   */\n  swap2\n  pop\n    /* \"#utility.yul\":1061:1189   */\n  pop\n    /* \"#utility.yul\":845:1196   */\n  swap3\n  swap2\n  pop\n  pop\n  jump\t// out\n    /* \"#utility.yul\":1202:1371   */\ntag_17:\n    /* \"#utility.yul\":1286:1297   */\n  0x00\n    /* \"#utility.yul\":1320:1326   */\n  dup3\n    /* \"#utility.yul\":1315:1318   */\n  dup3\n    /* \"#utility.yul\":1308:1327   */\n  mstore\n    /* \"#utility.yul\":1360:1364   */\n  0x20\n    /* \"#utility.yul\":1355:1358   */\n  dup3\n    /* \"#utility.yul\":1351:1365   */\n  add\n    /* \"#utility.yul\":1336:1365   */\n  swap1\n  pop\n    /* \"#utility.yul\":1202:1371   */\n  swap3\n  swap2\n  pop\n  pop\n  jump\t// out\n    /* \"#utility.yul\":1377:1603   */\ntag_18:\n    /* \"#utility.yul\":1517:1551   */\n  0x5061796d6173746572206f776e65722063616e6e6f74206265207a65726f2061\n    /* \"#utility.yul\":1513:1514   */\n  0x00\n    /* \"#utility.yul\":1505:1511   */\n  dup3\n    /* \"#utility.yul\":1501:1515   */\n  add\n    /* \"#utility.yul\":1494:1552   */\n  mstore\n    /* \"#utility.yul\":1586:1595   */\n  0x6464726573732e00000000000000000000000000000000000000000000000000\n    /* \"#utility.yul\":1581:1583   */\n  0x20\n    /* \"#utility.yul\":1573:1579   */\n  dup3\n    /* \"#utility.yul\":1569:1584   */\n  add\n    /* \"#utility.yul\":1562:1596   */\n  mstore\n    /* \"#utility.yul\":1377:1603   */\n  pop\n  jump\t// out\n    /* \"#utility.yul\":1609:1975   */\ntag_19:\n    /* \"#utility.yul\":1751:1754   */\n  0x00\n    /* \"#utility.yul\":1772:1839   */\n  tag_39\n    /* \"#utility.yul\":1836:1838   */\n  0x27\n    /* \"#utility.yul\":1831:1834   */\n  dup4\n    /* \"#utility.yul\":1772:1839   */\n  tag_17\n  jump\t// in\ntag_39:\n    /* \"#utility.yul\":1765:1839   */\n  swap2\n  pop\n    /* \"#utility.yul\":1848:1941   */\n  tag_40\n    /* \"#utility.yul\":1937:1940   */\n  dup3\n    /* \"#utility.yul\":1848:1941   */\n  tag_18\n  jump\t// in\ntag_40:\n    /* \"#utility.yul\":1966:1968   */\n  0x40\n    /* \"#utility.yul\":1961:1964   */\n  dup3\n    /* \"#utility.yul\":1957:1969   */\n  add\n    /* \"#utility.yul\":1950:1969   */\n  swap1\n  pop\n    /* \"#utility.yul\":1609:1975   */\n  swap2\n  swap1\n  pop\n  jump\t// out\n    /* \"#utility.yul\":1981:2400   */\ntag_8:\n    /* \"#utility.yul\":2147:2151   */\n  0x00\n    /* \"#utility.yul\":2185:2187   */\n  0x20\n    /* \"#utility.yul\":2174:2183   */\n  dup3\n    /* \"#utility.yul\":2170:2188   */\n  add\n    /* \"#utility.yul\":2162:2188   */\n  swap1\n  pop\n    /* \"#utility.yul\":2234:2243   */\n  dup2\n    /* \"#utility.yul\":2228:2232   */\n  dup2\n    /* \"#utility.yul\":2224:2244   */\n  sub\n    /* \"#utility.yul\":2220:2221   */\n  0x00\n    /* \"#utility.yul\":2209:2218   */\n  dup4\n    /* \"#utility.yul\":2205:2222   */\n  add\n    /* \"#utility.yul\":2198:2245   */\n  mstore\n    /* \"#utility.yul\":2262:2393   */\n  tag_42\n    /* \"#utility.yul\":2388:2392   */\n  dup2\n    /* \"#utility.yul\":2262:2393   */\n  tag_19\n  jump\t// in\ntag_42:\n    /* \"#utility.yul\":2254:2393   */\n  swap1\n  pop\n    /* \"#utility.yul\":1981:2400   */\n  swap2\n  swap1\n  pop\n  jump\t// out\n    /* \"wallet.sol\":13427:18610  contract Paymaster {... */\ntag_9:\n  dataSize(sub_0)\n  dup1\n  dataOffset(sub_0)\n  0x00\n  codecopy\n  0x00\n  return\nstop\n\nsub_0: assembly {\n        /* \"wallet.sol\":13427:18610  contract Paymaster {... */\n      mstore(0x40, 0x80)\n      jumpi(tag_1, lt(calldatasize, 0x04))\n      shr(0xe0, calldataload(0x00))\n      dup1\n      0x1300b2ee\n      eq\n      tag_3\n      jumpi\n      dup1\n      0x66984a7e\n      eq\n      tag_4\n      jumpi\n      dup1\n      0x8da5cb5b\n      eq\n      tag_5\n      jumpi\n      jump(tag_2)\n    tag_1:\n      jumpi(tag_2, calldatasize)\n      stop\n    tag_2:\n      revert(0x00, 0x00)\n        /* \"wallet.sol\":14208:16353  function validatePaymasterUserOp(... */\n    tag_3:\n      callvalue\n      dup1\n      iszero\n      tag_8\n      jumpi\n      revert(0x00, 0x00)\n    tag_8:\n      pop\n      tag_9\n      0x04\n      dup1\n      calldatasize\n      sub\n      dup2\n      add\n      swap1\n      tag_10\n      swap2\n      swap1\n      tag_11\n      jump\t// in\n    tag_10:\n      tag_12\n      jump\t// in\n    tag_9:\n      mload(0x40)\n      tag_13\n      swap2\n      swap1\n      tag_14\n      jump\t// in\n    tag_13:\n      mload(0x40)\n      dup1\n      swap2\n      sub\n      swap1\n      return\n        /* \"wallet.sol\":16581:18080  function postOp(... */\n    tag_4:\n      callvalue\n      dup1\n      iszero\n      tag_15\n      jumpi\n      revert(0x00, 0x00)\n    tag_15:\n      pop\n      tag_16\n      0x04\n      dup1\n      calldatasize\n      sub\n      dup2\n      add\n      swap1\n      tag_17\n      swap2\n      swap1\n      tag_18\n      jump\t// in\n    tag_17:\n      tag_19\n      jump\t// in\n    tag_16:\n      stop\n        /* \"wallet.sol\":13495:13515  address public owner */\n    tag_5:\n      callvalue\n      dup1\n      iszero\n      tag_20\n      jumpi\n      revert(0x00, 0x00)\n    tag_20:\n      pop\n      tag_21\n      tag_22\n      jump\t// in\n    tag_21:\n      mload(0x40)\n      tag_23\n      swap2\n      swap1\n      tag_24\n      jump\t// in\n    tag_23:\n      mload(0x40)\n      dup1\n      swap2\n      sub\n      swap1\n      return\n        /* \"wallet.sol\":14208:16353  function validatePaymasterUserOp(... */\n    tag_12:\n        /* \"wallet.sol\":14547:14571  uint256 validationResult */\n      0x00\n        /* \"wallet.sol\":14708:14717  tx.origin */\n      origin\n        /* \"wallet.sol\":14694:14717  msg.sender != tx.origin */\n      0xffffffffffffffffffffffffffffffffffffffff\n      and\n        /* \"wallet.sol\":14694:14704  msg.sender */\n      caller\n        /* \"wallet.sol\":14694:14717  msg.sender != tx.origin */\n      0xffffffffffffffffffffffffffffffffffffffff\n      and\n      sub\n        /* \"wallet.sol\":14686:14779  require(msg.sender != tx.origin, \"Paymaster validation cannot be called directly by an EOA.\") */\n      tag_26\n      jumpi\n      mload(0x40)\n      0x08c379a000000000000000000000000000000000000000000000000000000000\n      dup2\n      mstore\n      0x04\n      add\n      tag_27\n      swap1\n      tag_28\n      jump\t// in\n    tag_27:\n      mload(0x40)\n      dup1\n      swap2\n      sub\n      swap1\n      revert\n    tag_26:\n        /* \"wallet.sol\":15253:15274  bool willingToSponsor */\n      0x00\n        /* \"wallet.sol\":15277:15281  true */\n      0x01\n        /* \"wallet.sol\":15253:15281  bool willingToSponsor = true */\n      swap1\n      pop\n        /* \"wallet.sol\":15314:15330  willingToSponsor */\n      dup1\n        /* \"wallet.sol\":15306:15409  require(willingToSponsor, \"Paymaster is not willing to sponsor this UserOp. Find another sugar daddy.\") */\n      tag_29\n      jumpi\n      mload(0x40)\n      0x08c379a000000000000000000000000000000000000000000000000000000000\n      dup2\n      mstore\n      0x04\n      add\n      tag_30\n      swap1\n      tag_31\n      jump\t// in\n    tag_30:\n      mload(0x40)\n      dup1\n      swap2\n      sub\n      swap1\n      revert\n    tag_29:\n        /* \"wallet.sol\":16324:16325  0 */\n      0x00\n        /* \"wallet.sol\":16317:16325  return 0 */\n      swap2\n      pop\n      pop\n        /* \"wallet.sol\":14208:16353  function validatePaymasterUserOp(... */\n      swap4\n      swap3\n      pop\n      pop\n      pop\n      jump\t// out\n        /* \"wallet.sol\":16581:18080  function postOp(... */\n    tag_19:\n        /* \"wallet.sol\":16885:16894  tx.origin */\n      origin\n        /* \"wallet.sol\":16871:16894  msg.sender != tx.origin */\n      0xffffffffffffffffffffffffffffffffffffffff\n      and\n        /* \"wallet.sol\":16871:16881  msg.sender */\n      caller\n        /* \"wallet.sol\":16871:16894  msg.sender != tx.origin */\n      0xffffffffffffffffffffffffffffffffffffffff\n      and\n      sub\n        /* \"wallet.sol\":16863:16952  require(msg.sender != tx.origin, \"Paymaster postOp cannot be called directly by an EOA.\") */\n      tag_33\n      jumpi\n      mload(0x40)\n      0x08c379a000000000000000000000000000000000000000000000000000000000\n      dup2\n      mstore\n      0x04\n      add\n      tag_34\n      swap1\n      tag_35\n      jump\t// in\n    tag_34:\n      mload(0x40)\n      dup1\n      swap2\n      sub\n      swap1\n      revert\n    tag_33:\n        /* \"wallet.sol\":17564:17573  tx.origin */\n      origin\n        /* \"wallet.sol\":17551:17589  GasSponsored(tx.origin, actualGasCost) */\n      0xffffffffffffffffffffffffffffffffffffffff\n      and\n      0x2f5b7da0b8502c9a04f1c60a92a12cc859cb3cefb8951253e2f1c0df6c65d28d\n        /* \"wallet.sol\":17575:17588  actualGasCost */\n      dup5\n        /* \"wallet.sol\":17551:17589  GasSponsored(tx.origin, actualGasCost) */\n      mload(0x40)\n      tag_36\n      swap2\n      swap1\n      tag_14\n      jump\t// in\n    tag_36:\n      mload(0x40)\n      dup1\n      swap2\n      sub\n      swap1\n      log2\n        /* \"wallet.sol\":16581:18080  function postOp(... */\n      pop\n      pop\n      pop\n      jump\t// out\n        /* \"wallet.sol\":13495:13515  address public owner */\n    tag_22:\n      0x00\n      0x00\n      swap1\n      sload\n      swap1\n      0x0100\n      exp\n      swap1\n      div\n      0xffffffffffffffffffffffffffffffffffffffff\n      and\n      dup2\n      jump\t// out\n        /* \"#utility.yul\":88:205   */\n    tag_38:\n        /* \"#utility.yul\":197:198   */\n      0x00\n        /* \"#utility.yul\":194:195   */\n      0x00\n        /* \"#utility.yul\":187:199   */\n      revert\n        /* \"#utility.yul\":211:328   */\n    tag_39:\n        /* \"#utility.yul\":320:321   */\n      0x00\n        /* \"#utility.yul\":317:318   */\n      0x00\n        /* \"#utility.yul\":310:322   */\n      revert\n        /* \"#utility.yul\":334:451   */\n    tag_40:\n        /* \"#utility.yul\":443:444   */\n      0x00\n        /* \"#utility.yul\":440:441   */\n      0x00\n        /* \"#utility.yul\":433:445   */\n      revert\n        /* \"#utility.yul\":485:721   */\n    tag_41:\n        /* \"#utility.yul\":562:567   */\n      0x00\n        /* \"#utility.yul\":603:606   */\n      0x0140\n        /* \"#utility.yul\":594:600   */\n      dup3\n        /* \"#utility.yul\":589:592   */\n      dup5\n        /* \"#utility.yul\":585:601   */\n      sub\n        /* \"#utility.yul\":581:607   */\n      slt\n        /* \"#utility.yul\":578:691   */\n      iszero\n      tag_69\n      jumpi\n        /* \"#utility.yul\":610:689   */\n      tag_70\n      tag_40\n      jump\t// in\n    tag_70:\n        /* \"#utility.yul\":578:691   */\n    tag_69:\n        /* \"#utility.yul\":709:715   */\n      dup2\n        /* \"#utility.yul\":700:715   */\n      swap1\n      pop\n        /* \"#utility.yul\":485:721   */\n      swap3\n      swap2\n      pop\n      pop\n      jump\t// out\n        /* \"#utility.yul\":727:804   */\n    tag_42:\n        /* \"#utility.yul\":764:771   */\n      0x00\n        /* \"#utility.yul\":793:798   */\n      dup2\n        /* \"#utility.yul\":782:798   */\n      swap1\n      pop\n        /* \"#utility.yul\":727:804   */\n      swap2\n      swap1\n      pop\n      jump\t// out\n        /* \"#utility.yul\":810:932   */\n    tag_43:\n        /* \"#utility.yul\":883:907   */\n      tag_73\n        /* \"#utility.yul\":901:906   */\n      dup2\n        /* \"#utility.yul\":883:907   */\n      tag_42\n      jump\t// in\n    tag_73:\n        /* \"#utility.yul\":876:881   */\n      dup2\n        /* \"#utility.yul\":873:908   */\n      eq\n        /* \"#utility.yul\":863:926   */\n      tag_74\n      jumpi\n        /* \"#utility.yul\":922:923   */\n      0x00\n        /* \"#utility.yul\":919:920   */\n      0x00\n        /* \"#utility.yul\":912:924   */\n      revert\n        /* \"#utility.yul\":863:926   */\n    tag_74:\n        /* \"#utility.yul\":810:932   */\n      pop\n      jump\t// out\n        /* \"#utility.yul\":938:1077   */\n    tag_44:\n        /* \"#utility.yul\":984:989   */\n      0x00\n        /* \"#utility.yul\":1022:1028   */\n      dup2\n        /* \"#utility.yul\":1009:1029   */\n      calldataload\n        /* \"#utility.yul\":1000:1029   */\n      swap1\n      pop\n        /* \"#utility.yul\":1038:1071   */\n      tag_76\n        /* \"#utility.yul\":1065:1070   */\n      dup2\n        /* \"#utility.yul\":1038:1071   */\n      tag_43\n      jump\t// in\n    tag_76:\n        /* \"#utility.yul\":938:1077   */\n      swap3\n      swap2\n      pop\n      pop\n      jump\t// out\n        /* \"#utility.yul\":1083:1160   */\n    tag_45:\n        /* \"#utility.yul\":1120:1127   */\n      0x00\n        /* \"#utility.yul\":1149:1154   */\n      dup2\n        /* \"#utility.yul\":1138:1154   */\n      swap1\n      pop\n        /* \"#utility.yul\":1083:1160   */\n      swap2\n      swap1\n      pop\n      jump\t// out\n        /* \"#utility.yul\":1166:1288   */\n    tag_46:\n        /* \"#utility.yul\":1239:1263   */\n      tag_79\n        /* \"#utility.yul\":1257:1262   */\n      dup2\n        /* \"#utility.yul\":1239:1263   */\n      tag_45\n      jump\t// in\n    tag_79:\n        /* \"#utility.yul\":1232:1237   */\n      dup2\n        /* \"#utility.yul\":1229:1264   */\n      eq\n        /* \"#utility.yul\":1219:1282   */\n      tag_80\n      jumpi\n        /* \"#utility.yul\":1278:1279   */\n      0x00\n        /* \"#utility.yul\":1275:1276   */\n      0x00\n        /* \"#utility.yul\":1268:1280   */\n      revert\n        /* \"#utility.yul\":1219:1282   */\n    tag_80:\n        /* \"#utility.yul\":1166:1288   */\n      pop\n      jump\t// out\n        /* \"#utility.yul\":1294:1433   */\n    tag_47:\n        /* \"#utility.yul\":1340:1345   */\n      0x00\n        /* \"#utility.yul\":1378:1384   */\n      dup2\n        /* \"#utility.yul\":1365:1385   */\n      calldataload\n        /* \"#utility.yul\":1356:1385   */\n      swap1\n      pop\n        /* \"#utility.yul\":1394:1427   */\n      tag_82\n        /* \"#utility.yul\":1421:1426   */\n      dup2\n        /* \"#utility.yul\":1394:1427   */\n      tag_46\n      jump\t// in\n    tag_82:\n        /* \"#utility.yul\":1294:1433   */\n      swap3\n      swap2\n      pop\n      pop\n      jump\t// out\n        /* \"#utility.yul\":1439:2280   */\n    tag_11:\n        /* \"#utility.yul\":1547:1553   */\n      0x00\n        /* \"#utility.yul\":1555:1561   */\n      0x00\n        /* \"#utility.yul\":1563:1569   */\n      0x00\n        /* \"#utility.yul\":1612:1614   */\n      0x60\n        /* \"#utility.yul\":1600:1609   */\n      dup5\n        /* \"#utility.yul\":1591:1598   */\n      dup7\n        /* \"#utility.yul\":1587:1610   */\n      sub\n        /* \"#utility.yul\":1583:1615   */\n      slt\n        /* \"#utility.yul\":1580:1699   */\n      iszero\n      tag_84\n      jumpi\n        /* \"#utility.yul\":1618:1697   */\n      tag_85\n      tag_38\n      jump\t// in\n    tag_85:\n        /* \"#utility.yul\":1580:1699   */\n    tag_84:\n        /* \"#utility.yul\":1766:1767   */\n      0x00\n        /* \"#utility.yul\":1755:1764   */\n      dup5\n        /* \"#utility.yul\":1751:1768   */\n      add\n        /* \"#utility.yul\":1738:1769   */\n      calldataload\n        /* \"#utility.yul\":1796:1814   */\n      0xffffffffffffffff\n        /* \"#utility.yul\":1788:1794   */\n      dup2\n        /* \"#utility.yul\":1785:1815   */\n      gt\n        /* \"#utility.yul\":1782:1899   */\n      iszero\n      tag_86\n      jumpi\n        /* \"#utility.yul\":1818:1897   */\n      tag_87\n      tag_39\n      jump\t// in\n    tag_87:\n        /* \"#utility.yul\":1782:1899   */\n    tag_86:\n        /* \"#utility.yul\":1923:2007   */\n      tag_88\n        /* \"#utility.yul\":1999:2006   */\n      dup7\n        /* \"#utility.yul\":1990:1996   */\n      dup3\n        /* \"#utility.yul\":1979:1988   */\n      dup8\n        /* \"#utility.yul\":1975:1997   */\n      add\n        /* \"#utility.yul\":1923:2007   */\n      tag_41\n      jump\t// in\n    tag_88:\n        /* \"#utility.yul\":1913:2007   */\n      swap4\n      pop\n        /* \"#utility.yul\":1709:2017   */\n      pop\n        /* \"#utility.yul\":2056:2058   */\n      0x20\n        /* \"#utility.yul\":2082:2135   */\n      tag_89\n        /* \"#utility.yul\":2127:2134   */\n      dup7\n        /* \"#utility.yul\":2118:2124   */\n      dup3\n        /* \"#utility.yul\":2107:2116   */\n      dup8\n        /* \"#utility.yul\":2103:2125   */\n      add\n        /* \"#utility.yul\":2082:2135   */\n      tag_44\n      jump\t// in\n    tag_89:\n        /* \"#utility.yul\":2072:2135   */\n      swap3\n      pop\n        /* \"#utility.yul\":2027:2145   */\n      pop\n        /* \"#utility.yul\":2184:2186   */\n      0x40\n        /* \"#utility.yul\":2210:2263   */\n      tag_90\n        /* \"#utility.yul\":2255:2262   */\n      dup7\n        /* \"#utility.yul\":2246:2252   */\n      dup3\n        /* \"#utility.yul\":2235:2244   */\n      dup8\n        /* \"#utility.yul\":2231:2253   */\n      add\n        /* \"#utility.yul\":2210:2263   */\n      tag_47\n      jump\t// in\n    tag_90:\n        /* \"#utility.yul\":2200:2263   */\n      swap2\n      pop\n        /* \"#utility.yul\":2155:2273   */\n      pop\n        /* \"#utility.yul\":1439:2280   */\n      swap3\n      pop\n      swap3\n      pop\n      swap3\n      jump\t// out\n        /* \"#utility.yul\":2286:2404   */\n    tag_48:\n        /* \"#utility.yul\":2373:2397   */\n      tag_92\n        /* \"#utility.yul\":2391:2396   */\n      dup2\n        /* \"#utility.yul\":2373:2397   */\n      tag_45\n      jump\t// in\n    tag_92:\n        /* \"#utility.yul\":2368:2371   */\n      dup3\n        /* \"#utility.yul\":2361:2398   */\n      mstore\n        /* \"#utility.yul\":2286:2404   */\n      pop\n      pop\n      jump\t// out\n        /* \"#utility.yul\":2410:2632   */\n    tag_14:\n        /* \"#utility.yul\":2503:2507   */\n      0x00\n        /* \"#utility.yul\":2541:2543   */\n      0x20\n        /* \"#utility.yul\":2530:2539   */\n      dup3\n        /* \"#utility.yul\":2526:2544   */\n      add\n        /* \"#utility.yul\":2518:2544   */\n      swap1\n      pop\n        /* \"#utility.yul\":2554:2625   */\n      tag_94\n        /* \"#utility.yul\":2622:2623   */\n      0x00\n        /* \"#utility.yul\":2611:2620   */\n      dup4\n        /* \"#utility.yul\":2607:2624   */\n      add\n        /* \"#utility.yul\":2598:2604   */\n      dup5\n        /* \"#utility.yul\":2554:2625   */\n      tag_48\n      jump\t// in\n    tag_94:\n        /* \"#utility.yul\":2410:2632   */\n      swap3\n      swap2\n      pop\n      pop\n      jump\t// out\n        /* \"#utility.yul\":2638:2755   */\n    tag_49:\n        /* \"#utility.yul\":2747:2748   */\n      0x00\n        /* \"#utility.yul\":2744:2745   */\n      0x00\n        /* \"#utility.yul\":2737:2749   */\n      revert\n        /* \"#utility.yul\":2761:2878   */\n    tag_50:\n        /* \"#utility.yul\":2870:2871   */\n      0x00\n        /* \"#utility.yul\":2867:2868   */\n      0x00\n        /* \"#utility.yul\":2860:2872   */\n      revert\n        /* \"#utility.yul\":2884:3001   */\n    tag_51:\n        /* \"#utility.yul\":2993:2994   */\n      0x00\n        /* \"#utility.yul\":2990:2991   */\n      0x00\n        /* \"#utility.yul\":2983:2995   */\n      revert\n        /* \"#utility.yul\":3020:3572   */\n    tag_52:\n        /* \"#utility.yul\":3077:3085   */\n      0x00\n        /* \"#utility.yul\":3087:3093   */\n      0x00\n        /* \"#utility.yul\":3137:3140   */\n      dup4\n        /* \"#utility.yul\":3130:3134   */\n      0x1f\n        /* \"#utility.yul\":3122:3128   */\n      dup5\n        /* \"#utility.yul\":3118:3135   */\n      add\n        /* \"#utility.yul\":3114:3141   */\n      slt\n        /* \"#utility.yul\":3104:3226   */\n      tag_99\n      jumpi\n        /* \"#utility.yul\":3145:3224   */\n      tag_100\n      tag_49\n      jump\t// in\n    tag_100:\n        /* \"#utility.yul\":3104:3226   */\n    tag_99:\n        /* \"#utility.yul\":3258:3264   */\n      dup3\n        /* \"#utility.yul\":3245:3265   */\n      calldataload\n        /* \"#utility.yul\":3235:3265   */\n      swap1\n      pop\n        /* \"#utility.yul\":3288:3306   */\n      0xffffffffffffffff\n        /* \"#utility.yul\":3280:3286   */\n      dup2\n        /* \"#utility.yul\":3277:3307   */\n      gt\n        /* \"#utility.yul\":3274:3391   */\n      iszero\n      tag_101\n      jumpi\n        /* \"#utility.yul\":3310:3389   */\n      tag_102\n      tag_50\n      jump\t// in\n    tag_102:\n        /* \"#utility.yul\":3274:3391   */\n    tag_101:\n        /* \"#utility.yul\":3424:3428   */\n      0x20\n        /* \"#utility.yul\":3416:3422   */\n      dup4\n        /* \"#utility.yul\":3412:3429   */\n      add\n        /* \"#utility.yul\":3400:3429   */\n      swap2\n      pop\n        /* \"#utility.yul\":3478:3481   */\n      dup4\n        /* \"#utility.yul\":3470:3474   */\n      0x01\n        /* \"#utility.yul\":3462:3468   */\n      dup3\n        /* \"#utility.yul\":3458:3475   */\n      mul\n        /* \"#utility.yul\":3448:3456   */\n      dup4\n        /* \"#utility.yul\":3444:3476   */\n      add\n        /* \"#utility.yul\":3441:3482   */\n      gt\n        /* \"#utility.yul\":3438:3566   */\n      iszero\n      tag_103\n      jumpi\n        /* \"#utility.yul\":3485:3564   */\n      tag_104\n      tag_51\n      jump\t// in\n    tag_104:\n        /* \"#utility.yul\":3438:3566   */\n    tag_103:\n        /* \"#utility.yul\":3020:3572   */\n      swap3\n      pop\n      swap3\n      swap1\n      pop\n      jump\t// out\n        /* \"#utility.yul\":3578:4250   */\n    tag_18:\n        /* \"#utility.yul\":3657:3663   */\n      0x00\n        /* \"#utility.yul\":3665:3671   */\n      0x00\n        /* \"#utility.yul\":3673:3679   */\n      0x00\n        /* \"#utility.yul\":3722:3724   */\n      0x40\n        /* \"#utility.yul\":3710:3719   */\n      dup5\n        /* \"#utility.yul\":3701:3708   */\n      dup7\n        /* \"#utility.yul\":3697:3720   */\n      sub\n        /* \"#utility.yul\":3693:3725   */\n      slt\n        /* \"#utility.yul\":3690:3809   */\n      iszero\n      tag_106\n      jumpi\n        /* \"#utility.yul\":3728:3807   */\n      tag_107\n      tag_38\n      jump\t// in\n    tag_107:\n        /* \"#utility.yul\":3690:3809   */\n    tag_106:\n        /* \"#utility.yul\":3848:3849   */\n      0x00\n        /* \"#utility.yul\":3873:3926   */\n      tag_108\n        /* \"#utility.yul\":3918:3925   */\n      dup7\n        /* \"#utility.yul\":3909:3915   */\n      dup3\n        /* \"#utility.yul\":3898:3907   */\n      dup8\n        /* \"#utility.yul\":3894:3916   */\n      add\n        /* \"#utility.yul\":3873:3926   */\n      tag_47\n      jump\t// in\n    tag_108:\n        /* \"#utility.yul\":3863:3926   */\n      swap4\n      pop\n        /* \"#utility.yul\":3819:3936   */\n      pop\n        /* \"#utility.yul\":4003:4005   */\n      0x20\n        /* \"#utility.yul\":3992:4001   */\n      dup5\n        /* \"#utility.yul\":3988:4006   */\n      add\n        /* \"#utility.yul\":3975:4007   */\n      calldataload\n        /* \"#utility.yul\":4034:4052   */\n      0xffffffffffffffff\n        /* \"#utility.yul\":4026:4032   */\n      dup2\n        /* \"#utility.yul\":4023:4053   */\n      gt\n        /* \"#utility.yul\":4020:4137   */\n      iszero\n      tag_109\n      jumpi\n        /* \"#utility.yul\":4056:4135   */\n      tag_110\n      tag_39\n      jump\t// in\n    tag_110:\n        /* \"#utility.yul\":4020:4137   */\n    tag_109:\n        /* \"#utility.yul\":4169:4233   */\n      tag_111\n        /* \"#utility.yul\":4225:4232   */\n      dup7\n        /* \"#utility.yul\":4216:4222   */\n      dup3\n        /* \"#utility.yul\":4205:4214   */\n      dup8\n        /* \"#utility.yul\":4201:4223   */\n      add\n        /* \"#utility.yul\":4169:4233   */\n      tag_52\n      jump\t// in\n    tag_111:\n        /* \"#utility.yul\":4151:4233   */\n      swap3\n      pop\n      swap3\n      pop\n        /* \"#utility.yul\":3946:4243   */\n      pop\n        /* \"#utility.yul\":3578:4250   */\n      swap3\n      pop\n      swap3\n      pop\n      swap3\n      jump\t// out\n        /* \"#utility.yul\":4256:4382   */\n    tag_53:\n        /* \"#utility.yul\":4293:4300   */\n      0x00\n        /* \"#utility.yul\":4333:4375   */\n      0xffffffffffffffffffffffffffffffffffffffff\n        /* \"#utility.yul\":4326:4331   */\n      dup3\n        /* \"#utility.yul\":4322:4376   */\n      and\n        /* \"#utility.yul\":4311:4376   */\n      swap1\n      pop\n        /* \"#utility.yul\":4256:4382   */\n      swap2\n      swap1\n      pop\n      jump\t// out\n        /* \"#utility.yul\":4388:4484   */\n    tag_54:\n        /* \"#utility.yul\":4425:4432   */\n      0x00\n        /* \"#utility.yul\":4454:4478   */\n      tag_114\n        /* \"#utility.yul\":4472:4477   */\n      dup3\n        /* \"#utility.yul\":4454:4478   */\n      tag_53\n      jump\t// in\n    tag_114:\n        /* \"#utility.yul\":4443:4478   */\n      swap1\n      pop\n        /* \"#utility.yul\":4388:4484   */\n      swap2\n      swap1\n      pop\n      jump\t// out\n        /* \"#utility.yul\":4490:4608   */\n    tag_55:\n        /* \"#utility.yul\":4577:4601   */\n      tag_116\n        /* \"#utility.yul\":4595:4600   */\n      dup2\n        /* \"#utility.yul\":4577:4601   */\n      tag_54\n      jump\t// in\n    tag_116:\n        /* \"#utility.yul\":4572:4575   */\n      dup3\n        /* \"#utility.yul\":4565:4602   */\n      mstore\n        /* \"#utility.yul\":4490:4608   */\n      pop\n      pop\n      jump\t// out\n        /* \"#utility.yul\":4614:4836   */\n    tag_24:\n        /* \"#utility.yul\":4707:4711   */\n      0x00\n        /* \"#utility.yul\":4745:4747   */\n      0x20\n        /* \"#utility.yul\":4734:4743   */\n      dup3\n        /* \"#utility.yul\":4730:4748   */\n      add\n        /* \"#utility.yul\":4722:4748   */\n      swap1\n      pop\n        /* \"#utility.yul\":4758:4829   */\n      tag_118\n        /* \"#utility.yul\":4826:4827   */\n      0x00\n        /* \"#utility.yul\":4815:4824   */\n      dup4\n        /* \"#utility.yul\":4811:4828   */\n      add\n        /* \"#utility.yul\":4802:4808   */\n      dup5\n        /* \"#utility.yul\":4758:4829   */\n      tag_55\n      jump\t// in\n    tag_118:\n        /* \"#utility.yul\":4614:4836   */\n      swap3\n      swap2\n      pop\n      pop\n      jump\t// out\n        /* \"#utility.yul\":4842:5011   */\n    tag_56:\n        /* \"#utility.yul\":4926:4937   */\n      0x00\n        /* \"#utility.yul\":4960:4966   */\n      dup3\n        /* \"#utility.yul\":4955:4958   */\n      dup3\n        /* \"#utility.yul\":4948:4967   */\n      mstore\n        /* \"#utility.yul\":5000:5004   */\n      0x20\n        /* \"#utility.yul\":4995:4998   */\n      dup3\n        /* \"#utility.yul\":4991:5005   */\n      add\n        /* \"#utility.yul\":4976:5005   */\n      swap1\n      pop\n        /* \"#utility.yul\":4842:5011   */\n      swap3\n      swap2\n      pop\n      pop\n      jump\t// out\n        /* \"#utility.yul\":5017:5261   */\n    tag_57:\n        /* \"#utility.yul\":5157:5191   */\n      0x5061796d61737465722076616c69646174696f6e2063616e6e6f742062652063\n        /* \"#utility.yul\":5153:5154   */\n      0x00\n        /* \"#utility.yul\":5145:5151   */\n      dup3\n        /* \"#utility.yul\":5141:5155   */\n      add\n        /* \"#utility.yul\":5134:5192   */\n      mstore\n        /* \"#utility.yul\":5226:5253   */\n      0x616c6c6564206469726563746c7920627920616e20454f412e00000000000000\n        /* \"#utility.yul\":5221:5223   */\n      0x20\n        /* \"#utility.yul\":5213:5219   */\n      dup3\n        /* \"#utility.yul\":5209:5224   */\n      add\n        /* \"#utility.yul\":5202:5254   */\n      mstore\n        /* \"#utility.yul\":5017:5261   */\n      pop\n      jump\t// out\n        /* \"#utility.yul\":5267:5633   */\n    tag_58:\n        /* \"#utility.yul\":5409:5412   */\n      0x00\n        /* \"#utility.yul\":5430:5497   */\n      tag_122\n        /* \"#utility.yul\":5494:5496   */\n      0x39\n        /* \"#utility.yul\":5489:5492   */\n      dup4\n        /* \"#utility.yul\":5430:5497   */\n      tag_56\n      jump\t// in\n    tag_122:\n        /* \"#utility.yul\":5423:5497   */\n      swap2\n      pop\n        /* \"#utility.yul\":5506:5599   */\n      tag_123\n        /* \"#utility.yul\":5595:5598   */\n      dup3\n        /* \"#utility.yul\":5506:5599   */\n      tag_57\n      jump\t// in\n    tag_123:\n        /* \"#utility.yul\":5624:5626   */\n      0x40\n        /* \"#utility.yul\":5619:5622   */\n      dup3\n        /* \"#utility.yul\":5615:5627   */\n      add\n        /* \"#utility.yul\":5608:5627   */\n      swap1\n      pop\n        /* \"#utility.yul\":5267:5633   */\n      swap2\n      swap1\n      pop\n      jump\t// out\n        /* \"#utility.yul\":5639:6058   */\n    tag_28:\n        /* \"#utility.yul\":5805:5809   */\n      0x00\n        /* \"#utility.yul\":5843:5845   */\n      0x20\n        /* \"#utility.yul\":5832:5841   */\n      dup3\n        /* \"#utility.yul\":5828:5846   */\n      add\n        /* \"#utility.yul\":5820:5846   */\n      swap1\n      pop\n        /* \"#utility.yul\":5892:5901   */\n      dup2\n        /* \"#utility.yul\":5886:5890   */\n      dup2\n        /* \"#utility.yul\":5882:5902   */\n      sub\n        /* \"#utility.yul\":5878:5879   */\n      0x00\n        /* \"#utility.yul\":5867:5876   */\n      dup4\n        /* \"#utility.yul\":5863:5880   */\n      add\n        /* \"#utility.yul\":5856:5903   */\n      mstore\n        /* \"#utility.yul\":5920:6051   */\n      tag_125\n        /* \"#utility.yul\":6046:6050   */\n      dup2\n        /* \"#utility.yul\":5920:6051   */\n      tag_58\n      jump\t// in\n    tag_125:\n        /* \"#utility.yul\":5912:6051   */\n      swap1\n      pop\n        /* \"#utility.yul\":5639:6058   */\n      swap2\n      swap1\n      pop\n      jump\t// out\n        /* \"#utility.yul\":6064:6362   */\n    tag_59:\n        /* \"#utility.yul\":6204:6238   */\n      0x5061796d6173746572206973206e6f742077696c6c696e6720746f2073706f6e\n        /* \"#utility.yul\":6200:6201   */\n      0x00\n        /* \"#utility.yul\":6192:6198   */\n      dup3\n        /* \"#utility.yul\":6188:6202   */\n      add\n        /* \"#utility.yul\":6181:6239   */\n      mstore\n        /* \"#utility.yul\":6273:6307   */\n      0x736f72207468697320557365724f702e2046696e6420616e6f74686572207375\n        /* \"#utility.yul\":6268:6270   */\n      0x20\n        /* \"#utility.yul\":6260:6266   */\n      dup3\n        /* \"#utility.yul\":6256:6271   */\n      add\n        /* \"#utility.yul\":6249:6308   */\n      mstore\n        /* \"#utility.yul\":6342:6354   */\n      0x6761722064616464792e00000000000000000000000000000000000000000000\n        /* \"#utility.yul\":6337:6339   */\n      0x40\n        /* \"#utility.yul\":6329:6335   */\n      dup3\n        /* \"#utility.yul\":6325:6340   */\n      add\n        /* \"#utility.yul\":6318:6355   */\n      mstore\n        /* \"#utility.yul\":6064:6362   */\n      pop\n      jump\t// out\n        /* \"#utility.yul\":6368:6734   */\n    tag_60:\n        /* \"#utility.yul\":6510:6513   */\n      0x00\n        /* \"#utility.yul\":6531:6598   */\n      tag_128\n        /* \"#utility.yul\":6595:6597   */\n      0x4a\n        /* \"#utility.yul\":6590:6593   */\n      dup4\n        /* \"#utility.yul\":6531:6598   */\n      tag_56\n      jump\t// in\n    tag_128:\n        /* \"#utility.yul\":6524:6598   */\n      swap2\n      pop\n        /* \"#utility.yul\":6607:6700   */\n      tag_129\n        /* \"#utility.yul\":6696:6699   */\n      dup3\n        /* \"#utility.yul\":6607:6700   */\n      tag_59\n      jump\t// in\n    tag_129:\n        /* \"#utility.yul\":6725:6727   */\n      0x60\n        /* \"#utility.yul\":6720:6723   */\n      dup3\n        /* \"#utility.yul\":6716:6728   */\n      add\n        /* \"#utility.yul\":6709:6728   */\n      swap1\n      pop\n        /* \"#utility.yul\":6368:6734   */\n      swap2\n      swap1\n      pop\n      jump\t// out\n        /* \"#utility.yul\":6740:7159   */\n    tag_31:\n        /* \"#utility.yul\":6906:6910   */\n      0x00\n        /* \"#utility.yul\":6944:6946   */\n      0x20\n        /* \"#utility.yul\":6933:6942   */\n      dup3\n        /* \"#utility.yul\":6929:6947   */\n      add\n        /* \"#utility.yul\":6921:6947   */\n      swap1\n      pop\n        /* \"#utility.yul\":6993:7002   */\n      dup2\n        /* \"#utility.yul\":6987:6991   */\n      dup2\n        /* \"#utility.yul\":6983:7003   */\n      sub\n        /* \"#utility.yul\":6979:6980   */\n      0x00\n        /* \"#utility.yul\":6968:6977   */\n      dup4\n        /* \"#utility.yul\":6964:6981   */\n      add\n        /* \"#utility.yul\":6957:7004   */\n      mstore\n        /* \"#utility.yul\":7021:7152   */\n      tag_131\n        /* \"#utility.yul\":7147:7151   */\n      dup2\n        /* \"#utility.yul\":7021:7152   */\n      tag_60\n      jump\t// in\n    tag_131:\n        /* \"#utility.yul\":7013:7152   */\n      swap1\n      pop\n        /* \"#utility.yul\":6740:7159   */\n      swap2\n      swap1\n      pop\n      jump\t// out\n        /* \"#utility.yul\":7165:7405   */\n    tag_61:\n        /* \"#utility.yul\":7305:7339   */\n      0x5061796d617374657220706f73744f702063616e6e6f742062652063616c6c65\n        /* \"#utility.yul\":7301:7302   */\n      0x00\n        /* \"#utility.yul\":7293:7299   */\n      dup3\n        /* \"#utility.yul\":7289:7303   */\n      add\n        /* \"#utility.yul\":7282:7340   */\n      mstore\n        /* \"#utility.yul\":7374:7397   */\n      0x64206469726563746c7920627920616e20454f412e0000000000000000000000\n        /* \"#utility.yul\":7369:7371   */\n      0x20\n        /* \"#utility.yul\":7361:7367   */\n      dup3\n        /* \"#utility.yul\":7357:7372   */\n      add\n        /* \"#utility.yul\":7350:7398   */\n      mstore\n        /* \"#utility.yul\":7165:7405   */\n      pop\n      jump\t// out\n        /* \"#utility.yul\":7411:7777   */\n    tag_62:\n        /* \"#utility.yul\":7553:7556   */\n      0x00\n        /* \"#utility.yul\":7574:7641   */\n      tag_134\n        /* \"#utility.yul\":7638:7640   */\n      0x35\n        /* \"#utility.yul\":7633:7636   */\n      dup4\n        /* \"#utility.yul\":7574:7641   */\n      tag_56\n      jump\t// in\n    tag_134:\n        /* \"#utility.yul\":7567:7641   */\n      swap2\n      pop\n        /* \"#utility.yul\":7650:7743   */\n      tag_135\n        /* \"#utility.yul\":7739:7742   */\n      dup3\n        /* \"#utility.yul\":7650:7743   */\n      tag_61\n      jump\t// in\n    tag_135:\n        /* \"#utility.yul\":7768:7770   */\n      0x40\n        /* \"#utility.yul\":7763:7766   */\n      dup3\n        /* \"#utility.yul\":7759:7771   */\n      add\n        /* \"#utility.yul\":7752:7771   */\n      swap1\n      pop\n        /* \"#utility.yul\":7411:7777   */\n      swap2\n      swap1\n      pop\n      jump\t// out\n        /* \"#utility.yul\":7783:8202   */\n    tag_35:\n        /* \"#utility.yul\":7949:7953   */\n      0x00\n        /* \"#utility.yul\":7987:7989   */\n      0x20\n        /* \"#utility.yul\":7976:7985   */\n      dup3\n        /* \"#utility.yul\":7972:7990   */\n      add\n        /* \"#utility.yul\":7964:7990   */\n      swap1\n      pop\n        /* \"#utility.yul\":8036:8045   */\n      dup2\n        /* \"#utility.yul\":8030:8034   */\n      dup2\n        /* \"#utility.yul\":8026:8046   */\n      sub\n        /* \"#utility.yul\":8022:8023   */\n      0x00\n        /* \"#utility.yul\":8011:8020   */\n      dup4\n        /* \"#utility.yul\":8007:8024   */\n      add\n        /* \"#utility.yul\":8000:8047   */\n      mstore\n        /* \"#utility.yul\":8064:8195   */\n      tag_137\n        /* \"#utility.yul\":8190:8194   */\n      dup2\n        /* \"#utility.yul\":8064:8195   */\n      tag_62\n      jump\t// in\n    tag_137:\n        /* \"#utility.yul\":8056:8195   */\n      swap1\n      pop\n        /* \"#utility.yul\":7783:8202   */\n      swap2\n      swap1\n      pop\n      jump\t// out\n\n    auxdata: 0xa264697066735822122063e5556a805db9fd03efd6ea0f119ee4343f8b2f07d5afdab50a886c7110061d64736f6c634300081e0033\n}\n",
				"bytecode": {
					"linkReferences": {},
					"object": "608060405234801561000f575f5ffd5b506040516108dd3803806108dd83398181016040528101906100319190610142565b5f73ffffffffffffffffffffffffffffffffffffffff168173ffffffffffffffffffffffffffffffffffffffff160361009f576040517f08c379a0000000000000000000000000000000000000000000000000000000008152600401610096906101ed565b60405180910390fd5b805f5f6101000a81548173ffffffffffffffffffffffffffffffffffffffff021916908373ffffffffffffffffffffffffffffffffffffffff1602179055505061020b565b5f5ffd5b5f73ffffffffffffffffffffffffffffffffffffffff82169050919050565b5f610111826100e8565b9050919050565b61012181610107565b811461012b575f5ffd5b50565b5f8151905061013c81610118565b92915050565b5f60208284031215610157576101566100e4565b5b5f6101648482850161012e565b91505092915050565b5f82825260208201905092915050565b7f5061796d6173746572206f776e65722063616e6e6f74206265207a65726f20615f8201527f6464726573732e00000000000000000000000000000000000000000000000000602082015250565b5f6101d760278361016d565b91506101e28261017d565b604082019050919050565b5f6020820190508181035f830152610204816101cb565b9050919050565b6106c5806102185f395ff3fe608060405260043610610037575f3560e01c80631300b2ee1461004257806366984a7e1461007e5780638da5cb5b146100a65761003e565b3661003e57005b5f5ffd5b34801561004d575f5ffd5b5061006860048036038101906100639190610305565b6100d0565b6040516100759190610380565b60405180910390f35b348015610089575f5ffd5b506100a4600480360381019061009f91906103fa565b61018f565b005b3480156100b1575f5ffd5b506100ba610250565b6040516100c79190610496565b60405180910390f35b5f3273ffffffffffffffffffffffffffffffffffffffff163373ffffffffffffffffffffffffffffffffffffffff160361013f576040517f08c379a00000000000000000000000000000000000000000000000000000000081526004016101369061052f565b60405180910390fd5b5f6001905080610184576040517f08c379a000000000000000000000000000000000000000000000000000000000815260040161017b906105e3565b60405180910390fd5b5f9150509392505050565b3273ffffffffffffffffffffffffffffffffffffffff163373ffffffffffffffffffffffffffffffffffffffff16036101fd576040517f08c379a00000000000000000000000000000000000000000000000000000000081526004016101f490610671565b60405180910390fd5b3273ffffffffffffffffffffffffffffffffffffffff167f2f5b7da0b8502c9a04f1c60a92a12cc859cb3cefb8951253e2f1c0df6c65d28d846040516102439190610380565b60405180910390a2505050565b5f5f9054906101000a900473ffffffffffffffffffffffffffffffffffffffff1681565b5f5ffd5b5f5ffd5b5f5ffd5b5f61014082840312156102965761029561027c565b5b81905092915050565b5f819050919050565b6102b18161029f565b81146102bb575f5ffd5b50565b5f813590506102cc816102a8565b92915050565b5f819050919050565b6102e4816102d2565b81146102ee575f5ffd5b50565b5f813590506102ff816102db565b92915050565b5f5f5f6060848603121561031c5761031b610274565b5b5f84013567ffffffffffffffff81111561033957610338610278565b5b61034586828701610280565b9350506020610356868287016102be565b9250506040610367868287016102f1565b9150509250925092565b61037a816102d2565b82525050565b5f6020820190506103935f830184610371565b92915050565b5f5ffd5b5f5ffd5b5f5ffd5b5f5f83601f8401126103ba576103b9610399565b5b8235905067ffffffffffffffff8111156103d7576103d661039d565b5b6020830191508360018202830111156103f3576103f26103a1565b5b9250929050565b5f5f5f6040848603121561041157610410610274565b5b5f61041e868287016102f1565b935050602084013567ffffffffffffffff81111561043f5761043e610278565b5b61044b868287016103a5565b92509250509250925092565b5f73ffffffffffffffffffffffffffffffffffffffff82169050919050565b5f61048082610457565b9050919050565b61049081610476565b82525050565b5f6020820190506104a95f830184610487565b92915050565b5f82825260208201905092915050565b7f5061796d61737465722076616c69646174696f6e2063616e6e6f7420626520635f8201527f616c6c6564206469726563746c7920627920616e20454f412e00000000000000602082015250565b5f6105196039836104af565b9150610524826104bf565b604082019050919050565b5f6020820190508181035f8301526105468161050d565b9050919050565b7f5061796d6173746572206973206e6f742077696c6c696e6720746f2073706f6e5f8201527f736f72207468697320557365724f702e2046696e6420616e6f7468657220737560208201527f6761722064616464792e00000000000000000000000000000000000000000000604082015250565b5f6105cd604a836104af565b91506105d88261054d565b606082019050919050565b5f6020820190508181035f8301526105fa816105c1565b9050919050565b7f5061796d617374657220706f73744f702063616e6e6f742062652063616c6c655f8201527f64206469726563746c7920627920616e20454f412e0000000000000000000000602082015250565b5f61065b6035836104af565b915061066682610601565b604082019050919050565b5f6020820190508181035f8301526106888161064f565b905091905056fea264697066735822122063e5556a805db9fd03efd6ea0f119ee4343f8b2f07d5afdab50a886c7110061d64736f6c634300081e0033",
					"opcodes": "PUSH1 0x80 PUSH1 0x40 MSTORE CALLVALUE DUP1 ISZERO PUSH2 0xF JUMPI PUSH0 PUSH0 REVERT JUMPDEST POP PUSH1 0x40 MLOAD PUSH2 0x8DD CODESIZE SUB DUP1 PUSH2 0x8DD DUP4 CODECOPY DUP2 DUP2 ADD PUSH1 0x40 MSTORE DUP2 ADD SWAP1 PUSH2 0x31 SWAP2 SWAP1 PUSH2 0x142 JUMP JUMPDEST PUSH0 PUSH20 0xFFFFFFFFFFFFFFFFFFFFFFFFFFFFFFFFFFFFFFFF AND DUP2 PUSH20 0xFFFFFFFFFFFFFFFFFFFFFFFFFFFFFFFFFFFFFFFF AND SUB PUSH2 0x9F JUMPI PUSH1 0x40 MLOAD PUSH32 0x8C379A000000000000000000000000000000000000000000000000000000000 DUP2 MSTORE PUSH1 0x4 ADD PUSH2 0x96 SWAP1 PUSH2 0x1ED JUMP JUMPDEST PUSH1 0x40 MLOAD DUP1 SWAP2 SUB SWAP1 REVERT JUMPDEST DUP1 PUSH0 PUSH0 PUSH2 0x100 EXP DUP2 SLOAD DUP2 PUSH20 0xFFFFFFFFFFFFFFFFFFFFFFFFFFFFFFFFFFFFFFFF MUL NOT AND SWAP1 DUP4 PUSH20 0xFFFFFFFFFFFFFFFFFFFFFFFFFFFFFFFFFFFFFFFF AND MUL OR SWAP1 SSTORE POP POP PUSH2 0x20B JUMP JUMPDEST PUSH0 PUSH0 REVERT JUMPDEST PUSH0 PUSH20 0xFFFFFFFFFFFFFFFFFFFFFFFFFFFFFFFFFFFFFFFF DUP3 AND SWAP1 POP SWAP2 SWAP1 POP JUMP JUMPDEST PUSH0 PUSH2 0x111 DUP3 PUSH2 0xE8 JUMP JUMPDEST SWAP1 POP SWAP2 SWAP1 POP JUMP JUMPDEST PUSH2 0x121 DUP2 PUSH2 0x107 JUMP JUMPDEST DUP2 EQ PUSH2 0x12B JUMPI PUSH0 PUSH0 REVERT JUMPDEST POP JUMP JUMPDEST PUSH0 DUP2 MLOAD SWAP1 POP PUSH2 0x13C DUP2 PUSH2 0x118 JUMP JUMPDEST SWAP3 SWAP2 POP POP JUMP JUMPDEST PUSH0 PUSH1 0x20 DUP3 DUP5 SUB SLT ISZERO PUSH2 0x157 JUMPI PUSH2 0x156 PUSH2 0xE4 JUMP JUMPDEST JUMPDEST PUSH0 PUSH2 0x164 DUP5 DUP3 DUP6 ADD PUSH2 0x12E JUMP JUMPDEST SWAP2 POP POP SWAP3 SWAP2 POP POP JUMP JUMPDEST PUSH0 DUP3 DUP3 MSTORE PUSH1 0x20 DUP3 ADD SWAP1 POP SWAP3 SWAP2 POP POP JUMP JUMPDEST PUSH32 0x5061796D6173746572206F776E65722063616E6E6F74206265207A65726F2061 PUSH0 DUP3 ADD MSTORE PUSH32 0x6464726573732E00000000000000000000000000000000000000000000000000 PUSH1 0x20 DUP3 ADD MSTORE POP JUMP JUMPDEST PUSH0 PUSH2 0x1D7 PUSH1 0x27 DUP4 PUSH2 0x16D JUMP JUMPDEST SWAP2 POP PUSH2 0x1E2 DUP3 PUSH2 0x17D JUMP JUMPDEST PUSH1 0x40 DUP3 ADD SWAP1 POP SWAP2 SWAP1 POP JUMP JUMPDEST PUSH0 PUSH1 0x20 DUP3 ADD SWAP1 POP DUP2 DUP2 SUB PUSH0 DUP4 ADD MSTORE PUSH2 0x204 DUP2 PUSH2 0x1CB JUMP JUMPDEST SWAP1 POP SWAP2 SWAP1 POP JUMP JUMPDEST PUSH2 0x6C5 DUP1 PUSH2 0x218 PUSH0 CODECOPY PUSH0 RETURN INVALID PUSH1 0x80 PUSH1 0x40 MSTORE PUSH1 0x4 CALLDATASIZE LT PUSH2 0x37 JUMPI PUSH0 CALLDATALOAD PUSH1 0xE0 SHR DUP1 PUSH4 0x1300B2EE EQ PUSH2 0x42 JUMPI DUP1 PUSH4 0x66984A7E EQ PUSH2 0x7E JUMPI DUP1 PUSH4 0x8DA5CB5B EQ PUSH2 0xA6 JUMPI PUSH2 0x3E JUMP JUMPDEST CALLDATASIZE PUSH2 0x3E JUMPI STOP JUMPDEST PUSH0 PUSH0 REVERT JUMPDEST CALLVALUE DUP1 ISZERO PUSH2 0x4D JUMPI PUSH0 PUSH0 REVERT JUMPDEST POP PUSH2 0x68 PUSH1 0x4 DUP1 CALLDATASIZE SUB DUP2 ADD SWAP1 PUSH2 0x63 SWAP2 SWAP1 PUSH2 0x305 JUMP JUMPDEST PUSH2 0xD0 JUMP JUMPDEST PUSH1 0x40 MLOAD PUSH2 0x75 SWAP2 SWAP1 PUSH2 0x380 JUMP JUMPDEST PUSH1 0x40 MLOAD DUP1 SWAP2 SUB SWAP1 RETURN JUMPDEST CALLVALUE DUP1 ISZERO PUSH2 0x89 JUMPI PUSH0 PUSH0 REVERT JUMPDEST POP PUSH2 0xA4 PUSH1 0x4 DUP1 CALLDATASIZE SUB DUP2 ADD SWAP1 PUSH2 0x9F SWAP2 SWAP1 PUSH2 0x3FA JUMP JUMPDEST PUSH2 0x18F JUMP JUMPDEST STOP JUMPDEST CALLVALUE DUP1 ISZERO PUSH2 0xB1 JUMPI PUSH0 PUSH0 REVERT JUMPDEST POP PUSH2 0xBA PUSH2 0x250 JUMP JUMPDEST PUSH1 0x40 MLOAD PUSH2 0xC7 SWAP2 SWAP1 PUSH2 0x496 JUMP JUMPDEST PUSH1 0x40 MLOAD DUP1 SWAP2 SUB SWAP1 RETURN JUMPDEST PUSH0 ORIGIN PUSH20 0xFFFFFFFFFFFFFFFFFFFFFFFFFFFFFFFFFFFFFFFF AND CALLER PUSH20 0xFFFFFFFFFFFFFFFFFFFFFFFFFFFFFFFFFFFFFFFF AND SUB PUSH2 0x13F JUMPI PUSH1 0x40 MLOAD PUSH32 0x8C379A000000000000000000000000000000000000000000000000000000000 DUP2 MSTORE PUSH1 0x4 ADD PUSH2 0x136 SWAP1 PUSH2 0x52F JUMP JUMPDEST PUSH1 0x40 MLOAD DUP1 SWAP2 SUB SWAP1 REVERT JUMPDEST PUSH0 PUSH1 0x1 SWAP1 POP DUP1 PUSH2 0x184 JUMPI PUSH1 0x40 MLOAD PUSH32 0x8C379A000000000000000000000000000000000000000000000000000000000 DUP2 MSTORE PUSH1 0x4 ADD PUSH2 0x17B SWAP1 PUSH2 0x5E3 JUMP JUMPDEST PUSH1 0x40 MLOAD DUP1 SWAP2 SUB SWAP1 REVERT JUMPDEST PUSH0 SWAP2 POP POP SWAP4 SWAP3 POP POP POP JUMP JUMPDEST ORIGIN PUSH20 0xFFFFFFFFFFFFFFFFFFFFFFFFFFFFFFFFFFFFFFFF AND CALLER PUSH20 0xFFFFFFFFFFFFFFFFFFFFFFFFFFFFFFFFFFFFFFFF AND SUB PUSH2 0x1FD JUMPI PUSH1 0x40 MLOAD PUSH32 0x8C379A000000000000000000000000000000000000000000000000000000000 DUP2 MSTORE PUSH1 0x4 ADD PUSH2 0x1F4 SWAP1 PUSH2 0x671 JUMP JUMPDEST PUSH1 0x40 MLOAD DUP1 SWAP2 SUB SWAP1 REVERT JUMPDEST ORIGIN PUSH20 0xFFFFFFFFFFFFFFFFFFFFFFFFFFFFFFFFFFFFFFFF AND PUSH32 0x2F5B7DA0B8502C9A04F1C60A92A12CC859CB3CEFB8951253E2F1C0DF6C65D28D DUP5 PUSH1 0x40 MLOAD PUSH2 0x243 SWAP2 SWAP1 PUSH2 0x380 JUMP JUMPDEST PUSH1 0x40 MLOAD DUP1 SWAP2 SUB SWAP1 LOG2 POP POP POP JUMP JUMPDEST PUSH0 PUSH0 SWAP1 SLOAD SWAP1 PUSH2 0x100 EXP SWAP1 DIV PUSH20 0xFFFFFFFFFFFFFFFFFFFFFFFFFFFFFFFFFFFFFFFF AND DUP2 JUMP JUMPDEST PUSH0 PUSH0 REVERT JUMPDEST PUSH0 PUSH0 REVERT JUMPDEST PUSH0 PUSH0 REVERT JUMPDEST PUSH0 PUSH2 0x140 DUP3 DUP5 SUB SLT ISZERO PUSH2 0x296 JUMPI PUSH2 0x295 PUSH2 0x27C JUMP JUMPDEST JUMPDEST DUP2 SWAP1 POP SWAP3 SWAP2 POP POP JUMP JUMPDEST PUSH0 DUP2 SWAP1 POP SWAP2 SWAP1 POP JUMP JUMPDEST PUSH2 0x2B1 DUP2 PUSH2 0x29F JUMP JUMPDEST DUP2 EQ PUSH2 0x2BB JUMPI PUSH0 PUSH0 REVERT JUMPDEST POP JUMP JUMPDEST PUSH0 DUP2 CALLDATALOAD SWAP1 POP PUSH2 0x2CC DUP2 PUSH2 0x2A8 JUMP JUMPDEST SWAP3 SWAP2 POP POP JUMP JUMPDEST PUSH0 DUP2 SWAP1 POP SWAP2 SWAP1 POP JUMP JUMPDEST PUSH2 0x2E4 DUP2 PUSH2 0x2D2 JUMP JUMPDEST DUP2 EQ PUSH2 0x2EE JUMPI PUSH0 PUSH0 REVERT JUMPDEST POP JUMP JUMPDEST PUSH0 DUP2 CALLDATALOAD SWAP1 POP PUSH2 0x2FF DUP2 PUSH2 0x2DB JUMP JUMPDEST SWAP3 SWAP2 POP POP JUMP JUMPDEST PUSH0 PUSH0 PUSH0 PUSH1 0x60 DUP5 DUP7 SUB SLT ISZERO PUSH2 0x31C JUMPI PUSH2 0x31B PUSH2 0x274 JUMP JUMPDEST JUMPDEST PUSH0 DUP5 ADD CALLDATALOAD PUSH8 0xFFFFFFFFFFFFFFFF DUP2 GT ISZERO PUSH2 0x339 JUMPI PUSH2 0x338 PUSH2 0x278 JUMP JUMPDEST JUMPDEST PUSH2 0x345 DUP7 DUP3 DUP8 ADD PUSH2 0x280 JUMP JUMPDEST SWAP4 POP POP PUSH1 0x20 PUSH2 0x356 DUP7 DUP3 DUP8 ADD PUSH2 0x2BE JUMP JUMPDEST SWAP3 POP POP PUSH1 0x40 PUSH2 0x367 DUP7 DUP3 DUP8 ADD PUSH2 0x2F1 JUMP JUMPDEST SWAP2 POP POP SWAP3 POP SWAP3 POP SWAP3 JUMP JUMPDEST PUSH2 0x37A DUP2 PUSH2 0x2D2 JUMP JUMPDEST DUP3 MSTORE POP POP JUMP JUMPDEST PUSH0 PUSH1 0x20 DUP3 ADD SWAP1 POP PUSH2 0x393 PUSH0 DUP4 ADD DUP5 PUSH2 0x371 JUMP JUMPDEST SWAP3 SWAP2 POP POP JUMP JUMPDEST PUSH0 PUSH0 REVERT JUMPDEST PUSH0 PUSH0 REVERT JUMPDEST PUSH0 PUSH0 REVERT JUMPDEST PUSH0 PUSH0 DUP4 PUSH1 0x1F DUP5 ADD SLT PUSH2 0x3BA JUMPI PUSH2 0x3B9 PUSH2 0x399 JUMP JUMPDEST JUMPDEST DUP3 CALLDATALOAD SWAP1 POP PUSH8 0xFFFFFFFFFFFFFFFF DUP2 GT ISZERO PUSH2 0x3D7 JUMPI PUSH2 0x3D6 PUSH2 0x39D JUMP JUMPDEST JUMPDEST PUSH1 0x20 DUP4 ADD SWAP2 POP DUP4 PUSH1 0x1 DUP3 MUL DUP4 ADD GT ISZERO PUSH2 0x3F3 JUMPI PUSH2 0x3F2 PUSH2 0x3A1 JUMP JUMPDEST JUMPDEST SWAP3 POP SWAP3 SWAP1 POP JUMP JUMPDEST PUSH0 PUSH0 PUSH0 PUSH1 0x40 DUP5 DUP7 SUB SLT ISZERO PUSH2 0x411 JUMPI PUSH2 0x410 PUSH2 0x274 JUMP JUMPDEST JUMPDEST PUSH0 PUSH2 0x41E DUP7 DUP3 DUP8 ADD PUSH2 0x2F1 JUMP JUMPDEST SWAP4 POP POP PUSH1 0x20 DUP5 ADD CALLDATALOAD PUSH8 0xFFFFFFFFFFFFFFFF DUP2 GT ISZERO PUSH2 0x43F JUMPI PUSH2 0x43E PUSH2 0x278 JUMP JUMPDEST JUMPDEST PUSH2 0x44B DUP7 DUP3 DUP8 ADD PUSH2 0x3A5 JUMP JUMPDEST SWAP3 POP SWAP3 POP POP SWAP3 POP SWAP3 POP SWAP3 JUMP JUMPDEST PUSH0 PUSH20 0xFFFFFFFFFFFFFFFFFFFFFFFFFFFFFFFFFFFFFFFF DUP3 AND SWAP1 POP SWAP2 SWAP1 POP JUMP JUMPDEST PUSH0 PUSH2 0x480 DUP3 PUSH2 0x457 JUMP JUMPDEST SWAP1 POP SWAP2 SWAP1 POP JUMP JUMPDEST PUSH2 0x490 DUP2 PUSH2 0x476 JUMP JUMPDEST DUP3 MSTORE POP POP JUMP JUMPDEST PUSH0 PUSH1 0x20 DUP3 ADD SWAP1 POP PUSH2 0x4A9 PUSH0 DUP4 ADD DUP5 PUSH2 0x487 JUMP JUMPDEST SWAP3 SWAP2 POP POP JUMP JUMPDEST PUSH0 DUP3 DUP3 MSTORE PUSH1 0x20 DUP3 ADD SWAP1 POP SWAP3 SWAP2 POP POP JUMP JUMPDEST PUSH32 0x5061796D61737465722076616C69646174696F6E2063616E6E6F742062652063 PUSH0 DUP3 ADD MSTORE PUSH32 0x616C6C6564206469726563746C7920627920616E20454F412E00000000000000 PUSH1 0x20 DUP3 ADD MSTORE POP JUMP JUMPDEST PUSH0 PUSH2 0x519 PUSH1 0x39 DUP4 PUSH2 0x4AF JUMP JUMPDEST SWAP2 POP PUSH2 0x524 DUP3 PUSH2 0x4BF JUMP JUMPDEST PUSH1 0x40 DUP3 ADD SWAP1 POP SWAP2 SWAP1 POP JUMP JUMPDEST PUSH0 PUSH1 0x20 DUP3 ADD SWAP1 POP DUP2 DUP2 SUB PUSH0 DUP4 ADD MSTORE PUSH2 0x546 DUP2 PUSH2 0x50D JUMP JUMPDEST SWAP1 POP SWAP2 SWAP1 POP JUMP JUMPDEST PUSH32 0x5061796D6173746572206973206E6F742077696C6C696E6720746F2073706F6E PUSH0 DUP3 ADD MSTORE PUSH32 0x736F72207468697320557365724F702E2046696E6420616E6F74686572207375 PUSH1 0x20 DUP3 ADD MSTORE PUSH32 0x6761722064616464792E00000000000000000000000000000000000000000000 PUSH1 0x40 DUP3 ADD MSTORE POP JUMP JUMPDEST PUSH0 PUSH2 0x5CD PUSH1 0x4A DUP4 PUSH2 0x4AF JUMP JUMPDEST SWAP2 POP PUSH2 0x5D8 DUP3 PUSH2 0x54D JUMP JUMPDEST PUSH1 0x60 DUP3 ADD SWAP1 POP SWAP2 SWAP1 POP JUMP JUMPDEST PUSH0 PUSH1 0x20 DUP3 ADD SWAP1 POP DUP2 DUP2 SUB PUSH0 DUP4 ADD MSTORE PUSH2 0x5FA DUP2 PUSH2 0x5C1 JUMP JUMPDEST SWAP1 POP SWAP2 SWAP1 POP JUMP JUMPDEST PUSH32 0x5061796D617374657220706F73744F702063616E6E6F742062652063616C6C65 PUSH0 DUP3 ADD MSTORE PUSH32 0x64206469726563746C7920627920616E20454F412E0000000000000000000000 PUSH1 0x20 DUP3 ADD MSTORE POP JUMP JUMPDEST PUSH0 PUSH2 0x65B PUSH1 0x35 DUP4 PUSH2 0x4AF JUMP JUMPDEST SWAP2 POP PUSH2 0x666 DUP3 PUSH2 0x601 JUMP JUMPDEST PUSH1 0x40 DUP3 ADD SWAP1 POP SWAP2 SWAP1 POP JUMP JUMPDEST PUSH0 PUSH1 0x20 DUP3 ADD SWAP1 POP DUP2 DUP2 SUB PUSH0 DUP4 ADD MSTORE PUSH2 0x688 DUP2 PUSH2 0x64F JUMP JUMPDEST SWAP1 POP SWAP2 SWAP1 POP JUMP INVALID LOG2 PUSH5 0x6970667358 0x22 SLT KECCAK256 PUSH4 0xE5556A80 TSTORE 0xB9 REVERT SUB 0xEF 0xD6 0xEA 0xF GT SWAP15 RETF CALLVALUE EXTCODEHASH DUP12 0x2F SMOD 0xD5 0xAF 0xDA 0xB5 EXP DUP9 PUSH13 0x7110061D64736F6C634300081E STOP CALLER "
				},
				"gasEstimates": {
					"creation": {
						"codeDepositCost": "346600",
						"executionCost": "infinite",
						"totalCost": "infinite"
					},
					"external": {
						"owner()": "2529",
						"postOp(uint256,bytes)": "infinite",
						"validatePaymasterUserOp((address,uint256,bytes,uint256,uint256,uint256,uint256,uint256,bytes,bytes),bytes32,uint256)": "infinite"
					}
				},
				"methodIdentifiers": {
					"owner()": "8da5cb5b",
					"postOp(uint256,bytes)": "66984a7e",
					"validatePaymasterUserOp((address,uint256,bytes,uint256,uint256,uint256,uint256,uint256,bytes,bytes),bytes32,uint256)": "1300b2ee"
				}
			},
			"storageLayout": {
				"storage": [
					{
						"astId": 478,
						"contract": "wallet.sol:Paymaster",
						"label": "owner",
						"offset": 0,
						"slot": "0",
						"type": "t_address"
					}
				],
				"types": {
					"t_address": {
						"encoding": "inplace",
						"label": "address",
						"numberOfBytes": "20"
					}
				}
			},
			"userdoc": {
				"kind": "user",
				"methods": {},
				"version": 1
			}
		}
	}
}