{
	"wallet.sol": {
		"SmartWallet": {
			"abi": [
				{
					"inputs": [
						{
							"internalType": "address",
							"name": "_owner",
							"type": "address"
						},
						{
							"internalType": "address",
							"name": "_entryPoint",
							"type": "address"
						}
					],
					"stateMutability": "nonpayable",
					"type": "constructor"
				},
				{
					"anonymous": false,
					"inputs": [
						{
							"indexed": true,
							"internalType": "address",
							"name": "to",
							"type": "address"
						},
						{
							"indexed": false,
							"internalType": "uint256",
							"name": "value",
							"type": "uint256"
						},
						{
							"indexed": false,
							"internalType": "bytes",
							"name": "data",
							"type": "bytes"
						}
					],
					"name": "Executed",
					"type": "event"
				},
				{
					"anonymous": false,
					"inputs": [
						{
							"indexed": true,
							"internalType": "address",
							"name": "paymaster",
							"type": "address"
						}
					],
					"name": "PaymasterInteraction",
					"type": "event"
				},
				{
					"anonymous": false,
					"inputs": [
						{
							"indexed": true,
							"internalType": "address",
							"name": "signer",
							"type": "address"
						}
					],
					"name": "SignerAdded",
					"type": "event"
				},
				{
					"anonymous": false,
					"inputs": [
						{
							"indexed": true,
							"internalType": "address",
							"name": "signer",
							"type": "address"
						}
					],
					"name": "SignerRemoved",
					"type": "event"
				},
				{
					"anonymous": false,
					"inputs": [
						{
							"indexed": true,
							"internalType": "address",
							"name": "sender",
							"type": "address"
						},
						{
							"indexed": false,
							"internalType": "uint256",
							"name": "nonce",
							"type": "uint256"
						}
					],
					"name": "UserOperationValidated",
					"type": "event"
				},
				{
					"stateMutability": "payable",
					"type": "fallback"
				},
				{
					"inputs": [
						{
							"internalType": "address",
							"name": "signer",
							"type": "address"
						}
					],
					"name": "addSigner",
					"outputs": [],
					"stateMutability": "nonpayable",
					"type": "function"
				},
				{
					"inputs": [
						{
							"internalType": "address",
							"name": "token",
							"type": "address"
						},
						{
							"internalType": "address",
							"name": "paymaster",
							"type": "address"
						},
						{
							"internalType": "uint256",
							"name": "amount",
							"type": "uint256"
						}
					],
					"name": "approveERC20ForPaymaster",
					"outputs": [],
					"stateMutability": "nonpayable",
					"type": "function"
				},
				{
					"inputs": [
						{
							"internalType": "address",
							"name": "",
							"type": "address"
						}
					],
					"name": "authorizedSigners",
					"outputs": [
						{
							"internalType": "bool",
							"name": "",
							"type": "bool"
						}
					],
					"stateMutability": "view",
					"type": "function"
				},
				{
					"inputs": [],
					"name": "entryPoint",
					"outputs": [
						{
							"internalType": "address",
							"name": "",
							"type": "address"
						}
					],
					"stateMutability": "view",
					"type": "function"
				},
				{
					"inputs": [
						{
							"internalType": "address",
							"name": "to",
							"type": "address"
						},
						{
							"internalType": "uint256",
							"name": "value",
							"type": "uint256"
						},
						{
							"internalType": "bytes",
							"name": "data",
							"type": "bytes"
						}
					],
					"name": "execute",
					"outputs": [],
					"stateMutability": "nonpayable",
					"type": "function"
				},
				{
					"inputs": [
						{
							"internalType": "address[]",
							"name": "tos",
							"type": "address[]"
						},
						{
							"internalType": "uint256[]",
							"name": "values",
							"type": "uint256[]"
						},
						{
							"internalType": "bytes[]",
							"name": "datas",
							"type": "bytes[]"
						}
					],
					"name": "executeBatch",
					"outputs": [],
					"stateMutability": "nonpayable",
					"type": "function"
				},
				{
					"inputs": [],
					"name": "nonce",
					"outputs": [
						{
							"internalType": "uint256",
							"name": "",
							"type": "uint256"
						}
					],
					"stateMutability": "view",
					"type": "function"
				},
				{
					"inputs": [],
					"name": "owner",
					"outputs": [
						{
							"internalType": "address",
							"name": "",
							"type": "address"
						}
					],
					"stateMutability": "view",
					"type": "function"
				},
				{
					"inputs": [
						{
							"internalType": "address",
							"name": "signer",
							"type": "address"
						}
					],
					"name": "removeSigner",
					"outputs": [],
					"stateMutability": "nonpayable",
					"type": "function"
				},
				{
					"inputs": [
						{
							"components": [
								{
									"internalType": "address",
									"name": "sender",
									"type": "address"
								},
								{
									"internalType": "uint256",
									"name": "nonce",
									"type": "uint256"
								},
								{
									"internalType": "bytes",
									"name": "callData",
									"type": "bytes"
								},
								{
									"internalType": "uint256",
									"name": "callGasLimit",
									"type": "uint256"
								},
								{
									"internalType": "uint256",
									"name": "verificationGasLimit",
									"type": "uint256"
								},
								{
									"internalType": "uint256",
									"name": "preVerificationGas",
									"type": "uint256"
								},
								{
									"internalType": "uint256",
									"name": "maxFeePerGas",
									"type": "uint256"
								},
								{
									"internalType": "uint256",
									"name": "maxPriorityFeePerGas",
									"type": "uint256"
								},
								{
									"internalType": "bytes",
									"name": "paymasterAndData",
									"type": "bytes"
								},
								{
									"internalType": "bytes",
									"name": "signature",
									"type": "bytes"
								}
							],
							"internalType": "struct UserOperation",
							"name": "userOp",
							"type": "tuple"
						}
					],
					"name": "validateUserOp",
					"outputs": [
						{
							"internalType": "uint256",
							"name": "validationResult",
							"type": "uint256"
						}
					],
					"stateMutability": "nonpayable",
					"type": "function"
				},
				{
					"stateMutability": "payable",
					"type": "receive"
				}
			],
			"devdoc": {
				"kind": "dev",
				"methods": {},
				"version": 1
			},
			"evm": {
				"assembly": "    /* \"wallet.sol\":2495:13291  contract SmartWallet {... */\n  mstore(0x40, 0xa0)\n    /* \"wallet.sol\":3772:4256  constructor(address _owner, address _entryPoint) {... */\n  callvalue\n  dup1\n  iszero\n  tag_1\n  jumpi\n  revert(0x00, 0x00)\ntag_1:\n  pop\n  mload(0x40)\n  sub(codesize, bytecodeSize)\n  dup1\n  bytecodeSize\n  dup4\n  codecopy\n  dup2\n  dup2\n  add\n  0x40\n  mstore\n  dup2\n  add\n  swap1\n  tag_2\n  swap2\n  swap1\n  tag_3\n  jump\t// in\ntag_2:\n    /* \"wallet.sol\":3858:3859  0 */\n  0x00\n    /* \"wallet.sol\":3840:3860  _owner != address(0) */\n  0xffffffffffffffffffffffffffffffffffffffff\n  and\n    /* \"wallet.sol\":3840:3846  _owner */\n  dup3\n    /* \"wallet.sol\":3840:3860  _owner != address(0) */\n  0xffffffffffffffffffffffffffffffffffffffff\n  and\n  sub\n    /* \"wallet.sol\":3832:3913  require(_owner != address(0), \"Owner address cannot be zero. That's just weird.\") */\n  tag_6\n  jumpi\n  mload(0x40)\n  0x08c379a000000000000000000000000000000000000000000000000000000000\n  dup2\n  mstore\n  0x04\n  add\n  tag_7\n  swap1\n  tag_8\n  jump\t// in\ntag_7:\n  mload(0x40)\n  dup1\n  swap2\n  sub\n  swap1\n  revert\ntag_6:\n    /* \"wallet.sol\":3955:3956  0 */\n  0x00\n    /* \"wallet.sol\":3932:3957  _entryPoint != address(0) */\n  0xffffffffffffffffffffffffffffffffffffffff\n  and\n    /* \"wallet.sol\":3932:3943  _entryPoint */\n  dup2\n    /* \"wallet.sol\":3932:3957  _entryPoint != address(0) */\n  0xffffffffffffffffffffffffffffffffffffffff\n  and\n  sub\n    /* \"wallet.sol\":3924:4029  require(_entryPoint != address(0), \"EntryPoint address cannot be zero. Who's gonna process the UserOps?\") */\n  tag_9\n  jumpi\n  mload(0x40)\n  0x08c379a000000000000000000000000000000000000000000000000000000000\n  dup2\n  mstore\n  0x04\n  add\n  tag_10\n  swap1\n  tag_11\n  jump\t// in\ntag_10:\n  mload(0x40)\n  dup1\n  swap2\n  sub\n  swap1\n  revert\ntag_9:\n    /* \"wallet.sol\":4048:4054  _owner */\n  dup2\n    /* \"wallet.sol\":4040:4045  owner */\n  0x00\n  0x00\n    /* \"wallet.sol\":4040:4054  owner = _owner */\n  0x0100\n  exp\n  dup2\n  sload\n  dup2\n  0xffffffffffffffffffffffffffffffffffffffff\n  mul\n  not\n  and\n  swap1\n  dup4\n  0xffffffffffffffffffffffffffffffffffffffff\n  and\n  mul\n  or\n  swap1\n  sstore\n  pop\n    /* \"wallet.sol\":4078:4089  _entryPoint */\n  dup1\n    /* \"wallet.sol\":4065:4089  entryPoint = _entryPoint */\n  0xffffffffffffffffffffffffffffffffffffffff\n  and\n  0x80\n  dup2\n  0xffffffffffffffffffffffffffffffffffffffff\n  and\n  dup2\n  mstore\n  pop\n  pop\n    /* \"wallet.sol\":4108:4109  0 */\n  0x00\n    /* \"wallet.sol\":4100:4105  nonce */\n  0x01\n    /* \"wallet.sol\":4100:4109  nonce = 0 */\n  dup2\n  swap1\n  sstore\n  pop\n    /* \"wallet.sol\":4164:4168  true */\n  0x01\n    /* \"wallet.sol\":4136:4153  authorizedSigners */\n  0x02\n    /* \"wallet.sol\":4136:4161  authorizedSigners[_owner] */\n  0x00\n    /* \"wallet.sol\":4154:4160  _owner */\n  dup5\n    /* \"wallet.sol\":4136:4161  authorizedSigners[_owner] */\n  0xffffffffffffffffffffffffffffffffffffffff\n  and\n  0xffffffffffffffffffffffffffffffffffffffff\n  and\n  dup2\n  mstore\n  0x20\n  add\n  swap1\n  dup2\n  mstore\n  0x20\n  add\n  0x00\n  keccak256\n  0x00\n    /* \"wallet.sol\":4136:4168  authorizedSigners[_owner] = true */\n  0x0100\n  exp\n  dup2\n  sload\n  dup2\n  0xff\n  mul\n  not\n  and\n  swap1\n  dup4\n  iszero\n  iszero\n  mul\n  or\n  swap1\n  sstore\n  pop\n    /* \"wallet.sol\":4241:4247  _owner */\n  dup2\n    /* \"wallet.sol\":4229:4248  SignerAdded(_owner) */\n  0xffffffffffffffffffffffffffffffffffffffff\n  and\n  0x47d1c22a25bb3a5d4e481b9b1e6944c2eade3181a0a20b495ed61d35b5323f24\n  mload(0x40)\n  mload(0x40)\n  dup1\n  swap2\n  sub\n  swap1\n  log2\n    /* \"wallet.sol\":3772:4256  constructor(address _owner, address _entryPoint) {... */\n  pop\n  pop\n    /* \"wallet.sol\":2495:13291  contract SmartWallet {... */\n  jump(tag_12)\n    /* \"#utility.yul\":88:205   */\ntag_14:\n    /* \"#utility.yul\":197:198   */\n  0x00\n    /* \"#utility.yul\":194:195   */\n  0x00\n    /* \"#utility.yul\":187:199   */\n  revert\n    /* \"#utility.yul\":334:460   */\ntag_16:\n    /* \"#utility.yul\":371:378   */\n  0x00\n    /* \"#utility.yul\":411:453   */\n  0xffffffffffffffffffffffffffffffffffffffff\n    /* \"#utility.yul\":404:409   */\n  dup3\n    /* \"#utility.yul\":400:454   */\n  and\n    /* \"#utility.yul\":389:454   */\n  swap1\n  pop\n    /* \"#utility.yul\":334:460   */\n  swap2\n  swap1\n  pop\n  jump\t// out\n    /* \"#utility.yul\":466:562   */\ntag_17:\n    /* \"#utility.yul\":503:510   */\n  0x00\n    /* \"#utility.yul\":532:556   */\n  tag_31\n    /* \"#utility.yul\":550:555   */\n  dup3\n    /* \"#utility.yul\":532:556   */\n  tag_16\n  jump\t// in\ntag_31:\n    /* \"#utility.yul\":521:556   */\n  swap1\n  pop\n    /* \"#utility.yul\":466:562   */\n  swap2\n  swap1\n  pop\n  jump\t// out\n    /* \"#utility.yul\":568:690   */\ntag_18:\n    /* \"#utility.yul\":641:665   */\n  tag_33\n    /* \"#utility.yul\":659:664   */\n  dup2\n    /* \"#utility.yul\":641:665   */\n  tag_17\n  jump\t// in\ntag_33:\n    /* \"#utility.yul\":634:639   */\n  dup2\n    /* \"#utility.yul\":631:666   */\n  eq\n    /* \"#utility.yul\":621:684   */\n  tag_34\n  jumpi\n    /* \"#utility.yul\":680:681   */\n  0x00\n    /* \"#utility.yul\":677:678   */\n  0x00\n    /* \"#utility.yul\":670:682   */\n  revert\n    /* \"#utility.yul\":621:684   */\ntag_34:\n    /* \"#utility.yul\":568:690   */\n  pop\n  jump\t// out\n    /* \"#utility.yul\":696:839   */\ntag_19:\n    /* \"#utility.yul\":753:758   */\n  0x00\n    /* \"#utility.yul\":784:790   */\n  dup2\n    /* \"#utility.yul\":778:791   */\n  mload\n    /* \"#utility.yul\":769:791   */\n  swap1\n  pop\n    /* \"#utility.yul\":800:833   */\n  tag_36\n    /* \"#utility.yul\":827:832   */\n  dup2\n    /* \"#utility.yul\":800:833   */\n  tag_18\n  jump\t// in\ntag_36:\n    /* \"#utility.yul\":696:839   */\n  swap3\n  swap2\n  pop\n  pop\n  jump\t// out\n    /* \"#utility.yul\":845:1352   */\ntag_3:\n    /* \"#utility.yul\":924:930   */\n  0x00\n    /* \"#utility.yul\":932:938   */\n  0x00\n    /* \"#utility.yul\":981:983   */\n  0x40\n    /* \"#utility.yul\":969:978   */\n  dup4\n    /* \"#utility.yul\":960:967   */\n  dup6\n    /* \"#utility.yul\":956:979   */\n  sub\n    /* \"#utility.yul\":952:984   */\n  slt\n    /* \"#utility.yul\":949:1068   */\n  iszero\n  tag_38\n  jumpi\n    /* \"#utility.yul\":987:1066   */\n  tag_39\n  tag_14\n  jump\t// in\ntag_39:\n    /* \"#utility.yul\":949:1068   */\ntag_38:\n    /* \"#utility.yul\":1107:1108   */\n  0x00\n    /* \"#utility.yul\":1132:1196   */\n  tag_40\n    /* \"#utility.yul\":1188:1195   */\n  dup6\n    /* \"#utility.yul\":1179:1185   */\n  dup3\n    /* \"#utility.yul\":1168:1177   */\n  dup7\n    /* \"#utility.yul\":1164:1186   */\n  add\n    /* \"#utility.yul\":1132:1196   */\n  tag_19\n  jump\t// in\ntag_40:\n    /* \"#utility.yul\":1122:1196   */\n  swap3\n  pop\n    /* \"#utility.yul\":1078:1206   */\n  pop\n    /* \"#utility.yul\":1245:1247   */\n  0x20\n    /* \"#utility.yul\":1271:1335   */\n  tag_41\n    /* \"#utility.yul\":1327:1334   */\n  dup6\n    /* \"#utility.yul\":1318:1324   */\n  dup3\n    /* \"#utility.yul\":1307:1316   */\n  dup7\n    /* \"#utility.yul\":1303:1325   */\n  add\n    /* \"#utility.yul\":1271:1335   */\n  tag_19\n  jump\t// in\ntag_41:\n    /* \"#utility.yul\":1261:1335   */\n  swap2\n  pop\n    /* \"#utility.yul\":1216:1345   */\n  pop\n    /* \"#utility.yul\":845:1352   */\n  swap3\n  pop\n  swap3\n  swap1\n  pop\n  jump\t// out\n    /* \"#utility.yul\":1358:1527   */\ntag_20:\n    /* \"#utility.yul\":1442:1453   */\n  0x00\n    /* \"#utility.yul\":1476:1482   */\n  dup3\n    /* \"#utility.yul\":1471:1474   */\n  dup3\n    /* \"#utility.yul\":1464:1483   */\n  mstore\n    /* \"#utility.yul\":1516:1520   */\n  0x20\n    /* \"#utility.yul\":1511:1514   */\n  dup3\n    /* \"#utility.yul\":1507:1521   */\n  add\n    /* \"#utility.yul\":1492:1521   */\n  swap1\n  pop\n    /* \"#utility.yul\":1358:1527   */\n  swap3\n  swap2\n  pop\n  pop\n  jump\t// out\n    /* \"#utility.yul\":1533:1768   */\ntag_21:\n    /* \"#utility.yul\":1673:1707   */\n  0x4f776e657220616464726573732063616e6e6f74206265207a65726f2e205468\n    /* \"#utility.yul\":1669:1670   */\n  0x00\n    /* \"#utility.yul\":1661:1667   */\n  dup3\n    /* \"#utility.yul\":1657:1671   */\n  add\n    /* \"#utility.yul\":1650:1708   */\n  mstore\n    /* \"#utility.yul\":1742:1760   */\n  0x61742773206a7573742077656972642e00000000000000000000000000000000\n    /* \"#utility.yul\":1737:1739   */\n  0x20\n    /* \"#utility.yul\":1729:1735   */\n  dup3\n    /* \"#utility.yul\":1725:1740   */\n  add\n    /* \"#utility.yul\":1718:1761   */\n  mstore\n    /* \"#utility.yul\":1533:1768   */\n  pop\n  jump\t// out\n    /* \"#utility.yul\":1774:2140   */\ntag_22:\n    /* \"#utility.yul\":1916:1919   */\n  0x00\n    /* \"#utility.yul\":1937:2004   */\n  tag_45\n    /* \"#utility.yul\":2001:2003   */\n  0x30\n    /* \"#utility.yul\":1996:1999   */\n  dup4\n    /* \"#utility.yul\":1937:2004   */\n  tag_20\n  jump\t// in\ntag_45:\n    /* \"#utility.yul\":1930:2004   */\n  swap2\n  pop\n    /* \"#utility.yul\":2013:2106   */\n  tag_46\n    /* \"#utility.yul\":2102:2105   */\n  dup3\n    /* \"#utility.yul\":2013:2106   */\n  tag_21\n  jump\t// in\ntag_46:\n    /* \"#utility.yul\":2131:2133   */\n  0x40\n    /* \"#utility.yul\":2126:2129   */\n  dup3\n    /* \"#utility.yul\":2122:2134   */\n  add\n    /* \"#utility.yul\":2115:2134   */\n  swap1\n  pop\n    /* \"#utility.yul\":1774:2140   */\n  swap2\n  swap1\n  pop\n  jump\t// out\n    /* \"#utility.yul\":2146:2565   */\ntag_8:\n    /* \"#utility.yul\":2312:2316   */\n  0x00\n    /* \"#utility.yul\":2350:2352   */\n  0x20\n    /* \"#utility.yul\":2339:2348   */\n  dup3\n    /* \"#utility.yul\":2335:2353   */\n  add\n    /* \"#utility.yul\":2327:2353   */\n  swap1\n  pop\n    /* \"#utility.yul\":2399:2408   */\n  dup2\n    /* \"#utility.yul\":2393:2397   */\n  dup2\n    /* \"#utility.yul\":2389:2409   */\n  sub\n    /* \"#utility.yul\":2385:2386   */\n  0x00\n    /* \"#utility.yul\":2374:2383   */\n  dup4\n    /* \"#utility.yul\":2370:2387   */\n  add\n    /* \"#utility.yul\":2363:2410   */\n  mstore\n    /* \"#utility.yul\":2427:2558   */\n  tag_48\n    /* \"#utility.yul\":2553:2557   */\n  dup2\n    /* \"#utility.yul\":2427:2558   */\n  tag_22\n  jump\t// in\ntag_48:\n    /* \"#utility.yul\":2419:2558   */\n  swap1\n  pop\n    /* \"#utility.yul\":2146:2565   */\n  swap2\n  swap1\n  pop\n  jump\t// out\n    /* \"#utility.yul\":2571:2862   */\ntag_23:\n    /* \"#utility.yul\":2711:2745   */\n  0x456e747279506f696e7420616464726573732063616e6e6f74206265207a6572\n    /* \"#utility.yul\":2707:2708   */\n  0x00\n    /* \"#utility.yul\":2699:2705   */\n  dup3\n    /* \"#utility.yul\":2695:2709   */\n  add\n    /* \"#utility.yul\":2688:2746   */\n  mstore\n    /* \"#utility.yul\":2780:2814   */\n  0x6f2e2057686f277320676f6e6e612070726f636573732074686520557365724f\n    /* \"#utility.yul\":2775:2777   */\n  0x20\n    /* \"#utility.yul\":2767:2773   */\n  dup3\n    /* \"#utility.yul\":2763:2778   */\n  add\n    /* \"#utility.yul\":2756:2815   */\n  mstore\n    /* \"#utility.yul\":2849:2854   */\n  0x70733f0000000000000000000000000000000000000000000000000000000000\n    /* \"#utility.yul\":2844:2846   */\n  0x40\n    /* \"#utility.yul\":2836:2842   */\n  dup3\n    /* \"#utility.yul\":2832:2847   */\n  add\n    /* \"#utility.yul\":2825:2855   */\n  mstore\n    /* \"#utility.yul\":2571:2862   */\n  pop\n  jump\t// out\n    /* \"#utility.yul\":2868:3234   */\ntag_24:\n    /* \"#utility.yul\":3010:3013   */\n  0x00\n    /* \"#utility.yul\":3031:3098   */\n  tag_51\n    /* \"#utility.yul\":3095:3097   */\n  0x43\n    /* \"#utility.yul\":3090:3093   */\n  dup4\n    /* \"#utility.yul\":3031:3098   */\n  tag_20\n  jump\t// in\ntag_51:\n    /* \"#utility.yul\":3024:3098   */\n  swap2\n  pop\n    /* \"#utility.yul\":3107:3200   */\n  tag_52\n    /* \"#utility.yul\":3196:3199   */\n  dup3\n    /* \"#utility.yul\":3107:3200   */\n  tag_23\n  jump\t// in\ntag_52:\n    /* \"#utility.yul\":3225:3227   */\n  0x60\n    /* \"#utility.yul\":3220:3223   */\n  dup3\n    /* \"#utility.yul\":3216:3228   */\n  add\n    /* \"#utility.yul\":3209:3228   */\n  swap1\n  pop\n    /* \"#utility.yul\":2868:3234   */\n  swap2\n  swap1\n  pop\n  jump\t// out\n    /* \"#utility.yul\":3240:3659   */\ntag_11:\n    /* \"#utility.yul\":3406:3410   */\n  0x00\n    /* \"#utility.yul\":3444:3446   */\n  0x20\n    /* \"#utility.yul\":3433:3442   */\n  dup3\n    /* \"#utility.yul\":3429:3447   */\n  add\n    /* \"#utility.yul\":3421:3447   */\n  swap1\n  pop\n    /* \"#utility.yul\":3493:3502   */\n  dup2\n    /* \"#utility.yul\":3487:3491   */\n  dup2\n    /* \"#utility.yul\":3483:3503   */\n  sub\n    /* \"#utility.yul\":3479:3480   */\n  0x00\n    /* \"#utility.yul\":3468:3477   */\n  dup4\n    /* \"#utility.yul\":3464:3481   */\n  add\n    /* \"#utility.yul\":3457:3504   */\n  mstore\n    /* \"#utility.yul\":3521:3652   */\n  tag_54\n    /* \"#utility.yul\":3647:3651   */\n  dup2\n    /* \"#utility.yul\":3521:3652   */\n  tag_24\n  jump\t// in\ntag_54:\n    /* \"#utility.yul\":3513:3652   */\n  swap1\n  pop\n    /* \"#utility.yul\":3240:3659   */\n  swap2\n  swap1\n  pop\n  jump\t// out\n    /* \"wallet.sol\":2495:13291  contract SmartWallet {... */\ntag_12:\n  mload(0x80)\n  codecopy(0x00, dataOffset(sub_0), dataSize(sub_0))\n  0x00\n  assignImmutable(\"0xbbd48b257be1b8216d144ef9be5734f8d11697959c9e0f7768bec89db74a63a3\")\n  return(0x00, dataSize(sub_0))\nstop\n\nsub_0: assembly {\n        /* \"wallet.sol\":2495:13291  contract SmartWallet {... */\n      mstore(0x40, 0x80)\n      jumpi(tag_1, lt(calldatasize, 0x04))\n      shr(0xe0, calldataload(0x00))\n      dup1\n      0x8da5cb5b\n      gt\n      tag_13\n      jumpi\n      dup1\n      0x8da5cb5b\n      eq\n      tag_8\n      jumpi\n      dup1\n      0xaffed0e0\n      eq\n      tag_9\n      jumpi\n      dup1\n      0xb0d691fe\n      eq\n      tag_10\n      jumpi\n      dup1\n      0xb61d27f6\n      eq\n      tag_11\n      jumpi\n      dup1\n      0xeb12d61e\n      eq\n      tag_12\n      jumpi\n      jump(tag_2)\n    tag_13:\n      dup1\n      0x0e316ab7\n      eq\n      tag_3\n      jumpi\n      dup1\n      0x2de6a880\n      eq\n      tag_4\n      jumpi\n      dup1\n      0x43425567\n      eq\n      tag_5\n      jumpi\n      dup1\n      0x47e1da2a\n      eq\n      tag_6\n      jumpi\n      dup1\n      0x5d2b6a4e\n      eq\n      tag_7\n      jumpi\n      jump(tag_2)\n    tag_1:\n    tag_2:\n      stop\n        /* \"wallet.sol\":11725:12163  function removeSigner(address signer) external {... */\n    tag_3:\n      callvalue\n      dup1\n      iszero\n      tag_18\n      jumpi\n      revert(0x00, 0x00)\n    tag_18:\n      pop\n      tag_19\n      0x04\n      dup1\n      calldatasize\n      sub\n      dup2\n      add\n      swap1\n      tag_20\n      swap2\n      swap1\n      tag_21\n      jump\t// in\n    tag_20:\n      tag_22\n      jump\t// in\n    tag_19:\n      stop\n        /* \"wallet.sol\":7109:11164  function validateUserOp(UserOperation calldata userOp)... */\n    tag_4:\n      callvalue\n      dup1\n      iszero\n      tag_23\n      jumpi\n      revert(0x00, 0x00)\n    tag_23:\n      pop\n      tag_24\n      0x04\n      dup1\n      calldatasize\n      sub\n      dup2\n      add\n      swap1\n      tag_25\n      swap2\n      swap1\n      tag_26\n      jump\t// in\n    tag_25:\n      tag_27\n      jump\t// in\n    tag_24:\n      mload(0x40)\n      tag_28\n      swap2\n      swap1\n      tag_29\n      jump\t// in\n    tag_28:\n      mload(0x40)\n      dup1\n      swap2\n      sub\n      swap1\n      return\n        /* \"wallet.sol\":12370:13170  function approveERC20ForPaymaster(address token, address paymaster, uint256 amount) external {... */\n    tag_5:\n      callvalue\n      dup1\n      iszero\n      tag_30\n      jumpi\n      revert(0x00, 0x00)\n    tag_30:\n      pop\n      tag_31\n      0x04\n      dup1\n      calldatasize\n      sub\n      dup2\n      add\n      swap1\n      tag_32\n      swap2\n      swap1\n      tag_33\n      jump\t// in\n    tag_32:\n      tag_34\n      jump\t// in\n    tag_31:\n      stop\n        /* \"wallet.sol\":5873:6696  function executeBatch(address[] calldata tos, uint256[] calldata values, bytes[] calldata datas)... */\n    tag_6:\n      callvalue\n      dup1\n      iszero\n      tag_35\n      jumpi\n      revert(0x00, 0x00)\n    tag_35:\n      pop\n      tag_36\n      0x04\n      dup1\n      calldatasize\n      sub\n      dup2\n      add\n      swap1\n      tag_37\n      swap2\n      swap1\n      tag_38\n      jump\t// in\n    tag_37:\n      tag_39\n      jump\t// in\n    tag_36:\n      stop\n        /* \"wallet.sol\":2831:2880  mapping(address => bool) public authorizedSigners */\n    tag_7:\n      callvalue\n      dup1\n      iszero\n      tag_40\n      jumpi\n      revert(0x00, 0x00)\n    tag_40:\n      pop\n      tag_41\n      0x04\n      dup1\n      calldatasize\n      sub\n      dup2\n      add\n      swap1\n      tag_42\n      swap2\n      swap1\n      tag_21\n      jump\t// in\n    tag_42:\n      tag_43\n      jump\t// in\n    tag_41:\n      mload(0x40)\n      tag_44\n      swap2\n      swap1\n      tag_45\n      jump\t// in\n    tag_44:\n      mload(0x40)\n      dup1\n      swap2\n      sub\n      swap1\n      return\n        /* \"wallet.sol\":2561:2581  address public owner */\n    tag_8:\n      callvalue\n      dup1\n      iszero\n      tag_46\n      jumpi\n      revert(0x00, 0x00)\n    tag_46:\n      pop\n      tag_47\n      tag_48\n      jump\t// in\n    tag_47:\n      mload(0x40)\n      tag_49\n      swap2\n      swap1\n      tag_50\n      jump\t// in\n    tag_49:\n      mload(0x40)\n      dup1\n      swap2\n      sub\n      swap1\n      return\n        /* \"wallet.sol\":2661:2681  uint256 public nonce */\n    tag_9:\n      callvalue\n      dup1\n      iszero\n      tag_51\n      jumpi\n      revert(0x00, 0x00)\n    tag_51:\n      pop\n      tag_52\n      tag_53\n      jump\t// in\n    tag_52:\n      mload(0x40)\n      tag_54\n      swap2\n      swap1\n      tag_29\n      jump\t// in\n    tag_54:\n      mload(0x40)\n      dup1\n      swap2\n      sub\n      swap1\n      return\n        /* \"wallet.sol\":3085:3120  address public immutable entryPoint */\n    tag_10:\n      callvalue\n      dup1\n      iszero\n      tag_55\n      jumpi\n      revert(0x00, 0x00)\n    tag_55:\n      pop\n      tag_56\n      tag_57\n      jump\t// in\n    tag_56:\n      mload(0x40)\n      tag_58\n      swap2\n      swap1\n      tag_50\n      jump\t// in\n    tag_58:\n      mload(0x40)\n      dup1\n      swap2\n      sub\n      swap1\n      return\n        /* \"wallet.sol\":4444:5715  function execute(address to, uint256 value, bytes calldata data)... */\n    tag_11:\n      callvalue\n      dup1\n      iszero\n      tag_59\n      jumpi\n      revert(0x00, 0x00)\n    tag_59:\n      pop\n      tag_60\n      0x04\n      dup1\n      calldatasize\n      sub\n      dup2\n      add\n      swap1\n      tag_61\n      swap2\n      swap1\n      tag_62\n      jump\t// in\n    tag_61:\n      tag_63\n      jump\t// in\n    tag_60:\n      stop\n        /* \"wallet.sol\":11252:11656  function addSigner(address signer) external {... */\n    tag_12:\n      callvalue\n      dup1\n      iszero\n      tag_64\n      jumpi\n      revert(0x00, 0x00)\n    tag_64:\n      pop\n      tag_65\n      0x04\n      dup1\n      calldatasize\n      sub\n      dup2\n      add\n      swap1\n      tag_66\n      swap2\n      swap1\n      tag_21\n      jump\t// in\n    tag_66:\n      tag_67\n      jump\t// in\n    tag_65:\n      stop\n        /* \"wallet.sol\":11725:12163  function removeSigner(address signer) external {... */\n    tag_22:\n        /* \"wallet.sol\":11805:11810  owner */\n      0x00\n      0x00\n      swap1\n      sload\n      swap1\n      0x0100\n      exp\n      swap1\n      div\n      0xffffffffffffffffffffffffffffffffffffffff\n      and\n        /* \"wallet.sol\":11791:11810  msg.sender == owner */\n      0xffffffffffffffffffffffffffffffffffffffff\n      and\n        /* \"wallet.sol\":11791:11801  msg.sender */\n      caller\n        /* \"wallet.sol\":11791:11810  msg.sender == owner */\n      0xffffffffffffffffffffffffffffffffffffffff\n      and\n      eq\n        /* \"wallet.sol\":11783:11869  require(msg.sender == owner, \"Only the owner can remove signers. My house, my rules.\") */\n      tag_69\n      jumpi\n      mload(0x40)\n      0x08c379a000000000000000000000000000000000000000000000000000000000\n      dup2\n      mstore\n      0x04\n      add\n      tag_70\n      swap1\n      tag_71\n      jump\t// in\n    tag_70:\n      mload(0x40)\n      dup1\n      swap2\n      sub\n      swap1\n      revert\n    tag_69:\n        /* \"wallet.sol\":11898:11903  owner */\n      0x00\n      0x00\n      swap1\n      sload\n      swap1\n      0x0100\n      exp\n      swap1\n      div\n      0xffffffffffffffffffffffffffffffffffffffff\n      and\n        /* \"wallet.sol\":11888:11903  signer != owner */\n      0xffffffffffffffffffffffffffffffffffffffff\n      and\n        /* \"wallet.sol\":11888:11894  signer */\n      dup2\n        /* \"wallet.sol\":11888:11903  signer != owner */\n      0xffffffffffffffffffffffffffffffffffffffff\n      and\n      sub\n        /* \"wallet.sol\":11880:11970  require(signer != owner, \"Can't remove the owner as a signer. That's just self-sabotage.\") */\n      tag_72\n      jumpi\n      mload(0x40)\n      0x08c379a000000000000000000000000000000000000000000000000000000000\n      dup2\n      mstore\n      0x04\n      add\n      tag_73\n      swap1\n      tag_74\n      jump\t// in\n    tag_73:\n      mload(0x40)\n      dup1\n      swap2\n      sub\n      swap1\n      revert\n    tag_72:\n        /* \"wallet.sol\":11989:12006  authorizedSigners */\n      0x02\n        /* \"wallet.sol\":11989:12014  authorizedSigners[signer] */\n      0x00\n        /* \"wallet.sol\":12007:12013  signer */\n      dup3\n        /* \"wallet.sol\":11989:12014  authorizedSigners[signer] */\n      0xffffffffffffffffffffffffffffffffffffffff\n      and\n      0xffffffffffffffffffffffffffffffffffffffff\n      and\n      dup2\n      mstore\n      0x20\n      add\n      swap1\n      dup2\n      mstore\n      0x20\n      add\n      0x00\n      keccak256\n      0x00\n      swap1\n      sload\n      swap1\n      0x0100\n      exp\n      swap1\n      div\n      0xff\n      and\n        /* \"wallet.sol\":11981:12072  require(authorizedSigners[signer], \"This address isn't a signer. What are you even doing?\") */\n      tag_75\n      jumpi\n      mload(0x40)\n      0x08c379a000000000000000000000000000000000000000000000000000000000\n      dup2\n      mstore\n      0x04\n      add\n      tag_76\n      swap1\n      tag_77\n      jump\t// in\n    tag_76:\n      mload(0x40)\n      dup1\n      swap2\n      sub\n      swap1\n      revert\n    tag_75:\n        /* \"wallet.sol\":12113:12118  false */\n      0x00\n        /* \"wallet.sol\":12085:12102  authorizedSigners */\n      0x02\n        /* \"wallet.sol\":12085:12110  authorizedSigners[signer] */\n      0x00\n        /* \"wallet.sol\":12103:12109  signer */\n      dup4\n        /* \"wallet.sol\":12085:12110  authorizedSigners[signer] */\n      0xffffffffffffffffffffffffffffffffffffffff\n      and\n      0xffffffffffffffffffffffffffffffffffffffff\n      and\n      dup2\n      mstore\n      0x20\n      add\n      swap1\n      dup2\n      mstore\n      0x20\n      add\n      0x00\n      keccak256\n      0x00\n        /* \"wallet.sol\":12085:12118  authorizedSigners[signer] = false */\n      0x0100\n      exp\n      dup2\n      sload\n      dup2\n      0xff\n      mul\n      not\n      and\n      swap1\n      dup4\n      iszero\n      iszero\n      mul\n      or\n      swap1\n      sstore\n      pop\n        /* \"wallet.sol\":12148:12154  signer */\n      dup1\n        /* \"wallet.sol\":12134:12155  SignerRemoved(signer) */\n      0xffffffffffffffffffffffffffffffffffffffff\n      and\n      0x3525e22824a8a7df2c9a6029941c824cf95b6447f1e13d5128fd3826d35afe8b\n      mload(0x40)\n      mload(0x40)\n      dup1\n      swap2\n      sub\n      swap1\n      log2\n        /* \"wallet.sol\":11725:12163  function removeSigner(address signer) external {... */\n      pop\n      jump\t// out\n        /* \"wallet.sol\":7109:11164  function validateUserOp(UserOperation calldata userOp)... */\n    tag_27:\n        /* \"wallet.sol\":7200:7224  uint256 validationResult */\n      0x00\n        /* \"wallet.sol\":7490:7500  entryPoint */\n      immutable(\"0xbbd48b257be1b8216d144ef9be5734f8d11697959c9e0f7768bec89db74a63a3\")\n        /* \"wallet.sol\":7476:7500  msg.sender == entryPoint */\n      0xffffffffffffffffffffffffffffffffffffffff\n      and\n        /* \"wallet.sol\":7476:7486  msg.sender */\n      caller\n        /* \"wallet.sol\":7476:7500  msg.sender == entryPoint */\n      0xffffffffffffffffffffffffffffffffffffffff\n      and\n      eq\n        /* \"wallet.sol\":7468:7553  require(msg.sender == entryPoint, \"Validation can only be called by the EntryPoint.\") */\n      tag_79\n      jumpi\n      mload(0x40)\n      0x08c379a000000000000000000000000000000000000000000000000000000000\n      dup2\n      mstore\n      0x04\n      add\n      tag_80\n      swap1\n      tag_81\n      jump\t// in\n    tag_80:\n      mload(0x40)\n      dup1\n      swap2\n      sub\n      swap1\n      revert\n    tag_79:\n        /* \"wallet.sol\":7723:7728  nonce */\n      sload(0x01)\n        /* \"wallet.sol\":7707:7713  userOp */\n      dup3\n        /* \"wallet.sol\":7707:7719  userOp.nonce */\n      0x20\n      add\n      calldataload\n        /* \"wallet.sol\":7707:7728  userOp.nonce == nonce */\n      eq\n        /* \"wallet.sol\":7699:7788  require(userOp.nonce == nonce, \"Invalid nonce. This UserOp is old news or out of order.\") */\n      tag_82\n      jumpi\n      mload(0x40)\n      0x08c379a000000000000000000000000000000000000000000000000000000000\n      dup2\n      mstore\n      0x04\n      add\n      tag_83\n      swap1\n      tag_84\n      jump\t// in\n    tag_83:\n      mload(0x40)\n      dup1\n      swap2\n      sub\n      swap1\n      revert\n    tag_82:\n        /* \"wallet.sol\":9344:9346  64 */\n      0x40\n        /* \"wallet.sol\":9318:9324  userOp */\n      dup3\n        /* \"wallet.sol\":9318:9334  userOp.signature */\n      dup1\n      0x0120\n      add\n      swap1\n      tag_85\n      swap2\n      swap1\n      tag_86\n      jump\t// in\n    tag_85:\n        /* \"wallet.sol\":9318:9341  userOp.signature.length */\n      swap1\n      pop\n        /* \"wallet.sol\":9318:9346  userOp.signature.length > 64 */\n      gt\n        /* \"wallet.sol\":9310:9382  require(userOp.signature.length > 64, \"Signature too short. Looks sus.\") */\n      tag_87\n      jumpi\n      mload(0x40)\n      0x08c379a000000000000000000000000000000000000000000000000000000000\n      dup2\n      mstore\n      0x04\n      add\n      tag_88\n      swap1\n      tag_89\n      jump\t// in\n    tag_88:\n      mload(0x40)\n      dup1\n      swap2\n      sub\n      swap1\n      revert\n    tag_87:\n        /* \"wallet.sol\":9563:9586  address simulatedSigner */\n      0x00\n        /* \"wallet.sol\":9589:9594  owner */\n      0x00\n      0x00\n      swap1\n      sload\n      swap1\n      0x0100\n      exp\n      swap1\n      div\n      0xffffffffffffffffffffffffffffffffffffffff\n      and\n        /* \"wallet.sol\":9563:9594  address simulatedSigner = owner */\n      swap1\n      pop\n        /* \"wallet.sol\":9764:9781  authorizedSigners */\n      0x02\n        /* \"wallet.sol\":9764:9798  authorizedSigners[simulatedSigner] */\n      0x00\n        /* \"wallet.sol\":9782:9797  simulatedSigner */\n      dup3\n        /* \"wallet.sol\":9764:9798  authorizedSigners[simulatedSigner] */\n      0xffffffffffffffffffffffffffffffffffffffff\n      and\n      0xffffffffffffffffffffffffffffffffffffffff\n      and\n      dup2\n      mstore\n      0x20\n      add\n      swap1\n      dup2\n      mstore\n      0x20\n      add\n      0x00\n      keccak256\n      0x00\n      swap1\n      sload\n      swap1\n      0x0100\n      exp\n      swap1\n      div\n      0xff\n      and\n        /* \"wallet.sol\":9756:9856  require(authorizedSigners[simulatedSigner], \"Signature not from an authorized signer. Who are you?\") */\n      tag_90\n      jumpi\n      mload(0x40)\n      0x08c379a000000000000000000000000000000000000000000000000000000000\n      dup2\n      mstore\n      0x04\n      add\n      tag_91\n      swap1\n      tag_92\n      jump\t// in\n    tag_91:\n      mload(0x40)\n      dup1\n      swap2\n      sub\n      swap1\n      revert\n    tag_90:\n        /* \"wallet.sol\":10104:10128  address paymasterAddress */\n      0x00\n        /* \"wallet.sol\":10155:10161  userOp */\n      dup4\n        /* \"wallet.sol\":10155:10178  userOp.paymasterAndData */\n      dup1\n      0x0100\n      add\n      swap1\n      tag_93\n      swap2\n      swap1\n      tag_86\n      jump\t// in\n    tag_93:\n        /* \"wallet.sol\":10147:10179  bytes20(userOp.paymasterAndData) */\n      swap1\n      tag_94\n      swap2\n      swap1\n      tag_95\n      jump\t// in\n    tag_94:\n        /* \"wallet.sol\":10139:10180  uint160(bytes20(userOp.paymasterAndData)) */\n      0x60\n      shr\n        /* \"wallet.sol\":10104:10181  address paymasterAddress = address(uint160(bytes20(userOp.paymasterAndData))) */\n      swap1\n      pop\n        /* \"wallet.sol\":10224:10225  0 */\n      0x00\n        /* \"wallet.sol\":10196:10226  paymasterAddress != address(0) */\n      0xffffffffffffffffffffffffffffffffffffffff\n      and\n        /* \"wallet.sol\":10196:10212  paymasterAddress */\n      dup2\n        /* \"wallet.sol\":10196:10226  paymasterAddress != address(0) */\n      0xffffffffffffffffffffffffffffffffffffffff\n      and\n      eq\n        /* \"wallet.sol\":10192:10575  if (paymasterAddress != address(0)) {... */\n      tag_96\n      jumpi\n        /* \"wallet.sol\":10546:10562  paymasterAddress */\n      dup1\n        /* \"wallet.sol\":10525:10563  PaymasterInteraction(paymasterAddress) */\n      0xffffffffffffffffffffffffffffffffffffffff\n      and\n      0xd680b39aa4e134b739e3f5bab3cc8f4c4312c876c15a68e9199b79f2976d390c\n      mload(0x40)\n      mload(0x40)\n      dup1\n      swap2\n      sub\n      swap1\n      log2\n        /* \"wallet.sol\":10192:10575  if (paymasterAddress != address(0)) {... */\n    tag_96:\n        /* \"wallet.sol\":10831:10836  nonce */\n      0x01\n      0x00\n        /* \"wallet.sol\":10831:10838  nonce++ */\n      dup2\n      sload\n      dup1\n      swap3\n      swap2\n      swap1\n      tag_97\n      swap1\n      tag_98\n      jump\t// in\n    tag_97:\n      swap2\n      swap1\n      pop\n      sstore\n      pop\n        /* \"wallet.sol\":10929:10935  userOp */\n      dup4\n        /* \"wallet.sol\":10929:10942  userOp.sender */\n      0x00\n      add\n      0x20\n      dup2\n      add\n      swap1\n      tag_99\n      swap2\n      swap1\n      tag_21\n      jump\t// in\n    tag_99:\n        /* \"wallet.sol\":10906:10957  UserOperationValidated(userOp.sender, userOp.nonce) */\n      0xffffffffffffffffffffffffffffffffffffffff\n      and\n      0x6f20e7e0b842bc6a4ee93377f71742bb7d3714803c40b26bcce7dee4faa640f0\n        /* \"wallet.sol\":10944:10950  userOp */\n      dup6\n        /* \"wallet.sol\":10944:10956  userOp.nonce */\n      0x20\n      add\n      calldataload\n        /* \"wallet.sol\":10906:10957  UserOperationValidated(userOp.sender, userOp.nonce) */\n      mload(0x40)\n      tag_100\n      swap2\n      swap1\n      tag_29\n      jump\t// in\n    tag_100:\n      mload(0x40)\n      dup1\n      swap2\n      sub\n      swap1\n      log2\n        /* \"wallet.sol\":11137:11138  0 */\n      0x00\n        /* \"wallet.sol\":11130:11138  return 0 */\n      swap3\n      pop\n      pop\n      pop\n        /* \"wallet.sol\":7109:11164  function validateUserOp(UserOperation calldata userOp)... */\n      swap2\n      swap1\n      pop\n      jump\t// out\n        /* \"wallet.sol\":12370:13170  function approveERC20ForPaymaster(address token, address paymaster, uint256 amount) external {... */\n    tag_34:\n        /* \"wallet.sol\":12667:12672  owner */\n      0x00\n      0x00\n      swap1\n      sload\n      swap1\n      0x0100\n      exp\n      swap1\n      div\n      0xffffffffffffffffffffffffffffffffffffffff\n      and\n        /* \"wallet.sol\":12653:12672  msg.sender == owner */\n      0xffffffffffffffffffffffffffffffffffffffff\n      and\n        /* \"wallet.sol\":12653:12663  msg.sender */\n      caller\n        /* \"wallet.sol\":12653:12672  msg.sender == owner */\n      0xffffffffffffffffffffffffffffffffffffffff\n      and\n      eq\n        /* \"wallet.sol\":12645:12727  require(msg.sender == owner, \"Only the owner can approve tokens for a Paymaster.\") */\n      tag_102\n      jumpi\n      mload(0x40)\n      0x08c379a000000000000000000000000000000000000000000000000000000000\n      dup2\n      mstore\n      0x04\n      add\n      tag_103\n      swap1\n      tag_104\n      jump\t// in\n    tag_103:\n      mload(0x40)\n      dup1\n      swap2\n      sub\n      swap1\n      revert\n    tag_102:\n        /* \"wallet.sol\":12763:12764  0 */\n      0x00\n        /* \"wallet.sol\":12746:12765  token != address(0) */\n      0xffffffffffffffffffffffffffffffffffffffff\n      and\n        /* \"wallet.sol\":12746:12751  token */\n      dup4\n        /* \"wallet.sol\":12746:12765  token != address(0) */\n      0xffffffffffffffffffffffffffffffffffffffff\n      and\n      sub\n        /* \"wallet.sol\":12738:12799  require(token != address(0), \"Token address cannot be zero.\") */\n      tag_105\n      jumpi\n      mload(0x40)\n      0x08c379a000000000000000000000000000000000000000000000000000000000\n      dup2\n      mstore\n      0x04\n      add\n      tag_106\n      swap1\n      tag_107\n      jump\t// in\n    tag_106:\n      mload(0x40)\n      dup1\n      swap2\n      sub\n      swap1\n      revert\n    tag_105:\n        /* \"wallet.sol\":12839:12840  0 */\n      0x00\n        /* \"wallet.sol\":12818:12841  paymaster != address(0) */\n      0xffffffffffffffffffffffffffffffffffffffff\n      and\n        /* \"wallet.sol\":12818:12827  paymaster */\n      dup3\n        /* \"wallet.sol\":12818:12841  paymaster != address(0) */\n      0xffffffffffffffffffffffffffffffffffffffff\n      and\n      sub\n        /* \"wallet.sol\":12810:12879  require(paymaster != address(0), \"Paymaster address cannot be zero.\") */\n      tag_108\n      jumpi\n      mload(0x40)\n      0x08c379a000000000000000000000000000000000000000000000000000000000\n      dup2\n      mstore\n      0x04\n      add\n      tag_109\n      swap1\n      tag_110\n      jump\t// in\n    tag_109:\n      mload(0x40)\n      dup1\n      swap2\n      sub\n      swap1\n      revert\n    tag_108:\n        /* \"wallet.sol\":13060:13065  token */\n      dup3\n        /* \"wallet.sol\":13053:13074  IERC20(token).approve */\n      0xffffffffffffffffffffffffffffffffffffffff\n      and\n      0x095ea7b3\n        /* \"wallet.sol\":13075:13084  paymaster */\n      dup4\n        /* \"wallet.sol\":13086:13092  amount */\n      dup4\n        /* \"wallet.sol\":13053:13093  IERC20(token).approve(paymaster, amount) */\n      mload(0x40)\n      dup4\n      0xffffffff\n      and\n      0xe0\n      shl\n      dup2\n      mstore\n      0x04\n      add\n      tag_111\n      swap3\n      swap2\n      swap1\n      tag_112\n      jump\t// in\n    tag_111:\n      0x20\n      mload(0x40)\n      dup1\n      dup4\n      sub\n      dup2\n      0x00\n      dup8\n      gas\n      call\n      iszero\n      dup1\n      iszero\n      tag_114\n      jumpi\n      returndatacopy(0x00, 0x00, returndatasize)\n      revert(0x00, returndatasize)\n    tag_114:\n      pop\n      pop\n      pop\n      pop\n      mload(0x40)\n      returndatasize\n      not(0x1f)\n      0x1f\n      dup3\n      add\n      and\n      dup3\n      add\n      dup1\n      0x40\n      mstore\n      pop\n      dup2\n      add\n      swap1\n      tag_115\n      swap2\n      swap1\n      tag_116\n      jump\t// in\n    tag_115:\n      pop\n        /* \"wallet.sol\":12370:13170  function approveERC20ForPaymaster(address token, address paymaster, uint256 amount) external {... */\n      pop\n      pop\n      pop\n      jump\t// out\n        /* \"wallet.sol\":5873:6696  function executeBatch(address[] calldata tos, uint256[] calldata values, bytes[] calldata datas)... */\n    tag_39:\n        /* \"wallet.sol\":6026:6036  entryPoint */\n      immutable(\"0xbbd48b257be1b8216d144ef9be5734f8d11697959c9e0f7768bec89db74a63a3\")\n        /* \"wallet.sol\":6012:6036  msg.sender == entryPoint */\n      0xffffffffffffffffffffffffffffffffffffffff\n      and\n        /* \"wallet.sol\":6012:6022  msg.sender */\n      caller\n        /* \"wallet.sol\":6012:6036  msg.sender == entryPoint */\n      0xffffffffffffffffffffffffffffffffffffffff\n      and\n      eq\n        /* \"wallet.sol\":6004:6108  require(msg.sender == entryPoint, \"Batch execution can only be triggered by the EntryPoint. Seriously.\") */\n      tag_118\n      jumpi\n      mload(0x40)\n      0x08c379a000000000000000000000000000000000000000000000000000000000\n      dup2\n      mstore\n      0x04\n      add\n      tag_119\n      swap1\n      tag_120\n      jump\t// in\n    tag_119:\n      mload(0x40)\n      dup1\n      swap2\n      sub\n      swap1\n      revert\n    tag_118:\n        /* \"wallet.sol\":6141:6147  values */\n      dup4\n      dup4\n        /* \"wallet.sol\":6141:6154  values.length */\n      swap1\n      pop\n        /* \"wallet.sol\":6127:6130  tos */\n      dup7\n      dup7\n        /* \"wallet.sol\":6127:6137  tos.length */\n      swap1\n      pop\n        /* \"wallet.sol\":6127:6154  tos.length == values.length */\n      eq\n        /* \"wallet.sol\":6127:6184  tos.length == values.length && tos.length == datas.length */\n      dup1\n      iszero\n      tag_121\n      jumpi\n      pop\n        /* \"wallet.sol\":6172:6177  datas */\n      dup2\n      dup2\n        /* \"wallet.sol\":6172:6184  datas.length */\n      swap1\n      pop\n        /* \"wallet.sol\":6158:6161  tos */\n      dup7\n      dup7\n        /* \"wallet.sol\":6158:6168  tos.length */\n      swap1\n      pop\n        /* \"wallet.sol\":6158:6184  tos.length == datas.length */\n      eq\n        /* \"wallet.sol\":6127:6184  tos.length == values.length && tos.length == datas.length */\n    tag_121:\n        /* \"wallet.sol\":6119:6251  require(tos.length == values.length && tos.length == datas.length, \"Arrays gotta be the same length, my dude. Mismatch is a no-go.\") */\n      tag_122\n      jumpi\n      mload(0x40)\n      0x08c379a000000000000000000000000000000000000000000000000000000000\n      dup2\n      mstore\n      0x04\n      add\n      tag_123\n      swap1\n      tag_124\n      jump\t// in\n    tag_123:\n      mload(0x40)\n      dup1\n      swap2\n      sub\n      swap1\n      revert\n    tag_122:\n        /* \"wallet.sol\":6389:6395  uint i */\n      0x00\n        /* \"wallet.sol\":6398:6399  0 */\n      0x00\n        /* \"wallet.sol\":6389:6399  uint i = 0 */\n      swap1\n      pop\n        /* \"wallet.sol\":6384:6689  for (uint i = 0; i < tos.length; i++) {... */\n    tag_125:\n        /* \"wallet.sol\":6405:6408  tos */\n      dup7\n      dup7\n        /* \"wallet.sol\":6405:6415  tos.length */\n      swap1\n      pop\n        /* \"wallet.sol\":6401:6402  i */\n      dup2\n        /* \"wallet.sol\":6401:6415  i < tos.length */\n      lt\n        /* \"wallet.sol\":6384:6689  for (uint i = 0; i < tos.length; i++) {... */\n      iszero\n      tag_126\n      jumpi\n        /* \"wallet.sol\":6438:6450  bool success */\n      0x00\n        /* \"wallet.sol\":6452:6471  bytes memory result */\n      0x00\n        /* \"wallet.sol\":6475:6478  tos */\n      dup9\n      dup9\n        /* \"wallet.sol\":6479:6480  i */\n      dup5\n        /* \"wallet.sol\":6475:6481  tos[i] */\n      dup2\n      dup2\n      lt\n      tag_128\n      jumpi\n      tag_129\n      tag_130\n      jump\t// in\n    tag_129:\n    tag_128:\n      swap1\n      pop\n      0x20\n      mul\n      add\n      0x20\n      dup2\n      add\n      swap1\n      tag_131\n      swap2\n      swap1\n      tag_21\n      jump\t// in\n    tag_131:\n        /* \"wallet.sol\":6475:6486  tos[i].call */\n      0xffffffffffffffffffffffffffffffffffffffff\n      and\n        /* \"wallet.sol\":6494:6500  values */\n      dup8\n      dup8\n        /* \"wallet.sol\":6501:6502  i */\n      dup6\n        /* \"wallet.sol\":6494:6503  values[i] */\n      dup2\n      dup2\n      lt\n      tag_132\n      jumpi\n      tag_133\n      tag_130\n      jump\t// in\n    tag_133:\n    tag_132:\n      swap1\n      pop\n      0x20\n      mul\n      add\n      calldataload\n        /* \"wallet.sol\":6505:6510  datas */\n      dup7\n      dup7\n        /* \"wallet.sol\":6511:6512  i */\n      dup7\n        /* \"wallet.sol\":6505:6513  datas[i] */\n      dup2\n      dup2\n      lt\n      tag_134\n      jumpi\n      tag_135\n      tag_130\n      jump\t// in\n    tag_135:\n    tag_134:\n      swap1\n      pop\n      0x20\n      mul\n      dup2\n      add\n      swap1\n      tag_136\n      swap2\n      swap1\n      tag_86\n      jump\t// in\n    tag_136:\n        /* \"wallet.sol\":6475:6514  tos[i].call{value: values[i]}(datas[i]) */\n      mload(0x40)\n      tag_137\n      swap3\n      swap2\n      swap1\n      tag_138\n      jump\t// in\n    tag_137:\n      0x00\n      mload(0x40)\n      dup1\n      dup4\n      sub\n      dup2\n      dup6\n      dup8\n      gas\n      call\n      swap3\n      pop\n      pop\n      pop\n      returndatasize\n      dup1\n      0x00\n      dup2\n      eq\n      tag_141\n      jumpi\n      mload(0x40)\n      swap2\n      pop\n      and(add(returndatasize, 0x3f), not(0x1f))\n      dup3\n      add\n      0x40\n      mstore\n      returndatasize\n      dup3\n      mstore\n      returndatasize\n      0x00\n      0x20\n      dup5\n      add\n      returndatacopy\n      jump(tag_140)\n    tag_141:\n      0x60\n      swap2\n      pop\n    tag_140:\n      pop\n        /* \"wallet.sol\":6437:6514  (bool success, bytes memory result) = tos[i].call{value: values[i]}(datas[i]) */\n      swap2\n      pop\n      swap2\n      pop\n        /* \"wallet.sol\":6537:6544  success */\n      dup2\n        /* \"wallet.sol\":6553:6559  result */\n      dup2\n        /* \"wallet.sol\":6529:6561  require(success, string(result)) */\n      swap1\n      tag_142\n      jumpi\n      mload(0x40)\n      0x08c379a000000000000000000000000000000000000000000000000000000000\n      dup2\n      mstore\n      0x04\n      add\n      tag_143\n      swap2\n      swap1\n      tag_144\n      jump\t// in\n    tag_143:\n      mload(0x40)\n      dup1\n      swap2\n      sub\n      swap1\n      revert\n    tag_142:\n      pop\n        /* \"wallet.sol\":6649:6652  tos */\n      dup9\n      dup9\n        /* \"wallet.sol\":6653:6654  i */\n      dup5\n        /* \"wallet.sol\":6649:6655  tos[i] */\n      dup2\n      dup2\n      lt\n      tag_145\n      jumpi\n      tag_146\n      tag_130\n      jump\t// in\n    tag_146:\n    tag_145:\n      swap1\n      pop\n      0x20\n      mul\n      add\n      0x20\n      dup2\n      add\n      swap1\n      tag_147\n      swap2\n      swap1\n      tag_21\n      jump\t// in\n    tag_147:\n        /* \"wallet.sol\":6640:6677  Executed(tos[i], values[i], datas[i]) */\n      0xffffffffffffffffffffffffffffffffffffffff\n      and\n      0xcaf938de11c367272220bfd1d2baa99ca46665e7bc4d85f00adb51b90fe1fa9f\n        /* \"wallet.sol\":6657:6663  values */\n      dup9\n      dup9\n        /* \"wallet.sol\":6664:6665  i */\n      dup7\n        /* \"wallet.sol\":6657:6666  values[i] */\n      dup2\n      dup2\n      lt\n      tag_148\n      jumpi\n      tag_149\n      tag_130\n      jump\t// in\n    tag_149:\n    tag_148:\n      swap1\n      pop\n      0x20\n      mul\n      add\n      calldataload\n        /* \"wallet.sol\":6668:6673  datas */\n      dup8\n      dup8\n        /* \"wallet.sol\":6674:6675  i */\n      dup8\n        /* \"wallet.sol\":6668:6676  datas[i] */\n      dup2\n      dup2\n      lt\n      tag_150\n      jumpi\n      tag_151\n      tag_130\n      jump\t// in\n    tag_151:\n    tag_150:\n      swap1\n      pop\n      0x20\n      mul\n      dup2\n      add\n      swap1\n      tag_152\n      swap2\n      swap1\n      tag_86\n      jump\t// in\n    tag_152:\n        /* \"wallet.sol\":6640:6677  Executed(tos[i], values[i], datas[i]) */\n      mload(0x40)\n      tag_153\n      swap4\n      swap3\n      swap2\n      swap1\n      tag_154\n      jump\t// in\n    tag_153:\n      mload(0x40)\n      dup1\n      swap2\n      sub\n      swap1\n      log2\n        /* \"wallet.sol\":6422:6689  {... */\n      pop\n      pop\n        /* \"wallet.sol\":6417:6420  i++ */\n      dup1\n      dup1\n      0x01\n      add\n      swap2\n      pop\n      pop\n        /* \"wallet.sol\":6384:6689  for (uint i = 0; i < tos.length; i++) {... */\n      jump(tag_125)\n    tag_126:\n      pop\n        /* \"wallet.sol\":5873:6696  function executeBatch(address[] calldata tos, uint256[] calldata values, bytes[] calldata datas)... */\n      pop\n      pop\n      pop\n      pop\n      pop\n      pop\n      jump\t// out\n        /* \"wallet.sol\":2831:2880  mapping(address => bool) public authorizedSigners */\n    tag_43:\n      mstore(0x20, 0x02)\n      dup1\n      0x00\n      mstore\n      keccak256(0x00, 0x40)\n      0x00\n      swap2\n      pop\n      sload\n      swap1\n      0x0100\n      exp\n      swap1\n      div\n      0xff\n      and\n      dup2\n      jump\t// out\n        /* \"wallet.sol\":2561:2581  address public owner */\n    tag_48:\n      0x00\n      0x00\n      swap1\n      sload\n      swap1\n      0x0100\n      exp\n      swap1\n      div\n      0xffffffffffffffffffffffffffffffffffffffff\n      and\n      dup2\n      jump\t// out\n        /* \"wallet.sol\":2661:2681  uint256 public nonce */\n    tag_53:\n      sload(0x01)\n      dup2\n      jump\t// out\n        /* \"wallet.sol\":3085:3120  address public immutable entryPoint */\n    tag_57:\n      immutable(\"0xbbd48b257be1b8216d144ef9be5734f8d11697959c9e0f7768bec89db74a63a3\")\n      dup2\n      jump\t// out\n        /* \"wallet.sol\":4444:5715  function execute(address to, uint256 value, bytes calldata data)... */\n    tag_63:\n        /* \"wallet.sol\":4732:4742  entryPoint */\n      immutable(\"0xbbd48b257be1b8216d144ef9be5734f8d11697959c9e0f7768bec89db74a63a3\")\n        /* \"wallet.sol\":4718:4742  msg.sender == entryPoint */\n      0xffffffffffffffffffffffffffffffffffffffff\n      and\n        /* \"wallet.sol\":4718:4728  msg.sender */\n      caller\n        /* \"wallet.sol\":4718:4742  msg.sender == entryPoint */\n      0xffffffffffffffffffffffffffffffffffffffff\n      and\n      eq\n        /* \"wallet.sol\":4710:4816  require(msg.sender == entryPoint, \"Execution can only be triggered by the EntryPoint. Stay in your lane.\") */\n      tag_156\n      jumpi\n      mload(0x40)\n      0x08c379a000000000000000000000000000000000000000000000000000000000\n      dup2\n      mstore\n      0x04\n      add\n      tag_157\n      swap1\n      tag_158\n      jump\t// in\n    tag_157:\n      mload(0x40)\n      dup1\n      swap2\n      sub\n      swap1\n      revert\n    tag_156:\n        /* \"wallet.sol\":5416:5428  bool success */\n      0x00\n        /* \"wallet.sol\":5430:5449  bytes memory result */\n      0x00\n        /* \"wallet.sol\":5453:5455  to */\n      dup6\n        /* \"wallet.sol\":5453:5460  to.call */\n      0xffffffffffffffffffffffffffffffffffffffff\n      and\n        /* \"wallet.sol\":5468:5473  value */\n      dup6\n        /* \"wallet.sol\":5475:5479  data */\n      dup6\n      dup6\n        /* \"wallet.sol\":5453:5480  to.call{value: value}(data) */\n      mload(0x40)\n      tag_159\n      swap3\n      swap2\n      swap1\n      tag_138\n      jump\t// in\n    tag_159:\n      0x00\n      mload(0x40)\n      dup1\n      dup4\n      sub\n      dup2\n      dup6\n      dup8\n      gas\n      call\n      swap3\n      pop\n      pop\n      pop\n      returndatasize\n      dup1\n      0x00\n      dup2\n      eq\n      tag_162\n      jumpi\n      mload(0x40)\n      swap2\n      pop\n      and(add(returndatasize, 0x3f), not(0x1f))\n      dup3\n      add\n      0x40\n      mstore\n      returndatasize\n      dup3\n      mstore\n      returndatasize\n      0x00\n      0x20\n      dup5\n      add\n      returndatacopy\n      jump(tag_161)\n    tag_162:\n      0x60\n      swap2\n      pop\n    tag_161:\n      pop\n        /* \"wallet.sol\":5415:5480  (bool success, bytes memory result) = to.call{value: value}(data) */\n      swap2\n      pop\n      swap2\n      pop\n        /* \"wallet.sol\":5585:5592  success */\n      dup2\n        /* \"wallet.sol\":5601:5607  result */\n      dup2\n        /* \"wallet.sol\":5577:5609  require(success, string(result)) */\n      swap1\n      tag_163\n      jumpi\n      mload(0x40)\n      0x08c379a000000000000000000000000000000000000000000000000000000000\n      dup2\n      mstore\n      0x04\n      add\n      tag_164\n      swap2\n      swap1\n      tag_144\n      jump\t// in\n    tag_164:\n      mload(0x40)\n      dup1\n      swap2\n      sub\n      swap1\n      revert\n    tag_163:\n      pop\n        /* \"wallet.sol\":5691:5693  to */\n      dup6\n        /* \"wallet.sol\":5682:5707  Executed(to, value, data) */\n      0xffffffffffffffffffffffffffffffffffffffff\n      and\n      0xcaf938de11c367272220bfd1d2baa99ca46665e7bc4d85f00adb51b90fe1fa9f\n        /* \"wallet.sol\":5695:5700  value */\n      dup7\n        /* \"wallet.sol\":5702:5706  data */\n      dup7\n      dup7\n        /* \"wallet.sol\":5682:5707  Executed(to, value, data) */\n      mload(0x40)\n      tag_165\n      swap4\n      swap3\n      swap2\n      swap1\n      tag_154\n      jump\t// in\n    tag_165:\n      mload(0x40)\n      dup1\n      swap2\n      sub\n      swap1\n      log2\n        /* \"wallet.sol\":4532:5715  {... */\n      pop\n      pop\n        /* \"wallet.sol\":4444:5715  function execute(address to, uint256 value, bytes calldata data)... */\n      pop\n      pop\n      pop\n      pop\n      jump\t// out\n        /* \"wallet.sol\":11252:11656  function addSigner(address signer) external {... */\n    tag_67:\n        /* \"wallet.sol\":11329:11334  owner */\n      0x00\n      0x00\n      swap1\n      sload\n      swap1\n      0x0100\n      exp\n      swap1\n      div\n      0xffffffffffffffffffffffffffffffffffffffff\n      and\n        /* \"wallet.sol\":11315:11334  msg.sender == owner */\n      0xffffffffffffffffffffffffffffffffffffffff\n      and\n        /* \"wallet.sol\":11315:11325  msg.sender */\n      caller\n        /* \"wallet.sol\":11315:11334  msg.sender == owner */\n      0xffffffffffffffffffffffffffffffffffffffff\n      and\n      eq\n        /* \"wallet.sol\":11307:11397  require(msg.sender == owner, \"Only the owner can add signers. This ain't a free-for-all.\") */\n      tag_167\n      jumpi\n      mload(0x40)\n      0x08c379a000000000000000000000000000000000000000000000000000000000\n      dup2\n      mstore\n      0x04\n      add\n      tag_168\n      swap1\n      tag_169\n      jump\t// in\n    tag_168:\n      mload(0x40)\n      dup1\n      swap2\n      sub\n      swap1\n      revert\n    tag_167:\n        /* \"wallet.sol\":11434:11435  0 */\n      0x00\n        /* \"wallet.sol\":11416:11436  signer != address(0) */\n      0xffffffffffffffffffffffffffffffffffffffff\n      and\n        /* \"wallet.sol\":11416:11422  signer */\n      dup2\n        /* \"wallet.sol\":11416:11436  signer != address(0) */\n      0xffffffffffffffffffffffffffffffffffffffff\n      and\n      sub\n        /* \"wallet.sol\":11408:11478  require(signer != address(0), \"Signer address cannot be zero. C'mon.\") */\n      tag_170\n      jumpi\n      mload(0x40)\n      0x08c379a000000000000000000000000000000000000000000000000000000000\n      dup2\n      mstore\n      0x04\n      add\n      tag_171\n      swap1\n      tag_172\n      jump\t// in\n    tag_171:\n      mload(0x40)\n      dup1\n      swap2\n      sub\n      swap1\n      revert\n    tag_170:\n        /* \"wallet.sol\":11498:11515  authorizedSigners */\n      0x02\n        /* \"wallet.sol\":11498:11523  authorizedSigners[signer] */\n      0x00\n        /* \"wallet.sol\":11516:11522  signer */\n      dup3\n        /* \"wallet.sol\":11498:11523  authorizedSigners[signer] */\n      0xffffffffffffffffffffffffffffffffffffffff\n      and\n      0xffffffffffffffffffffffffffffffffffffffff\n      and\n      dup2\n      mstore\n      0x20\n      add\n      swap1\n      dup2\n      mstore\n      0x20\n      add\n      0x00\n      keccak256\n      0x00\n      swap1\n      sload\n      swap1\n      0x0100\n      exp\n      swap1\n      div\n      0xff\n      and\n        /* \"wallet.sol\":11497:11523  !authorizedSigners[signer] */\n      iszero\n        /* \"wallet.sol\":11489:11568  require(!authorizedSigners[signer], \"This address is already a signer. Chill.\") */\n      tag_173\n      jumpi\n      mload(0x40)\n      0x08c379a000000000000000000000000000000000000000000000000000000000\n      dup2\n      mstore\n      0x04\n      add\n      tag_174\n      swap1\n      tag_175\n      jump\t// in\n    tag_174:\n      mload(0x40)\n      dup1\n      swap2\n      sub\n      swap1\n      revert\n    tag_173:\n        /* \"wallet.sol\":11609:11613  true */\n      0x01\n        /* \"wallet.sol\":11581:11598  authorizedSigners */\n      0x02\n        /* \"wallet.sol\":11581:11606  authorizedSigners[signer] */\n      0x00\n        /* \"wallet.sol\":11599:11605  signer */\n      dup4\n        /* \"wallet.sol\":11581:11606  authorizedSigners[signer] */\n      0xffffffffffffffffffffffffffffffffffffffff\n      and\n      0xffffffffffffffffffffffffffffffffffffffff\n      and\n      dup2\n      mstore\n      0x20\n      add\n      swap1\n      dup2\n      mstore\n      0x20\n      add\n      0x00\n      keccak256\n      0x00\n        /* \"wallet.sol\":11581:11613  authorizedSigners[signer] = true */\n      0x0100\n      exp\n      dup2\n      sload\n      dup2\n      0xff\n      mul\n      not\n      and\n      swap1\n      dup4\n      iszero\n      iszero\n      mul\n      or\n      swap1\n      sstore\n      pop\n        /* \"wallet.sol\":11641:11647  signer */\n      dup1\n        /* \"wallet.sol\":11629:11648  SignerAdded(signer) */\n      0xffffffffffffffffffffffffffffffffffffffff\n      and\n      0x47d1c22a25bb3a5d4e481b9b1e6944c2eade3181a0a20b495ed61d35b5323f24\n      mload(0x40)\n      mload(0x40)\n      dup1\n      swap2\n      sub\n      swap1\n      log2\n        /* \"wallet.sol\":11252:11656  function addSigner(address signer) external {... */\n      pop\n      jump\t// out\n        /* \"#utility.yul\":88:205   */\n    tag_177:\n        /* \"#utility.yul\":197:198   */\n      0x00\n        /* \"#utility.yul\":194:195   */\n      0x00\n        /* \"#utility.yul\":187:199   */\n      revert\n        /* \"#utility.yul\":211:328   */\n    tag_178:\n        /* \"#utility.yul\":320:321   */\n      0x00\n        /* \"#utility.yul\":317:318   */\n      0x00\n        /* \"#utility.yul\":310:322   */\n      revert\n        /* \"#utility.yul\":334:460   */\n    tag_179:\n        /* \"#utility.yul\":371:378   */\n      0x00\n        /* \"#utility.yul\":411:453   */\n      0xffffffffffffffffffffffffffffffffffffffff\n        /* \"#utility.yul\":404:409   */\n      dup3\n        /* \"#utility.yul\":400:454   */\n      and\n        /* \"#utility.yul\":389:454   */\n      swap1\n      pop\n        /* \"#utility.yul\":334:460   */\n      swap2\n      swap1\n      pop\n      jump\t// out\n        /* \"#utility.yul\":466:562   */\n    tag_180:\n        /* \"#utility.yul\":503:510   */\n      0x00\n        /* \"#utility.yul\":532:556   */\n      tag_257\n        /* \"#utility.yul\":550:555   */\n      dup3\n        /* \"#utility.yul\":532:556   */\n      tag_179\n      jump\t// in\n    tag_257:\n        /* \"#utility.yul\":521:556   */\n      swap1\n      pop\n        /* \"#utility.yul\":466:562   */\n      swap2\n      swap1\n      pop\n      jump\t// out\n        /* \"#utility.yul\":568:690   */\n    tag_181:\n        /* \"#utility.yul\":641:665   */\n      tag_259\n        /* \"#utility.yul\":659:664   */\n      dup2\n        /* \"#utility.yul\":641:665   */\n      tag_180\n      jump\t// in\n    tag_259:\n        /* \"#utility.yul\":634:639   */\n      dup2\n        /* \"#utility.yul\":631:666   */\n      eq\n        /* \"#utility.yul\":621:684   */\n      tag_260\n      jumpi\n        /* \"#utility.yul\":680:681   */\n      0x00\n        /* \"#utility.yul\":677:678   */\n      0x00\n        /* \"#utility.yul\":670:682   */\n      revert\n        /* \"#utility.yul\":621:684   */\n    tag_260:\n        /* \"#utility.yul\":568:690   */\n      pop\n      jump\t// out\n        /* \"#utility.yul\":696:835   */\n    tag_182:\n        /* \"#utility.yul\":742:747   */\n      0x00\n        /* \"#utility.yul\":780:786   */\n      dup2\n        /* \"#utility.yul\":767:787   */\n      calldataload\n        /* \"#utility.yul\":758:787   */\n      swap1\n      pop\n        /* \"#utility.yul\":796:829   */\n      tag_262\n        /* \"#utility.yul\":823:828   */\n      dup2\n        /* \"#utility.yul\":796:829   */\n      tag_181\n      jump\t// in\n    tag_262:\n        /* \"#utility.yul\":696:835   */\n      swap3\n      swap2\n      pop\n      pop\n      jump\t// out\n        /* \"#utility.yul\":841:1170   */\n    tag_21:\n        /* \"#utility.yul\":900:906   */\n      0x00\n        /* \"#utility.yul\":949:951   */\n      0x20\n        /* \"#utility.yul\":937:946   */\n      dup3\n        /* \"#utility.yul\":928:935   */\n      dup5\n        /* \"#utility.yul\":924:947   */\n      sub\n        /* \"#utility.yul\":920:952   */\n      slt\n        /* \"#utility.yul\":917:1036   */\n      iszero\n      tag_264\n      jumpi\n        /* \"#utility.yul\":955:1034   */\n      tag_265\n      tag_177\n      jump\t// in\n    tag_265:\n        /* \"#utility.yul\":917:1036   */\n    tag_264:\n        /* \"#utility.yul\":1075:1076   */\n      0x00\n        /* \"#utility.yul\":1100:1153   */\n      tag_266\n        /* \"#utility.yul\":1145:1152   */\n      dup5\n        /* \"#utility.yul\":1136:1142   */\n      dup3\n        /* \"#utility.yul\":1125:1134   */\n      dup6\n        /* \"#utility.yul\":1121:1143   */\n      add\n        /* \"#utility.yul\":1100:1153   */\n      tag_182\n      jump\t// in\n    tag_266:\n        /* \"#utility.yul\":1090:1153   */\n      swap2\n      pop\n        /* \"#utility.yul\":1046:1163   */\n      pop\n        /* \"#utility.yul\":841:1170   */\n      swap3\n      swap2\n      pop\n      pop\n      jump\t// out\n        /* \"#utility.yul\":1176:1293   */\n    tag_183:\n        /* \"#utility.yul\":1285:1286   */\n      0x00\n        /* \"#utility.yul\":1282:1283   */\n      0x00\n        /* \"#utility.yul\":1275:1287   */\n      revert\n        /* \"#utility.yul\":1327:1563   */\n    tag_184:\n        /* \"#utility.yul\":1404:1409   */\n      0x00\n        /* \"#utility.yul\":1445:1448   */\n      0x0140\n        /* \"#utility.yul\":1436:1442   */\n      dup3\n        /* \"#utility.yul\":1431:1434   */\n      dup5\n        /* \"#utility.yul\":1427:1443   */\n      sub\n        /* \"#utility.yul\":1423:1449   */\n      slt\n        /* \"#utility.yul\":1420:1533   */\n      iszero\n      tag_269\n      jumpi\n        /* \"#utility.yul\":1452:1531   */\n      tag_270\n      tag_183\n      jump\t// in\n    tag_270:\n        /* \"#utility.yul\":1420:1533   */\n    tag_269:\n        /* \"#utility.yul\":1551:1557   */\n      dup2\n        /* \"#utility.yul\":1542:1557   */\n      swap1\n      pop\n        /* \"#utility.yul\":1327:1563   */\n      swap3\n      swap2\n      pop\n      pop\n      jump\t// out\n        /* \"#utility.yul\":1569:2120   */\n    tag_26:\n        /* \"#utility.yul\":1659:1665   */\n      0x00\n        /* \"#utility.yul\":1708:1710   */\n      0x20\n        /* \"#utility.yul\":1696:1705   */\n      dup3\n        /* \"#utility.yul\":1687:1694   */\n      dup5\n        /* \"#utility.yul\":1683:1706   */\n      sub\n        /* \"#utility.yul\":1679:1711   */\n      slt\n        /* \"#utility.yul\":1676:1795   */\n      iszero\n      tag_272\n      jumpi\n        /* \"#utility.yul\":1714:1793   */\n      tag_273\n      tag_177\n      jump\t// in\n    tag_273:\n        /* \"#utility.yul\":1676:1795   */\n    tag_272:\n        /* \"#utility.yul\":1862:1863   */\n      0x00\n        /* \"#utility.yul\":1851:1860   */\n      dup3\n        /* \"#utility.yul\":1847:1864   */\n      add\n        /* \"#utility.yul\":1834:1865   */\n      calldataload\n        /* \"#utility.yul\":1892:1910   */\n      0xffffffffffffffff\n        /* \"#utility.yul\":1884:1890   */\n      dup2\n        /* \"#utility.yul\":1881:1911   */\n      gt\n        /* \"#utility.yul\":1878:1995   */\n      iszero\n      tag_274\n      jumpi\n        /* \"#utility.yul\":1914:1993   */\n      tag_275\n      tag_178\n      jump\t// in\n    tag_275:\n        /* \"#utility.yul\":1878:1995   */\n    tag_274:\n        /* \"#utility.yul\":2019:2103   */\n      tag_276\n        /* \"#utility.yul\":2095:2102   */\n      dup5\n        /* \"#utility.yul\":2086:2092   */\n      dup3\n        /* \"#utility.yul\":2075:2084   */\n      dup6\n        /* \"#utility.yul\":2071:2093   */\n      add\n        /* \"#utility.yul\":2019:2103   */\n      tag_184\n      jump\t// in\n    tag_276:\n        /* \"#utility.yul\":2009:2103   */\n      swap2\n      pop\n        /* \"#utility.yul\":1805:2113   */\n      pop\n        /* \"#utility.yul\":1569:2120   */\n      swap3\n      swap2\n      pop\n      pop\n      jump\t// out\n        /* \"#utility.yul\":2126:2203   */\n    tag_185:\n        /* \"#utility.yul\":2163:2170   */\n      0x00\n        /* \"#utility.yul\":2192:2197   */\n      dup2\n        /* \"#utility.yul\":2181:2197   */\n      swap1\n      pop\n        /* \"#utility.yul\":2126:2203   */\n      swap2\n      swap1\n      pop\n      jump\t// out\n        /* \"#utility.yul\":2209:2327   */\n    tag_186:\n        /* \"#utility.yul\":2296:2320   */\n      tag_279\n        /* \"#utility.yul\":2314:2319   */\n      dup2\n        /* \"#utility.yul\":2296:2320   */\n      tag_185\n      jump\t// in\n    tag_279:\n        /* \"#utility.yul\":2291:2294   */\n      dup3\n        /* \"#utility.yul\":2284:2321   */\n      mstore\n        /* \"#utility.yul\":2209:2327   */\n      pop\n      pop\n      jump\t// out\n        /* \"#utility.yul\":2333:2555   */\n    tag_29:\n        /* \"#utility.yul\":2426:2430   */\n      0x00\n        /* \"#utility.yul\":2464:2466   */\n      0x20\n        /* \"#utility.yul\":2453:2462   */\n      dup3\n        /* \"#utility.yul\":2449:2467   */\n      add\n        /* \"#utility.yul\":2441:2467   */\n      swap1\n      pop\n        /* \"#utility.yul\":2477:2548   */\n      tag_281\n        /* \"#utility.yul\":2545:2546   */\n      0x00\n        /* \"#utility.yul\":2534:2543   */\n      dup4\n        /* \"#utility.yul\":2530:2547   */\n      add\n        /* \"#utility.yul\":2521:2527   */\n      dup5\n        /* \"#utility.yul\":2477:2548   */\n      tag_186\n      jump\t// in\n    tag_281:\n        /* \"#utility.yul\":2333:2555   */\n      swap3\n      swap2\n      pop\n      pop\n      jump\t// out\n        /* \"#utility.yul\":2561:2683   */\n    tag_187:\n        /* \"#utility.yul\":2634:2658   */\n      tag_283\n        /* \"#utility.yul\":2652:2657   */\n      dup2\n        /* \"#utility.yul\":2634:2658   */\n      tag_185\n      jump\t// in\n    tag_283:\n        /* \"#utility.yul\":2627:2632   */\n      dup2\n        /* \"#utility.yul\":2624:2659   */\n      eq\n        /* \"#utility.yul\":2614:2677   */\n      tag_284\n      jumpi\n        /* \"#utility.yul\":2673:2674   */\n      0x00\n        /* \"#utility.yul\":2670:2671   */\n      0x00\n        /* \"#utility.yul\":2663:2675   */\n      revert\n        /* \"#utility.yul\":2614:2677   */\n    tag_284:\n        /* \"#utility.yul\":2561:2683   */\n      pop\n      jump\t// out\n        /* \"#utility.yul\":2689:2828   */\n    tag_188:\n        /* \"#utility.yul\":2735:2740   */\n      0x00\n        /* \"#utility.yul\":2773:2779   */\n      dup2\n        /* \"#utility.yul\":2760:2780   */\n      calldataload\n        /* \"#utility.yul\":2751:2780   */\n      swap1\n      pop\n        /* \"#utility.yul\":2789:2822   */\n      tag_286\n        /* \"#utility.yul\":2816:2821   */\n      dup2\n        /* \"#utility.yul\":2789:2822   */\n      tag_187\n      jump\t// in\n    tag_286:\n        /* \"#utility.yul\":2689:2828   */\n      swap3\n      swap2\n      pop\n      pop\n      jump\t// out\n        /* \"#utility.yul\":2834:3453   */\n    tag_33:\n        /* \"#utility.yul\":2911:2917   */\n      0x00\n        /* \"#utility.yul\":2919:2925   */\n      0x00\n        /* \"#utility.yul\":2927:2933   */\n      0x00\n        /* \"#utility.yul\":2976:2978   */\n      0x60\n        /* \"#utility.yul\":2964:2973   */\n      dup5\n        /* \"#utility.yul\":2955:2962   */\n      dup7\n        /* \"#utility.yul\":2951:2974   */\n      sub\n        /* \"#utility.yul\":2947:2979   */\n      slt\n        /* \"#utility.yul\":2944:3063   */\n      iszero\n      tag_288\n      jumpi\n        /* \"#utility.yul\":2982:3061   */\n      tag_289\n      tag_177\n      jump\t// in\n    tag_289:\n        /* \"#utility.yul\":2944:3063   */\n    tag_288:\n        /* \"#utility.yul\":3102:3103   */\n      0x00\n        /* \"#utility.yul\":3127:3180   */\n      tag_290\n        /* \"#utility.yul\":3172:3179   */\n      dup7\n        /* \"#utility.yul\":3163:3169   */\n      dup3\n        /* \"#utility.yul\":3152:3161   */\n      dup8\n        /* \"#utility.yul\":3148:3170   */\n      add\n        /* \"#utility.yul\":3127:3180   */\n      tag_182\n      jump\t// in\n    tag_290:\n        /* \"#utility.yul\":3117:3180   */\n      swap4\n      pop\n        /* \"#utility.yul\":3073:3190   */\n      pop\n        /* \"#utility.yul\":3229:3231   */\n      0x20\n        /* \"#utility.yul\":3255:3308   */\n      tag_291\n        /* \"#utility.yul\":3300:3307   */\n      dup7\n        /* \"#utility.yul\":3291:3297   */\n      dup3\n        /* \"#utility.yul\":3280:3289   */\n      dup8\n        /* \"#utility.yul\":3276:3298   */\n      add\n        /* \"#utility.yul\":3255:3308   */\n      tag_182\n      jump\t// in\n    tag_291:\n        /* \"#utility.yul\":3245:3308   */\n      swap3\n      pop\n        /* \"#utility.yul\":3200:3318   */\n      pop\n        /* \"#utility.yul\":3357:3359   */\n      0x40\n        /* \"#utility.yul\":3383:3436   */\n      tag_292\n        /* \"#utility.yul\":3428:3435   */\n      dup7\n        /* \"#utility.yul\":3419:3425   */\n      dup3\n        /* \"#utility.yul\":3408:3417   */\n      dup8\n        /* \"#utility.yul\":3404:3426   */\n      add\n        /* \"#utility.yul\":3383:3436   */\n      tag_188\n      jump\t// in\n    tag_292:\n        /* \"#utility.yul\":3373:3436   */\n      swap2\n      pop\n        /* \"#utility.yul\":3328:3446   */\n      pop\n        /* \"#utility.yul\":2834:3453   */\n      swap3\n      pop\n      swap3\n      pop\n      swap3\n      jump\t// out\n        /* \"#utility.yul\":3459:3576   */\n    tag_189:\n        /* \"#utility.yul\":3568:3569   */\n      0x00\n        /* \"#utility.yul\":3565:3566   */\n      0x00\n        /* \"#utility.yul\":3558:3570   */\n      revert\n        /* \"#utility.yul\":3582:3699   */\n    tag_190:\n        /* \"#utility.yul\":3691:3692   */\n      0x00\n        /* \"#utility.yul\":3688:3689   */\n      0x00\n        /* \"#utility.yul\":3681:3693   */\n      revert\n        /* \"#utility.yul\":3705:3822   */\n    tag_191:\n        /* \"#utility.yul\":3814:3815   */\n      0x00\n        /* \"#utility.yul\":3811:3812   */\n      0x00\n        /* \"#utility.yul\":3804:3816   */\n      revert\n        /* \"#utility.yul\":3845:4413   */\n    tag_192:\n        /* \"#utility.yul\":3918:3926   */\n      0x00\n        /* \"#utility.yul\":3928:3934   */\n      0x00\n        /* \"#utility.yul\":3978:3981   */\n      dup4\n        /* \"#utility.yul\":3971:3975   */\n      0x1f\n        /* \"#utility.yul\":3963:3969   */\n      dup5\n        /* \"#utility.yul\":3959:3976   */\n      add\n        /* \"#utility.yul\":3955:3982   */\n      slt\n        /* \"#utility.yul\":3945:4067   */\n      tag_297\n      jumpi\n        /* \"#utility.yul\":3986:4065   */\n      tag_298\n      tag_189\n      jump\t// in\n    tag_298:\n        /* \"#utility.yul\":3945:4067   */\n    tag_297:\n        /* \"#utility.yul\":4099:4105   */\n      dup3\n        /* \"#utility.yul\":4086:4106   */\n      calldataload\n        /* \"#utility.yul\":4076:4106   */\n      swap1\n      pop\n        /* \"#utility.yul\":4129:4147   */\n      0xffffffffffffffff\n        /* \"#utility.yul\":4121:4127   */\n      dup2\n        /* \"#utility.yul\":4118:4148   */\n      gt\n        /* \"#utility.yul\":4115:4232   */\n      iszero\n      tag_299\n      jumpi\n        /* \"#utility.yul\":4151:4230   */\n      tag_300\n      tag_190\n      jump\t// in\n    tag_300:\n        /* \"#utility.yul\":4115:4232   */\n    tag_299:\n        /* \"#utility.yul\":4265:4269   */\n      0x20\n        /* \"#utility.yul\":4257:4263   */\n      dup4\n        /* \"#utility.yul\":4253:4270   */\n      add\n        /* \"#utility.yul\":4241:4270   */\n      swap2\n      pop\n        /* \"#utility.yul\":4319:4322   */\n      dup4\n        /* \"#utility.yul\":4311:4315   */\n      0x20\n        /* \"#utility.yul\":4303:4309   */\n      dup3\n        /* \"#utility.yul\":4299:4316   */\n      mul\n        /* \"#utility.yul\":4289:4297   */\n      dup4\n        /* \"#utility.yul\":4285:4317   */\n      add\n        /* \"#utility.yul\":4282:4323   */\n      gt\n        /* \"#utility.yul\":4279:4407   */\n      iszero\n      tag_301\n      jumpi\n        /* \"#utility.yul\":4326:4405   */\n      tag_302\n      tag_191\n      jump\t// in\n    tag_302:\n        /* \"#utility.yul\":4279:4407   */\n    tag_301:\n        /* \"#utility.yul\":3845:4413   */\n      swap3\n      pop\n      swap3\n      swap1\n      pop\n      jump\t// out\n        /* \"#utility.yul\":4436:5004   */\n    tag_193:\n        /* \"#utility.yul\":4509:4517   */\n      0x00\n        /* \"#utility.yul\":4519:4525   */\n      0x00\n        /* \"#utility.yul\":4569:4572   */\n      dup4\n        /* \"#utility.yul\":4562:4566   */\n      0x1f\n        /* \"#utility.yul\":4554:4560   */\n      dup5\n        /* \"#utility.yul\":4550:4567   */\n      add\n        /* \"#utility.yul\":4546:4573   */\n      slt\n        /* \"#utility.yul\":4536:4658   */\n      tag_304\n      jumpi\n        /* \"#utility.yul\":4577:4656   */\n      tag_305\n      tag_189\n      jump\t// in\n    tag_305:\n        /* \"#utility.yul\":4536:4658   */\n    tag_304:\n        /* \"#utility.yul\":4690:4696   */\n      dup3\n        /* \"#utility.yul\":4677:4697   */\n      calldataload\n        /* \"#utility.yul\":4667:4697   */\n      swap1\n      pop\n        /* \"#utility.yul\":4720:4738   */\n      0xffffffffffffffff\n        /* \"#utility.yul\":4712:4718   */\n      dup2\n        /* \"#utility.yul\":4709:4739   */\n      gt\n        /* \"#utility.yul\":4706:4823   */\n      iszero\n      tag_306\n      jumpi\n        /* \"#utility.yul\":4742:4821   */\n      tag_307\n      tag_190\n      jump\t// in\n    tag_307:\n        /* \"#utility.yul\":4706:4823   */\n    tag_306:\n        /* \"#utility.yul\":4856:4860   */\n      0x20\n        /* \"#utility.yul\":4848:4854   */\n      dup4\n        /* \"#utility.yul\":4844:4861   */\n      add\n        /* \"#utility.yul\":4832:4861   */\n      swap2\n      pop\n        /* \"#utility.yul\":4910:4913   */\n      dup4\n        /* \"#utility.yul\":4902:4906   */\n      0x20\n        /* \"#utility.yul\":4894:4900   */\n      dup3\n        /* \"#utility.yul\":4890:4907   */\n      mul\n        /* \"#utility.yul\":4880:4888   */\n      dup4\n        /* \"#utility.yul\":4876:4908   */\n      add\n        /* \"#utility.yul\":4873:4914   */\n      gt\n        /* \"#utility.yul\":4870:4998   */\n      iszero\n      tag_308\n      jumpi\n        /* \"#utility.yul\":4917:4996   */\n      tag_309\n      tag_191\n      jump\t// in\n    tag_309:\n        /* \"#utility.yul\":4870:4998   */\n    tag_308:\n        /* \"#utility.yul\":4436:5004   */\n      swap3\n      pop\n      swap3\n      swap1\n      pop\n      jump\t// out\n        /* \"#utility.yul\":5025:5604   */\n    tag_194:\n        /* \"#utility.yul\":5109:5117   */\n      0x00\n        /* \"#utility.yul\":5119:5125   */\n      0x00\n        /* \"#utility.yul\":5169:5172   */\n      dup4\n        /* \"#utility.yul\":5162:5166   */\n      0x1f\n        /* \"#utility.yul\":5154:5160   */\n      dup5\n        /* \"#utility.yul\":5150:5167   */\n      add\n        /* \"#utility.yul\":5146:5173   */\n      slt\n        /* \"#utility.yul\":5136:5258   */\n      tag_311\n      jumpi\n        /* \"#utility.yul\":5177:5256   */\n      tag_312\n      tag_189\n      jump\t// in\n    tag_312:\n        /* \"#utility.yul\":5136:5258   */\n    tag_311:\n        /* \"#utility.yul\":5290:5296   */\n      dup3\n        /* \"#utility.yul\":5277:5297   */\n      calldataload\n        /* \"#utility.yul\":5267:5297   */\n      swap1\n      pop\n        /* \"#utility.yul\":5320:5338   */\n      0xffffffffffffffff\n        /* \"#utility.yul\":5312:5318   */\n      dup2\n        /* \"#utility.yul\":5309:5339   */\n      gt\n        /* \"#utility.yul\":5306:5423   */\n      iszero\n      tag_313\n      jumpi\n        /* \"#utility.yul\":5342:5421   */\n      tag_314\n      tag_190\n      jump\t// in\n    tag_314:\n        /* \"#utility.yul\":5306:5423   */\n    tag_313:\n        /* \"#utility.yul\":5456:5460   */\n      0x20\n        /* \"#utility.yul\":5448:5454   */\n      dup4\n        /* \"#utility.yul\":5444:5461   */\n      add\n        /* \"#utility.yul\":5432:5461   */\n      swap2\n      pop\n        /* \"#utility.yul\":5510:5513   */\n      dup4\n        /* \"#utility.yul\":5502:5506   */\n      0x20\n        /* \"#utility.yul\":5494:5500   */\n      dup3\n        /* \"#utility.yul\":5490:5507   */\n      mul\n        /* \"#utility.yul\":5480:5488   */\n      dup4\n        /* \"#utility.yul\":5476:5508   */\n      add\n        /* \"#utility.yul\":5473:5514   */\n      gt\n        /* \"#utility.yul\":5470:5598   */\n      iszero\n      tag_315\n      jumpi\n        /* \"#utility.yul\":5517:5596   */\n      tag_316\n      tag_191\n      jump\t// in\n    tag_316:\n        /* \"#utility.yul\":5470:5598   */\n    tag_315:\n        /* \"#utility.yul\":5025:5604   */\n      swap3\n      pop\n      swap3\n      swap1\n      pop\n      jump\t// out\n        /* \"#utility.yul\":5610:6941   */\n    tag_38:\n        /* \"#utility.yul\":5779:5785   */\n      0x00\n        /* \"#utility.yul\":5787:5793   */\n      0x00\n        /* \"#utility.yul\":5795:5801   */\n      0x00\n        /* \"#utility.yul\":5803:5809   */\n      0x00\n        /* \"#utility.yul\":5811:5817   */\n      0x00\n        /* \"#utility.yul\":5819:5825   */\n      0x00\n        /* \"#utility.yul\":5868:5870   */\n      0x60\n        /* \"#utility.yul\":5856:5865   */\n      dup8\n        /* \"#utility.yul\":5847:5854   */\n      dup10\n        /* \"#utility.yul\":5843:5866   */\n      sub\n        /* \"#utility.yul\":5839:5871   */\n      slt\n        /* \"#utility.yul\":5836:5955   */\n      iszero\n      tag_318\n      jumpi\n        /* \"#utility.yul\":5874:5953   */\n      tag_319\n      tag_177\n      jump\t// in\n    tag_319:\n        /* \"#utility.yul\":5836:5955   */\n    tag_318:\n        /* \"#utility.yul\":6022:6023   */\n      0x00\n        /* \"#utility.yul\":6011:6020   */\n      dup8\n        /* \"#utility.yul\":6007:6024   */\n      add\n        /* \"#utility.yul\":5994:6025   */\n      calldataload\n        /* \"#utility.yul\":6052:6070   */\n      0xffffffffffffffff\n        /* \"#utility.yul\":6044:6050   */\n      dup2\n        /* \"#utility.yul\":6041:6071   */\n      gt\n        /* \"#utility.yul\":6038:6155   */\n      iszero\n      tag_320\n      jumpi\n        /* \"#utility.yul\":6074:6153   */\n      tag_321\n      tag_178\n      jump\t// in\n    tag_321:\n        /* \"#utility.yul\":6038:6155   */\n    tag_320:\n        /* \"#utility.yul\":6187:6267   */\n      tag_322\n        /* \"#utility.yul\":6259:6266   */\n      dup10\n        /* \"#utility.yul\":6250:6256   */\n      dup3\n        /* \"#utility.yul\":6239:6248   */\n      dup11\n        /* \"#utility.yul\":6235:6257   */\n      add\n        /* \"#utility.yul\":6187:6267   */\n      tag_192\n      jump\t// in\n    tag_322:\n        /* \"#utility.yul\":6169:6267   */\n      swap7\n      pop\n      swap7\n      pop\n        /* \"#utility.yul\":5965:6277   */\n      pop\n        /* \"#utility.yul\":6344:6346   */\n      0x20\n        /* \"#utility.yul\":6333:6342   */\n      dup8\n        /* \"#utility.yul\":6329:6347   */\n      add\n        /* \"#utility.yul\":6316:6348   */\n      calldataload\n        /* \"#utility.yul\":6375:6393   */\n      0xffffffffffffffff\n        /* \"#utility.yul\":6367:6373   */\n      dup2\n        /* \"#utility.yul\":6364:6394   */\n      gt\n        /* \"#utility.yul\":6361:6478   */\n      iszero\n      tag_323\n      jumpi\n        /* \"#utility.yul\":6397:6476   */\n      tag_324\n      tag_178\n      jump\t// in\n    tag_324:\n        /* \"#utility.yul\":6361:6478   */\n    tag_323:\n        /* \"#utility.yul\":6510:6590   */\n      tag_325\n        /* \"#utility.yul\":6582:6589   */\n      dup10\n        /* \"#utility.yul\":6573:6579   */\n      dup3\n        /* \"#utility.yul\":6562:6571   */\n      dup11\n        /* \"#utility.yul\":6558:6580   */\n      add\n        /* \"#utility.yul\":6510:6590   */\n      tag_193\n      jump\t// in\n    tag_325:\n        /* \"#utility.yul\":6492:6590   */\n      swap5\n      pop\n      swap5\n      pop\n        /* \"#utility.yul\":6287:6600   */\n      pop\n        /* \"#utility.yul\":6667:6669   */\n      0x40\n        /* \"#utility.yul\":6656:6665   */\n      dup8\n        /* \"#utility.yul\":6652:6670   */\n      add\n        /* \"#utility.yul\":6639:6671   */\n      calldataload\n        /* \"#utility.yul\":6698:6716   */\n      0xffffffffffffffff\n        /* \"#utility.yul\":6690:6696   */\n      dup2\n        /* \"#utility.yul\":6687:6717   */\n      gt\n        /* \"#utility.yul\":6684:6801   */\n      iszero\n      tag_326\n      jumpi\n        /* \"#utility.yul\":6720:6799   */\n      tag_327\n      tag_178\n      jump\t// in\n    tag_327:\n        /* \"#utility.yul\":6684:6801   */\n    tag_326:\n        /* \"#utility.yul\":6833:6924   */\n      tag_328\n        /* \"#utility.yul\":6916:6923   */\n      dup10\n        /* \"#utility.yul\":6907:6913   */\n      dup3\n        /* \"#utility.yul\":6896:6905   */\n      dup11\n        /* \"#utility.yul\":6892:6914   */\n      add\n        /* \"#utility.yul\":6833:6924   */\n      tag_194\n      jump\t// in\n    tag_328:\n        /* \"#utility.yul\":6815:6924   */\n      swap3\n      pop\n      swap3\n      pop\n        /* \"#utility.yul\":6610:6934   */\n      pop\n        /* \"#utility.yul\":5610:6941   */\n      swap3\n      swap6\n      pop\n      swap3\n      swap6\n      pop\n      swap3\n      swap6\n      jump\t// out\n        /* \"#utility.yul\":6947:7037   */\n    tag_195:\n        /* \"#utility.yul\":6981:6988   */\n      0x00\n        /* \"#utility.yul\":7024:7029   */\n      dup2\n        /* \"#utility.yul\":7017:7030   */\n      iszero\n        /* \"#utility.yul\":7010:7031   */\n      iszero\n        /* \"#utility.yul\":6999:7031   */\n      swap1\n      pop\n        /* \"#utility.yul\":6947:7037   */\n      swap2\n      swap1\n      pop\n      jump\t// out\n        /* \"#utility.yul\":7043:7152   */\n    tag_196:\n        /* \"#utility.yul\":7124:7145   */\n      tag_331\n        /* \"#utility.yul\":7139:7144   */\n      dup2\n        /* \"#utility.yul\":7124:7145   */\n      tag_195\n      jump\t// in\n    tag_331:\n        /* \"#utility.yul\":7119:7122   */\n      dup3\n        /* \"#utility.yul\":7112:7146   */\n      mstore\n        /* \"#utility.yul\":7043:7152   */\n      pop\n      pop\n      jump\t// out\n        /* \"#utility.yul\":7158:7368   */\n    tag_45:\n        /* \"#utility.yul\":7245:7249   */\n      0x00\n        /* \"#utility.yul\":7283:7285   */\n      0x20\n        /* \"#utility.yul\":7272:7281   */\n      dup3\n        /* \"#utility.yul\":7268:7286   */\n      add\n        /* \"#utility.yul\":7260:7286   */\n      swap1\n      pop\n        /* \"#utility.yul\":7296:7361   */\n      tag_333\n        /* \"#utility.yul\":7358:7359   */\n      0x00\n        /* \"#utility.yul\":7347:7356   */\n      dup4\n        /* \"#utility.yul\":7343:7360   */\n      add\n        /* \"#utility.yul\":7334:7340   */\n      dup5\n        /* \"#utility.yul\":7296:7361   */\n      tag_196\n      jump\t// in\n    tag_333:\n        /* \"#utility.yul\":7158:7368   */\n      swap3\n      swap2\n      pop\n      pop\n      jump\t// out\n        /* \"#utility.yul\":7374:7492   */\n    tag_197:\n        /* \"#utility.yul\":7461:7485   */\n      tag_335\n        /* \"#utility.yul\":7479:7484   */\n      dup2\n        /* \"#utility.yul\":7461:7485   */\n      tag_180\n      jump\t// in\n    tag_335:\n        /* \"#utility.yul\":7456:7459   */\n      dup3\n        /* \"#utility.yul\":7449:7486   */\n      mstore\n        /* \"#utility.yul\":7374:7492   */\n      pop\n      pop\n      jump\t// out\n        /* \"#utility.yul\":7498:7720   */\n    tag_50:\n        /* \"#utility.yul\":7591:7595   */\n      0x00\n        /* \"#utility.yul\":7629:7631   */\n      0x20\n        /* \"#utility.yul\":7618:7627   */\n      dup3\n        /* \"#utility.yul\":7614:7632   */\n      add\n        /* \"#utility.yul\":7606:7632   */\n      swap1\n      pop\n        /* \"#utility.yul\":7642:7713   */\n      tag_337\n        /* \"#utility.yul\":7710:7711   */\n      0x00\n        /* \"#utility.yul\":7699:7708   */\n      dup4\n        /* \"#utility.yul\":7695:7712   */\n      add\n        /* \"#utility.yul\":7686:7692   */\n      dup5\n        /* \"#utility.yul\":7642:7713   */\n      tag_197\n      jump\t// in\n    tag_337:\n        /* \"#utility.yul\":7498:7720   */\n      swap3\n      swap2\n      pop\n      pop\n      jump\t// out\n        /* \"#utility.yul\":7739:8291   */\n    tag_198:\n        /* \"#utility.yul\":7796:7804   */\n      0x00\n        /* \"#utility.yul\":7806:7812   */\n      0x00\n        /* \"#utility.yul\":7856:7859   */\n      dup4\n        /* \"#utility.yul\":7849:7853   */\n      0x1f\n        /* \"#utility.yul\":7841:7847   */\n      dup5\n        /* \"#utility.yul\":7837:7854   */\n      add\n        /* \"#utility.yul\":7833:7860   */\n      slt\n        /* \"#utility.yul\":7823:7945   */\n      tag_339\n      jumpi\n        /* \"#utility.yul\":7864:7943   */\n      tag_340\n      tag_189\n      jump\t// in\n    tag_340:\n        /* \"#utility.yul\":7823:7945   */\n    tag_339:\n        /* \"#utility.yul\":7977:7983   */\n      dup3\n        /* \"#utility.yul\":7964:7984   */\n      calldataload\n        /* \"#utility.yul\":7954:7984   */\n      swap1\n      pop\n        /* \"#utility.yul\":8007:8025   */\n      0xffffffffffffffff\n        /* \"#utility.yul\":7999:8005   */\n      dup2\n        /* \"#utility.yul\":7996:8026   */\n      gt\n        /* \"#utility.yul\":7993:8110   */\n      iszero\n      tag_341\n      jumpi\n        /* \"#utility.yul\":8029:8108   */\n      tag_342\n      tag_190\n      jump\t// in\n    tag_342:\n        /* \"#utility.yul\":7993:8110   */\n    tag_341:\n        /* \"#utility.yul\":8143:8147   */\n      0x20\n        /* \"#utility.yul\":8135:8141   */\n      dup4\n        /* \"#utility.yul\":8131:8148   */\n      add\n        /* \"#utility.yul\":8119:8148   */\n      swap2\n      pop\n        /* \"#utility.yul\":8197:8200   */\n      dup4\n        /* \"#utility.yul\":8189:8193   */\n      0x01\n        /* \"#utility.yul\":8181:8187   */\n      dup3\n        /* \"#utility.yul\":8177:8194   */\n      mul\n        /* \"#utility.yul\":8167:8175   */\n      dup4\n        /* \"#utility.yul\":8163:8195   */\n      add\n        /* \"#utility.yul\":8160:8201   */\n      gt\n        /* \"#utility.yul\":8157:8285   */\n      iszero\n      tag_343\n      jumpi\n        /* \"#utility.yul\":8204:8283   */\n      tag_344\n      tag_191\n      jump\t// in\n    tag_344:\n        /* \"#utility.yul\":8157:8285   */\n    tag_343:\n        /* \"#utility.yul\":7739:8291   */\n      swap3\n      pop\n      swap3\n      swap1\n      pop\n      jump\t// out\n        /* \"#utility.yul\":8297:9114   */\n    tag_62:\n        /* \"#utility.yul\":8385:8391   */\n      0x00\n        /* \"#utility.yul\":8393:8399   */\n      0x00\n        /* \"#utility.yul\":8401:8407   */\n      0x00\n        /* \"#utility.yul\":8409:8415   */\n      0x00\n        /* \"#utility.yul\":8458:8460   */\n      0x60\n        /* \"#utility.yul\":8446:8455   */\n      dup6\n        /* \"#utility.yul\":8437:8444   */\n      dup8\n        /* \"#utility.yul\":8433:8456   */\n      sub\n        /* \"#utility.yul\":8429:8461   */\n      slt\n        /* \"#utility.yul\":8426:8545   */\n      iszero\n      tag_346\n      jumpi\n        /* \"#utility.yul\":8464:8543   */\n      tag_347\n      tag_177\n      jump\t// in\n    tag_347:\n        /* \"#utility.yul\":8426:8545   */\n    tag_346:\n        /* \"#utility.yul\":8584:8585   */\n      0x00\n        /* \"#utility.yul\":8609:8662   */\n      tag_348\n        /* \"#utility.yul\":8654:8661   */\n      dup8\n        /* \"#utility.yul\":8645:8651   */\n      dup3\n        /* \"#utility.yul\":8634:8643   */\n      dup9\n        /* \"#utility.yul\":8630:8652   */\n      add\n        /* \"#utility.yul\":8609:8662   */\n      tag_182\n      jump\t// in\n    tag_348:\n        /* \"#utility.yul\":8599:8662   */\n      swap5\n      pop\n        /* \"#utility.yul\":8555:8672   */\n      pop\n        /* \"#utility.yul\":8711:8713   */\n      0x20\n        /* \"#utility.yul\":8737:8790   */\n      tag_349\n        /* \"#utility.yul\":8782:8789   */\n      dup8\n        /* \"#utility.yul\":8773:8779   */\n      dup3\n        /* \"#utility.yul\":8762:8771   */\n      dup9\n        /* \"#utility.yul\":8758:8780   */\n      add\n        /* \"#utility.yul\":8737:8790   */\n      tag_188\n      jump\t// in\n    tag_349:\n        /* \"#utility.yul\":8727:8790   */\n      swap4\n      pop\n        /* \"#utility.yul\":8682:8800   */\n      pop\n        /* \"#utility.yul\":8867:8869   */\n      0x40\n        /* \"#utility.yul\":8856:8865   */\n      dup6\n        /* \"#utility.yul\":8852:8870   */\n      add\n        /* \"#utility.yul\":8839:8871   */\n      calldataload\n        /* \"#utility.yul\":8898:8916   */\n      0xffffffffffffffff\n        /* \"#utility.yul\":8890:8896   */\n      dup2\n        /* \"#utility.yul\":8887:8917   */\n      gt\n        /* \"#utility.yul\":8884:9001   */\n      iszero\n      tag_350\n      jumpi\n        /* \"#utility.yul\":8920:8999   */\n      tag_351\n      tag_178\n      jump\t// in\n    tag_351:\n        /* \"#utility.yul\":8884:9001   */\n    tag_350:\n        /* \"#utility.yul\":9033:9097   */\n      tag_352\n        /* \"#utility.yul\":9089:9096   */\n      dup8\n        /* \"#utility.yul\":9080:9086   */\n      dup3\n        /* \"#utility.yul\":9069:9078   */\n      dup9\n        /* \"#utility.yul\":9065:9087   */\n      add\n        /* \"#utility.yul\":9033:9097   */\n      tag_198\n      jump\t// in\n    tag_352:\n        /* \"#utility.yul\":9015:9097   */\n      swap3\n      pop\n      swap3\n      pop\n        /* \"#utility.yul\":8810:9107   */\n      pop\n        /* \"#utility.yul\":8297:9114   */\n      swap3\n      swap6\n      swap2\n      swap5\n      pop\n      swap3\n      pop\n      jump\t// out\n        /* \"#utility.yul\":9120:9289   */\n    tag_199:\n        /* \"#utility.yul\":9204:9215   */\n      0x00\n        /* \"#utility.yul\":9238:9244   */\n      dup3\n        /* \"#utility.yul\":9233:9236   */\n      dup3\n        /* \"#utility.yul\":9226:9245   */\n      mstore\n        /* \"#utility.yul\":9278:9282   */\n      0x20\n        /* \"#utility.yul\":9273:9276   */\n      dup3\n        /* \"#utility.yul\":9269:9283   */\n      add\n        /* \"#utility.yul\":9254:9283   */\n      swap1\n      pop\n        /* \"#utility.yul\":9120:9289   */\n      swap3\n      swap2\n      pop\n      pop\n      jump\t// out\n        /* \"#utility.yul\":9295:9536   */\n    tag_200:\n        /* \"#utility.yul\":9435:9469   */\n      0x4f6e6c7920746865206f776e65722063616e2072656d6f7665207369676e6572\n        /* \"#utility.yul\":9431:9432   */\n      0x00\n        /* \"#utility.yul\":9423:9429   */\n      dup3\n        /* \"#utility.yul\":9419:9433   */\n      add\n        /* \"#utility.yul\":9412:9470   */\n      mstore\n        /* \"#utility.yul\":9504:9528   */\n      0x732e204d7920686f7573652c206d792072756c65732e00000000000000000000\n        /* \"#utility.yul\":9499:9501   */\n      0x20\n        /* \"#utility.yul\":9491:9497   */\n      dup3\n        /* \"#utility.yul\":9487:9502   */\n      add\n        /* \"#utility.yul\":9480:9529   */\n      mstore\n        /* \"#utility.yul\":9295:9536   */\n      pop\n      jump\t// out\n        /* \"#utility.yul\":9542:9908   */\n    tag_201:\n        /* \"#utility.yul\":9684:9687   */\n      0x00\n        /* \"#utility.yul\":9705:9772   */\n      tag_356\n        /* \"#utility.yul\":9769:9771   */\n      0x36\n        /* \"#utility.yul\":9764:9767   */\n      dup4\n        /* \"#utility.yul\":9705:9772   */\n      tag_199\n      jump\t// in\n    tag_356:\n        /* \"#utility.yul\":9698:9772   */\n      swap2\n      pop\n        /* \"#utility.yul\":9781:9874   */\n      tag_357\n        /* \"#utility.yul\":9870:9873   */\n      dup3\n        /* \"#utility.yul\":9781:9874   */\n      tag_200\n      jump\t// in\n    tag_357:\n        /* \"#utility.yul\":9899:9901   */\n      0x40\n        /* \"#utility.yul\":9894:9897   */\n      dup3\n        /* \"#utility.yul\":9890:9902   */\n      add\n        /* \"#utility.yul\":9883:9902   */\n      swap1\n      pop\n        /* \"#utility.yul\":9542:9908   */\n      swap2\n      swap1\n      pop\n      jump\t// out\n        /* \"#utility.yul\":9914:10333   */\n    tag_71:\n        /* \"#utility.yul\":10080:10084   */\n      0x00\n        /* \"#utility.yul\":10118:10120   */\n      0x20\n        /* \"#utility.yul\":10107:10116   */\n      dup3\n        /* \"#utility.yul\":10103:10121   */\n      add\n        /* \"#utility.yul\":10095:10121   */\n      swap1\n      pop\n        /* \"#utility.yul\":10167:10176   */\n      dup2\n        /* \"#utility.yul\":10161:10165   */\n      dup2\n        /* \"#utility.yul\":10157:10177   */\n      sub\n        /* \"#utility.yul\":10153:10154   */\n      0x00\n        /* \"#utility.yul\":10142:10151   */\n      dup4\n        /* \"#utility.yul\":10138:10155   */\n      add\n        /* \"#utility.yul\":10131:10178   */\n      mstore\n        /* \"#utility.yul\":10195:10326   */\n      tag_359\n        /* \"#utility.yul\":10321:10325   */\n      dup2\n        /* \"#utility.yul\":10195:10326   */\n      tag_201\n      jump\t// in\n    tag_359:\n        /* \"#utility.yul\":10187:10326   */\n      swap1\n      pop\n        /* \"#utility.yul\":9914:10333   */\n      swap2\n      swap1\n      pop\n      jump\t// out\n        /* \"#utility.yul\":10339:10588   */\n    tag_202:\n        /* \"#utility.yul\":10479:10513   */\n      0x43616e27742072656d6f766520746865206f776e65722061732061207369676e\n        /* \"#utility.yul\":10475:10476   */\n      0x00\n        /* \"#utility.yul\":10467:10473   */\n      dup3\n        /* \"#utility.yul\":10463:10477   */\n      add\n        /* \"#utility.yul\":10456:10514   */\n      mstore\n        /* \"#utility.yul\":10548:10580   */\n      0x65722e20546861742773206a7573742073656c662d7361626f746167652e0000\n        /* \"#utility.yul\":10543:10545   */\n      0x20\n        /* \"#utility.yul\":10535:10541   */\n      dup3\n        /* \"#utility.yul\":10531:10546   */\n      add\n        /* \"#utility.yul\":10524:10581   */\n      mstore\n        /* \"#utility.yul\":10339:10588   */\n      pop\n      jump\t// out\n        /* \"#utility.yul\":10594:10960   */\n    tag_203:\n        /* \"#utility.yul\":10736:10739   */\n      0x00\n        /* \"#utility.yul\":10757:10824   */\n      tag_362\n        /* \"#utility.yul\":10821:10823   */\n      0x3e\n        /* \"#utility.yul\":10816:10819   */\n      dup4\n        /* \"#utility.yul\":10757:10824   */\n      tag_199\n      jump\t// in\n    tag_362:\n        /* \"#utility.yul\":10750:10824   */\n      swap2\n      pop\n        /* \"#utility.yul\":10833:10926   */\n      tag_363\n        /* \"#utility.yul\":10922:10925   */\n      dup3\n        /* \"#utility.yul\":10833:10926   */\n      tag_202\n      jump\t// in\n    tag_363:\n        /* \"#utility.yul\":10951:10953   */\n      0x40\n        /* \"#utility.yul\":10946:10949   */\n      dup3\n        /* \"#utility.yul\":10942:10954   */\n      add\n        /* \"#utility.yul\":10935:10954   */\n      swap1\n      pop\n        /* \"#utility.yul\":10594:10960   */\n      swap2\n      swap1\n      pop\n      jump\t// out\n        /* \"#utility.yul\":10966:11385   */\n    tag_74:\n        /* \"#utility.yul\":11132:11136   */\n      0x00\n        /* \"#utility.yul\":11170:11172   */\n      0x20\n        /* \"#utility.yul\":11159:11168   */\n      dup3\n        /* \"#utility.yul\":11155:11173   */\n      add\n        /* \"#utility.yul\":11147:11173   */\n      swap1\n      pop\n        /* \"#utility.yul\":11219:11228   */\n      dup2\n        /* \"#utility.yul\":11213:11217   */\n      dup2\n        /* \"#utility.yul\":11209:11229   */\n      sub\n        /* \"#utility.yul\":11205:11206   */\n      0x00\n        /* \"#utility.yul\":11194:11203   */\n      dup4\n        /* \"#utility.yul\":11190:11207   */\n      add\n        /* \"#utility.yul\":11183:11230   */\n      mstore\n        /* \"#utility.yul\":11247:11378   */\n      tag_365\n        /* \"#utility.yul\":11373:11377   */\n      dup2\n        /* \"#utility.yul\":11247:11378   */\n      tag_203\n      jump\t// in\n    tag_365:\n        /* \"#utility.yul\":11239:11378   */\n      swap1\n      pop\n        /* \"#utility.yul\":10966:11385   */\n      swap2\n      swap1\n      pop\n      jump\t// out\n        /* \"#utility.yul\":11391:11631   */\n    tag_204:\n        /* \"#utility.yul\":11531:11565   */\n      0x5468697320616464726573732069736e27742061207369676e65722e20576861\n        /* \"#utility.yul\":11527:11528   */\n      0x00\n        /* \"#utility.yul\":11519:11525   */\n      dup3\n        /* \"#utility.yul\":11515:11529   */\n      add\n        /* \"#utility.yul\":11508:11566   */\n      mstore\n        /* \"#utility.yul\":11600:11623   */\n      0x742061726520796f75206576656e20646f696e673f0000000000000000000000\n        /* \"#utility.yul\":11595:11597   */\n      0x20\n        /* \"#utility.yul\":11587:11593   */\n      dup3\n        /* \"#utility.yul\":11583:11598   */\n      add\n        /* \"#utility.yul\":11576:11624   */\n      mstore\n        /* \"#utility.yul\":11391:11631   */\n      pop\n      jump\t// out\n        /* \"#utility.yul\":11637:12003   */\n    tag_205:\n        /* \"#utility.yul\":11779:11782   */\n      0x00\n        /* \"#utility.yul\":11800:11867   */\n      tag_368\n        /* \"#utility.yul\":11864:11866   */\n      0x35\n        /* \"#utility.yul\":11859:11862   */\n      dup4\n        /* \"#utility.yul\":11800:11867   */\n      tag_199\n      jump\t// in\n    tag_368:\n        /* \"#utility.yul\":11793:11867   */\n      swap2\n      pop\n        /* \"#utility.yul\":11876:11969   */\n      tag_369\n        /* \"#utility.yul\":11965:11968   */\n      dup3\n        /* \"#utility.yul\":11876:11969   */\n      tag_204\n      jump\t// in\n    tag_369:\n        /* \"#utility.yul\":11994:11996   */\n      0x40\n        /* \"#utility.yul\":11989:11992   */\n      dup3\n        /* \"#utility.yul\":11985:11997   */\n      add\n        /* \"#utility.yul\":11978:11997   */\n      swap1\n      pop\n        /* \"#utility.yul\":11637:12003   */\n      swap2\n      swap1\n      pop\n      jump\t// out\n        /* \"#utility.yul\":12009:12428   */\n    tag_77:\n        /* \"#utility.yul\":12175:12179   */\n      0x00\n        /* \"#utility.yul\":12213:12215   */\n      0x20\n        /* \"#utility.yul\":12202:12211   */\n      dup3\n        /* \"#utility.yul\":12198:12216   */\n      add\n        /* \"#utility.yul\":12190:12216   */\n      swap1\n      pop\n        /* \"#utility.yul\":12262:12271   */\n      dup2\n        /* \"#utility.yul\":12256:12260   */\n      dup2\n        /* \"#utility.yul\":12252:12272   */\n      sub\n        /* \"#utility.yul\":12248:12249   */\n      0x00\n        /* \"#utility.yul\":12237:12246   */\n      dup4\n        /* \"#utility.yul\":12233:12250   */\n      add\n        /* \"#utility.yul\":12226:12273   */\n      mstore\n        /* \"#utility.yul\":12290:12421   */\n      tag_371\n        /* \"#utility.yul\":12416:12420   */\n      dup2\n        /* \"#utility.yul\":12290:12421   */\n      tag_205\n      jump\t// in\n    tag_371:\n        /* \"#utility.yul\":12282:12421   */\n      swap1\n      pop\n        /* \"#utility.yul\":12009:12428   */\n      swap2\n      swap1\n      pop\n      jump\t// out\n        /* \"#utility.yul\":12434:12669   */\n    tag_206:\n        /* \"#utility.yul\":12574:12608   */\n      0x56616c69646174696f6e2063616e206f6e6c792062652063616c6c6564206279\n        /* \"#utility.yul\":12570:12571   */\n      0x00\n        /* \"#utility.yul\":12562:12568   */\n      dup3\n        /* \"#utility.yul\":12558:12572   */\n      add\n        /* \"#utility.yul\":12551:12609   */\n      mstore\n        /* \"#utility.yul\":12643:12661   */\n      0x2074686520456e747279506f696e742e00000000000000000000000000000000\n        /* \"#utility.yul\":12638:12640   */\n      0x20\n        /* \"#utility.yul\":12630:12636   */\n      dup3\n        /* \"#utility.yul\":12626:12641   */\n      add\n        /* \"#utility.yul\":12619:12662   */\n      mstore\n        /* \"#utility.yul\":12434:12669   */\n      pop\n      jump\t// out\n        /* \"#utility.yul\":12675:13041   */\n    tag_207:\n        /* \"#utility.yul\":12817:12820   */\n      0x00\n        /* \"#utility.yul\":12838:12905   */\n      tag_374\n        /* \"#utility.yul\":12902:12904   */\n      0x30\n        /* \"#utility.yul\":12897:12900   */\n      dup4\n        /* \"#utility.yul\":12838:12905   */\n      tag_199\n      jump\t// in\n    tag_374:\n        /* \"#utility.yul\":12831:12905   */\n      swap2\n      pop\n        /* \"#utility.yul\":12914:13007   */\n      tag_375\n        /* \"#utility.yul\":13003:13006   */\n      dup3\n        /* \"#utility.yul\":12914:13007   */\n      tag_206\n      jump\t// in\n    tag_375:\n        /* \"#utility.yul\":13032:13034   */\n      0x40\n        /* \"#utility.yul\":13027:13030   */\n      dup3\n        /* \"#utility.yul\":13023:13035   */\n      add\n        /* \"#utility.yul\":13016:13035   */\n      swap1\n      pop\n        /* \"#utility.yul\":12675:13041   */\n      swap2\n      swap1\n      pop\n      jump\t// out\n        /* \"#utility.yul\":13047:13466   */\n    tag_81:\n        /* \"#utility.yul\":13213:13217   */\n      0x00\n        /* \"#utility.yul\":13251:13253   */\n      0x20\n        /* \"#utility.yul\":13240:13249   */\n      dup3\n        /* \"#utility.yul\":13236:13254   */\n      add\n        /* \"#utility.yul\":13228:13254   */\n      swap1\n      pop\n        /* \"#utility.yul\":13300:13309   */\n      dup2\n        /* \"#utility.yul\":13294:13298   */\n      dup2\n        /* \"#utility.yul\":13290:13310   */\n      sub\n        /* \"#utility.yul\":13286:13287   */\n      0x00\n        /* \"#utility.yul\":13275:13284   */\n      dup4\n        /* \"#utility.yul\":13271:13288   */\n      add\n        /* \"#utility.yul\":13264:13311   */\n      mstore\n        /* \"#utility.yul\":13328:13459   */\n      tag_377\n        /* \"#utility.yul\":13454:13458   */\n      dup2\n        /* \"#utility.yul\":13328:13459   */\n      tag_207\n      jump\t// in\n    tag_377:\n        /* \"#utility.yul\":13320:13459   */\n      swap1\n      pop\n        /* \"#utility.yul\":13047:13466   */\n      swap2\n      swap1\n      pop\n      jump\t// out\n        /* \"#utility.yul\":13472:13714   */\n    tag_208:\n        /* \"#utility.yul\":13612:13646   */\n      0x496e76616c6964206e6f6e63652e205468697320557365724f70206973206f6c\n        /* \"#utility.yul\":13608:13609   */\n      0x00\n        /* \"#utility.yul\":13600:13606   */\n      dup3\n        /* \"#utility.yul\":13596:13610   */\n      add\n        /* \"#utility.yul\":13589:13647   */\n      mstore\n        /* \"#utility.yul\":13681:13706   */\n      0x64206e657773206f72206f7574206f66206f726465722e000000000000000000\n        /* \"#utility.yul\":13676:13678   */\n      0x20\n        /* \"#utility.yul\":13668:13674   */\n      dup3\n        /* \"#utility.yul\":13664:13679   */\n      add\n        /* \"#utility.yul\":13657:13707   */\n      mstore\n        /* \"#utility.yul\":13472:13714   */\n      pop\n      jump\t// out\n        /* \"#utility.yul\":13720:14086   */\n    tag_209:\n        /* \"#utility.yul\":13862:13865   */\n      0x00\n        /* \"#utility.yul\":13883:13950   */\n      tag_380\n        /* \"#utility.yul\":13947:13949   */\n      0x37\n        /* \"#utility.yul\":13942:13945   */\n      dup4\n        /* \"#utility.yul\":13883:13950   */\n      tag_199\n      jump\t// in\n    tag_380:\n        /* \"#utility.yul\":13876:13950   */\n      swap2\n      pop\n        /* \"#utility.yul\":13959:14052   */\n      tag_381\n        /* \"#utility.yul\":14048:14051   */\n      dup3\n        /* \"#utility.yul\":13959:14052   */\n      tag_208\n      jump\t// in\n    tag_381:\n        /* \"#utility.yul\":14077:14079   */\n      0x40\n        /* \"#utility.yul\":14072:14075   */\n      dup3\n        /* \"#utility.yul\":14068:14080   */\n      add\n        /* \"#utility.yul\":14061:14080   */\n      swap1\n      pop\n        /* \"#utility.yul\":13720:14086   */\n      swap2\n      swap1\n      pop\n      jump\t// out\n        /* \"#utility.yul\":14092:14511   */\n    tag_84:\n        /* \"#utility.yul\":14258:14262   */\n      0x00\n        /* \"#utility.yul\":14296:14298   */\n      0x20\n        /* \"#utility.yul\":14285:14294   */\n      dup3\n        /* \"#utility.yul\":14281:14299   */\n      add\n        /* \"#utility.yul\":14273:14299   */\n      swap1\n      pop\n        /* \"#utility.yul\":14345:14354   */\n      dup2\n        /* \"#utility.yul\":14339:14343   */\n      dup2\n        /* \"#utility.yul\":14335:14355   */\n      sub\n        /* \"#utility.yul\":14331:14332   */\n      0x00\n        /* \"#utility.yul\":14320:14329   */\n      dup4\n        /* \"#utility.yul\":14316:14333   */\n      add\n        /* \"#utility.yul\":14309:14356   */\n      mstore\n        /* \"#utility.yul\":14373:14504   */\n      tag_383\n        /* \"#utility.yul\":14499:14503   */\n      dup2\n        /* \"#utility.yul\":14373:14504   */\n      tag_209\n      jump\t// in\n    tag_383:\n        /* \"#utility.yul\":14365:14504   */\n      swap1\n      pop\n        /* \"#utility.yul\":14092:14511   */\n      swap2\n      swap1\n      pop\n      jump\t// out\n        /* \"#utility.yul\":14517:14634   */\n    tag_210:\n        /* \"#utility.yul\":14626:14627   */\n      0x00\n        /* \"#utility.yul\":14623:14624   */\n      0x00\n        /* \"#utility.yul\":14616:14628   */\n      revert\n        /* \"#utility.yul\":14640:14757   */\n    tag_211:\n        /* \"#utility.yul\":14749:14750   */\n      0x00\n        /* \"#utility.yul\":14746:14747   */\n      0x00\n        /* \"#utility.yul\":14739:14751   */\n      revert\n        /* \"#utility.yul\":14763:14880   */\n    tag_212:\n        /* \"#utility.yul\":14872:14873   */\n      0x00\n        /* \"#utility.yul\":14869:14870   */\n      0x00\n        /* \"#utility.yul\":14862:14874   */\n      revert\n        /* \"#utility.yul\":14886:15610   */\n    tag_86:\n        /* \"#utility.yul\":14963:14967   */\n      0x00\n        /* \"#utility.yul\":14969:14975   */\n      0x00\n        /* \"#utility.yul\":15025:15036   */\n      dup4\n        /* \"#utility.yul\":15012:15037   */\n      calldataload\n        /* \"#utility.yul\":15125:15126   */\n      0x01\n        /* \"#utility.yul\":15119:15123   */\n      0x20\n        /* \"#utility.yul\":15115:15127   */\n      sub\n        /* \"#utility.yul\":15104:15112   */\n      dup5\n        /* \"#utility.yul\":15088:15102   */\n      calldatasize\n        /* \"#utility.yul\":15084:15113   */\n      sub\n        /* \"#utility.yul\":15080:15128   */\n      sub\n        /* \"#utility.yul\":15060:15078   */\n      dup2\n        /* \"#utility.yul\":15056:15129   */\n      slt\n        /* \"#utility.yul\":15046:15214   */\n      tag_388\n      jumpi\n        /* \"#utility.yul\":15133:15212   */\n      tag_389\n      tag_210\n      jump\t// in\n    tag_389:\n        /* \"#utility.yul\":15046:15214   */\n    tag_388:\n        /* \"#utility.yul\":15245:15263   */\n      dup1\n        /* \"#utility.yul\":15235:15243   */\n      dup5\n        /* \"#utility.yul\":15231:15264   */\n      add\n        /* \"#utility.yul\":15223:15264   */\n      swap3\n      pop\n        /* \"#utility.yul\":15297:15301   */\n      dup3\n        /* \"#utility.yul\":15284:15302   */\n      calldataload\n        /* \"#utility.yul\":15274:15302   */\n      swap2\n      pop\n        /* \"#utility.yul\":15325:15343   */\n      0xffffffffffffffff\n        /* \"#utility.yul\":15317:15323   */\n      dup3\n        /* \"#utility.yul\":15314:15344   */\n      gt\n        /* \"#utility.yul\":15311:15428   */\n      iszero\n      tag_390\n      jumpi\n        /* \"#utility.yul\":15347:15426   */\n      tag_391\n      tag_211\n      jump\t// in\n    tag_391:\n        /* \"#utility.yul\":15311:15428   */\n    tag_390:\n        /* \"#utility.yul\":15455:15457   */\n      0x20\n        /* \"#utility.yul\":15449:15453   */\n      dup4\n        /* \"#utility.yul\":15445:15458   */\n      add\n        /* \"#utility.yul\":15437:15458   */\n      swap3\n      pop\n        /* \"#utility.yul\":15512:15516   */\n      0x01\n        /* \"#utility.yul\":15504:15510   */\n      dup3\n        /* \"#utility.yul\":15500:15517   */\n      mul\n        /* \"#utility.yul\":15484:15498   */\n      calldatasize\n        /* \"#utility.yul\":15480:15518   */\n      sub\n        /* \"#utility.yul\":15474:15478   */\n      dup4\n        /* \"#utility.yul\":15470:15519   */\n      sgt\n        /* \"#utility.yul\":15467:15603   */\n      iszero\n      tag_392\n      jumpi\n        /* \"#utility.yul\":15522:15601   */\n      tag_393\n      tag_212\n      jump\t// in\n    tag_393:\n        /* \"#utility.yul\":15467:15603   */\n    tag_392:\n        /* \"#utility.yul\":14976:15610   */\n      pop\n        /* \"#utility.yul\":14886:15610   */\n      swap3\n      pop\n      swap3\n      swap1\n      pop\n      jump\t// out\n        /* \"#utility.yul\":15616:15797   */\n    tag_213:\n        /* \"#utility.yul\":15756:15789   */\n      0x5369676e617475726520746f6f2073686f72742e204c6f6f6b73207375732e00\n        /* \"#utility.yul\":15752:15753   */\n      0x00\n        /* \"#utility.yul\":15744:15750   */\n      dup3\n        /* \"#utility.yul\":15740:15754   */\n      add\n        /* \"#utility.yul\":15733:15790   */\n      mstore\n        /* \"#utility.yul\":15616:15797   */\n      pop\n      jump\t// out\n        /* \"#utility.yul\":15803:16169   */\n    tag_214:\n        /* \"#utility.yul\":15945:15948   */\n      0x00\n        /* \"#utility.yul\":15966:16033   */\n      tag_396\n        /* \"#utility.yul\":16030:16032   */\n      0x1f\n        /* \"#utility.yul\":16025:16028   */\n      dup4\n        /* \"#utility.yul\":15966:16033   */\n      tag_199\n      jump\t// in\n    tag_396:\n        /* \"#utility.yul\":15959:16033   */\n      swap2\n      pop\n        /* \"#utility.yul\":16042:16135   */\n      tag_397\n        /* \"#utility.yul\":16131:16134   */\n      dup3\n        /* \"#utility.yul\":16042:16135   */\n      tag_213\n      jump\t// in\n    tag_397:\n        /* \"#utility.yul\":16160:16162   */\n      0x20\n        /* \"#utility.yul\":16155:16158   */\n      dup3\n        /* \"#utility.yul\":16151:16163   */\n      add\n        /* \"#utility.yul\":16144:16163   */\n      swap1\n      pop\n        /* \"#utility.yul\":15803:16169   */\n      swap2\n      swap1\n      pop\n      jump\t// out\n        /* \"#utility.yul\":16175:16594   */\n    tag_89:\n        /* \"#utility.yul\":16341:16345   */\n      0x00\n        /* \"#utility.yul\":16379:16381   */\n      0x20\n        /* \"#utility.yul\":16368:16377   */\n      dup3\n        /* \"#utility.yul\":16364:16382   */\n      add\n        /* \"#utility.yul\":16356:16382   */\n      swap1\n      pop\n        /* \"#utility.yul\":16428:16437   */\n      dup2\n        /* \"#utility.yul\":16422:16426   */\n      dup2\n        /* \"#utility.yul\":16418:16438   */\n      sub\n        /* \"#utility.yul\":16414:16415   */\n      0x00\n        /* \"#utility.yul\":16403:16412   */\n      dup4\n        /* \"#utility.yul\":16399:16416   */\n      add\n        /* \"#utility.yul\":16392:16439   */\n      mstore\n        /* \"#utility.yul\":16456:16587   */\n      tag_399\n        /* \"#utility.yul\":16582:16586   */\n      dup2\n        /* \"#utility.yul\":16456:16587   */\n      tag_214\n      jump\t// in\n    tag_399:\n        /* \"#utility.yul\":16448:16587   */\n      swap1\n      pop\n        /* \"#utility.yul\":16175:16594   */\n      swap2\n      swap1\n      pop\n      jump\t// out\n        /* \"#utility.yul\":16600:16840   */\n    tag_215:\n        /* \"#utility.yul\":16740:16774   */\n      0x5369676e6174757265206e6f742066726f6d20616e20617574686f72697a6564\n        /* \"#utility.yul\":16736:16737   */\n      0x00\n        /* \"#utility.yul\":16728:16734   */\n      dup3\n        /* \"#utility.yul\":16724:16738   */\n      add\n        /* \"#utility.yul\":16717:16775   */\n      mstore\n        /* \"#utility.yul\":16809:16832   */\n      0x207369676e65722e2057686f2061726520796f753f0000000000000000000000\n        /* \"#utility.yul\":16804:16806   */\n      0x20\n        /* \"#utility.yul\":16796:16802   */\n      dup3\n        /* \"#utility.yul\":16792:16807   */\n      add\n        /* \"#utility.yul\":16785:16833   */\n      mstore\n        /* \"#utility.yul\":16600:16840   */\n      pop\n      jump\t// out\n        /* \"#utility.yul\":16846:17212   */\n    tag_216:\n        /* \"#utility.yul\":16988:16991   */\n      0x00\n        /* \"#utility.yul\":17009:17076   */\n      tag_402\n        /* \"#utility.yul\":17073:17075   */\n      0x35\n        /* \"#utility.yul\":17068:17071   */\n      dup4\n        /* \"#utility.yul\":17009:17076   */\n      tag_199\n      jump\t// in\n    tag_402:\n        /* \"#utility.yul\":17002:17076   */\n      swap2\n      pop\n        /* \"#utility.yul\":17085:17178   */\n      tag_403\n        /* \"#utility.yul\":17174:17177   */\n      dup3\n        /* \"#utility.yul\":17085:17178   */\n      tag_215\n      jump\t// in\n    tag_403:\n        /* \"#utility.yul\":17203:17205   */\n      0x40\n        /* \"#utility.yul\":17198:17201   */\n      dup3\n        /* \"#utility.yul\":17194:17206   */\n      add\n        /* \"#utility.yul\":17187:17206   */\n      swap1\n      pop\n        /* \"#utility.yul\":16846:17212   */\n      swap2\n      swap1\n      pop\n      jump\t// out\n        /* \"#utility.yul\":17218:17637   */\n    tag_92:\n        /* \"#utility.yul\":17384:17388   */\n      0x00\n        /* \"#utility.yul\":17422:17424   */\n      0x20\n        /* \"#utility.yul\":17411:17420   */\n      dup3\n        /* \"#utility.yul\":17407:17425   */\n      add\n        /* \"#utility.yul\":17399:17425   */\n      swap1\n      pop\n        /* \"#utility.yul\":17471:17480   */\n      dup2\n        /* \"#utility.yul\":17465:17469   */\n      dup2\n        /* \"#utility.yul\":17461:17481   */\n      sub\n        /* \"#utility.yul\":17457:17458   */\n      0x00\n        /* \"#utility.yul\":17446:17455   */\n      dup4\n        /* \"#utility.yul\":17442:17459   */\n      add\n        /* \"#utility.yul\":17435:17482   */\n      mstore\n        /* \"#utility.yul\":17499:17630   */\n      tag_405\n        /* \"#utility.yul\":17625:17629   */\n      dup2\n        /* \"#utility.yul\":17499:17630   */\n      tag_216\n      jump\t// in\n    tag_405:\n        /* \"#utility.yul\":17491:17630   */\n      swap1\n      pop\n        /* \"#utility.yul\":17218:17637   */\n      swap2\n      swap1\n      pop\n      jump\t// out\n        /* \"#utility.yul\":17643:17739   */\n    tag_217:\n        /* \"#utility.yul\":17701:17707   */\n      0x00\n        /* \"#utility.yul\":17729:17732   */\n      dup3\n        /* \"#utility.yul\":17719:17732   */\n      swap1\n      pop\n        /* \"#utility.yul\":17643:17739   */\n      swap3\n      swap2\n      pop\n      pop\n      jump\t// out\n        /* \"#utility.yul\":17837:17987   */\n    tag_219:\n        /* \"#utility.yul\":17874:17881   */\n      0x00\n        /* \"#utility.yul\":17914:17980   */\n      0xffffffffffffffffffffffffffffffffffffffff000000000000000000000000\n        /* \"#utility.yul\":17907:17912   */\n      dup3\n        /* \"#utility.yul\":17903:17981   */\n      and\n        /* \"#utility.yul\":17892:17981   */\n      swap1\n      pop\n        /* \"#utility.yul\":17837:17987   */\n      swap2\n      swap1\n      pop\n      jump\t// out\n        /* \"#utility.yul\":17993:18100   */\n    tag_220:\n        /* \"#utility.yul\":18037:18045   */\n      0x00\n        /* \"#utility.yul\":18087:18092   */\n      dup3\n        /* \"#utility.yul\":18081:18085   */\n      dup3\n        /* \"#utility.yul\":18077:18093   */\n      shl\n        /* \"#utility.yul\":18056:18093   */\n      swap1\n      pop\n        /* \"#utility.yul\":17993:18100   */\n      swap3\n      swap2\n      pop\n      pop\n      jump\t// out\n        /* \"#utility.yul\":18106:18658   */\n    tag_95:\n        /* \"#utility.yul\":18197:18202   */\n      0x00\n        /* \"#utility.yul\":18228:18273   */\n      tag_411\n        /* \"#utility.yul\":18269:18272   */\n      dup4\n        /* \"#utility.yul\":18262:18267   */\n      dup4\n        /* \"#utility.yul\":18228:18273   */\n      tag_217\n      jump\t// in\n    tag_411:\n        /* \"#utility.yul\":18298:18303   */\n      dup3\n        /* \"#utility.yul\":18322:18363   */\n      tag_412\n        /* \"#utility.yul\":18353:18361   */\n      dup2\n        /* \"#utility.yul\":18340:18362   */\n      calldataload\n        /* \"#utility.yul\":18322:18363   */\n      tag_219\n      jump\t// in\n    tag_412:\n        /* \"#utility.yul\":18313:18363   */\n      swap3\n      pop\n        /* \"#utility.yul\":18387:18389   */\n      0x14\n        /* \"#utility.yul\":18379:18385   */\n      dup3\n        /* \"#utility.yul\":18376:18390   */\n      lt\n        /* \"#utility.yul\":18373:18651   */\n      iszero\n      tag_413\n      jumpi\n        /* \"#utility.yul\":18458:18627   */\n      tag_414\n        /* \"#utility.yul\":18543:18609   */\n      0xffffffffffffffffffffffffffffffffffffffff000000000000000000000000\n        /* \"#utility.yul\":18513:18519   */\n      dup4\n        /* \"#utility.yul\":18509:18511   */\n      0x14\n        /* \"#utility.yul\":18505:18520   */\n      sub\n        /* \"#utility.yul\":18502:18503   */\n      0x08\n        /* \"#utility.yul\":18498:18521   */\n      mul\n        /* \"#utility.yul\":18458:18627   */\n      tag_220\n      jump\t// in\n    tag_414:\n        /* \"#utility.yul\":18435:18440   */\n      dup4\n        /* \"#utility.yul\":18414:18641   */\n      and\n        /* \"#utility.yul\":18405:18641   */\n      swap3\n      pop\n        /* \"#utility.yul\":18373:18651   */\n    tag_413:\n        /* \"#utility.yul\":18203:18658   */\n      pop\n      pop\n        /* \"#utility.yul\":18106:18658   */\n      swap3\n      swap2\n      pop\n      pop\n      jump\t// out\n        /* \"#utility.yul\":18664:18844   */\n    tag_221:\n        /* \"#utility.yul\":18712:18789   */\n      0x4e487b7100000000000000000000000000000000000000000000000000000000\n        /* \"#utility.yul\":18709:18710   */\n      0x00\n        /* \"#utility.yul\":18702:18790   */\n      mstore\n        /* \"#utility.yul\":18809:18813   */\n      0x11\n        /* \"#utility.yul\":18806:18807   */\n      0x04\n        /* \"#utility.yul\":18799:18814   */\n      mstore\n        /* \"#utility.yul\":18833:18837   */\n      0x24\n        /* \"#utility.yul\":18830:18831   */\n      0x00\n        /* \"#utility.yul\":18823:18838   */\n      revert\n        /* \"#utility.yul\":18850:19083   */\n    tag_98:\n        /* \"#utility.yul\":18889:18892   */\n      0x00\n        /* \"#utility.yul\":18912:18936   */\n      tag_417\n        /* \"#utility.yul\":18930:18935   */\n      dup3\n        /* \"#utility.yul\":18912:18936   */\n      tag_185\n      jump\t// in\n    tag_417:\n        /* \"#utility.yul\":18903:18936   */\n      swap2\n      pop\n        /* \"#utility.yul\":18958:19024   */\n      0xffffffffffffffffffffffffffffffffffffffffffffffffffffffffffffffff\n        /* \"#utility.yul\":18951:18956   */\n      dup3\n        /* \"#utility.yul\":18948:19025   */\n      sub\n        /* \"#utility.yul\":18945:19048   */\n      tag_418\n      jumpi\n        /* \"#utility.yul\":19028:19046   */\n      tag_419\n      tag_221\n      jump\t// in\n    tag_419:\n        /* \"#utility.yul\":18945:19048   */\n    tag_418:\n        /* \"#utility.yul\":19075:19076   */\n      0x01\n        /* \"#utility.yul\":19068:19073   */\n      dup3\n        /* \"#utility.yul\":19064:19077   */\n      add\n        /* \"#utility.yul\":19057:19077   */\n      swap1\n      pop\n        /* \"#utility.yul\":18850:19083   */\n      swap2\n      swap1\n      pop\n      jump\t// out\n        /* \"#utility.yul\":19089:19326   */\n    tag_222:\n        /* \"#utility.yul\":19229:19263   */\n      0x4f6e6c7920746865206f776e65722063616e20617070726f766520746f6b656e\n        /* \"#utility.yul\":19225:19226   */\n      0x00\n        /* \"#utility.yul\":19217:19223   */\n      dup3\n        /* \"#utility.yul\":19213:19227   */\n      add\n        /* \"#utility.yul\":19206:19264   */\n      mstore\n        /* \"#utility.yul\":19298:19318   */\n      0x7320666f722061205061796d61737465722e0000000000000000000000000000\n        /* \"#utility.yul\":19293:19295   */\n      0x20\n        /* \"#utility.yul\":19285:19291   */\n      dup3\n        /* \"#utility.yul\":19281:19296   */\n      add\n        /* \"#utility.yul\":19274:19319   */\n      mstore\n        /* \"#utility.yul\":19089:19326   */\n      pop\n      jump\t// out\n        /* \"#utility.yul\":19332:19698   */\n    tag_223:\n        /* \"#utility.yul\":19474:19477   */\n      0x00\n        /* \"#utility.yul\":19495:19562   */\n      tag_422\n        /* \"#utility.yul\":19559:19561   */\n      0x32\n        /* \"#utility.yul\":19554:19557   */\n      dup4\n        /* \"#utility.yul\":19495:19562   */\n      tag_199\n      jump\t// in\n    tag_422:\n        /* \"#utility.yul\":19488:19562   */\n      swap2\n      pop\n        /* \"#utility.yul\":19571:19664   */\n      tag_423\n        /* \"#utility.yul\":19660:19663   */\n      dup3\n        /* \"#utility.yul\":19571:19664   */\n      tag_222\n      jump\t// in\n    tag_423:\n        /* \"#utility.yul\":19689:19691   */\n      0x40\n        /* \"#utility.yul\":19684:19687   */\n      dup3\n        /* \"#utility.yul\":19680:19692   */\n      add\n        /* \"#utility.yul\":19673:19692   */\n      swap1\n      pop\n        /* \"#utility.yul\":19332:19698   */\n      swap2\n      swap1\n      pop\n      jump\t// out\n        /* \"#utility.yul\":19704:20123   */\n    tag_104:\n        /* \"#utility.yul\":19870:19874   */\n      0x00\n        /* \"#utility.yul\":19908:19910   */\n      0x20\n        /* \"#utility.yul\":19897:19906   */\n      dup3\n        /* \"#utility.yul\":19893:19911   */\n      add\n        /* \"#utility.yul\":19885:19911   */\n      swap1\n      pop\n        /* \"#utility.yul\":19957:19966   */\n      dup2\n        /* \"#utility.yul\":19951:19955   */\n      dup2\n        /* \"#utility.yul\":19947:19967   */\n      sub\n        /* \"#utility.yul\":19943:19944   */\n      0x00\n        /* \"#utility.yul\":19932:19941   */\n      dup4\n        /* \"#utility.yul\":19928:19945   */\n      add\n        /* \"#utility.yul\":19921:19968   */\n      mstore\n        /* \"#utility.yul\":19985:20116   */\n      tag_425\n        /* \"#utility.yul\":20111:20115   */\n      dup2\n        /* \"#utility.yul\":19985:20116   */\n      tag_223\n      jump\t// in\n    tag_425:\n        /* \"#utility.yul\":19977:20116   */\n      swap1\n      pop\n        /* \"#utility.yul\":19704:20123   */\n      swap2\n      swap1\n      pop\n      jump\t// out\n        /* \"#utility.yul\":20129:20308   */\n    tag_224:\n        /* \"#utility.yul\":20269:20300   */\n      0x546f6b656e20616464726573732063616e6e6f74206265207a65726f2e000000\n        /* \"#utility.yul\":20265:20266   */\n      0x00\n        /* \"#utility.yul\":20257:20263   */\n      dup3\n        /* \"#utility.yul\":20253:20267   */\n      add\n        /* \"#utility.yul\":20246:20301   */\n      mstore\n        /* \"#utility.yul\":20129:20308   */\n      pop\n      jump\t// out\n        /* \"#utility.yul\":20314:20680   */\n    tag_225:\n        /* \"#utility.yul\":20456:20459   */\n      0x00\n        /* \"#utility.yul\":20477:20544   */\n      tag_428\n        /* \"#utility.yul\":20541:20543   */\n      0x1d\n        /* \"#utility.yul\":20536:20539   */\n      dup4\n        /* \"#utility.yul\":20477:20544   */\n      tag_199\n      jump\t// in\n    tag_428:\n        /* \"#utility.yul\":20470:20544   */\n      swap2\n      pop\n        /* \"#utility.yul\":20553:20646   */\n      tag_429\n        /* \"#utility.yul\":20642:20645   */\n      dup3\n        /* \"#utility.yul\":20553:20646   */\n      tag_224\n      jump\t// in\n    tag_429:\n        /* \"#utility.yul\":20671:20673   */\n      0x20\n        /* \"#utility.yul\":20666:20669   */\n      dup3\n        /* \"#utility.yul\":20662:20674   */\n      add\n        /* \"#utility.yul\":20655:20674   */\n      swap1\n      pop\n        /* \"#utility.yul\":20314:20680   */\n      swap2\n      swap1\n      pop\n      jump\t// out\n        /* \"#utility.yul\":20686:21105   */\n    tag_107:\n        /* \"#utility.yul\":20852:20856   */\n      0x00\n        /* \"#utility.yul\":20890:20892   */\n      0x20\n        /* \"#utility.yul\":20879:20888   */\n      dup3\n        /* \"#utility.yul\":20875:20893   */\n      add\n        /* \"#utility.yul\":20867:20893   */\n      swap1\n      pop\n        /* \"#utility.yul\":20939:20948   */\n      dup2\n        /* \"#utility.yul\":20933:20937   */\n      dup2\n        /* \"#utility.yul\":20929:20949   */\n      sub\n        /* \"#utility.yul\":20925:20926   */\n      0x00\n        /* \"#utility.yul\":20914:20923   */\n      dup4\n        /* \"#utility.yul\":20910:20927   */\n      add\n        /* \"#utility.yul\":20903:20950   */\n      mstore\n        /* \"#utility.yul\":20967:21098   */\n      tag_431\n        /* \"#utility.yul\":21093:21097   */\n      dup2\n        /* \"#utility.yul\":20967:21098   */\n      tag_225\n      jump\t// in\n    tag_431:\n        /* \"#utility.yul\":20959:21098   */\n      swap1\n      pop\n        /* \"#utility.yul\":20686:21105   */\n      swap2\n      swap1\n      pop\n      jump\t// out\n        /* \"#utility.yul\":21111:21331   */\n    tag_226:\n        /* \"#utility.yul\":21251:21285   */\n      0x5061796d617374657220616464726573732063616e6e6f74206265207a65726f\n        /* \"#utility.yul\":21247:21248   */\n      0x00\n        /* \"#utility.yul\":21239:21245   */\n      dup3\n        /* \"#utility.yul\":21235:21249   */\n      add\n        /* \"#utility.yul\":21228:21286   */\n      mstore\n        /* \"#utility.yul\":21320:21323   */\n      0x2e00000000000000000000000000000000000000000000000000000000000000\n        /* \"#utility.yul\":21315:21317   */\n      0x20\n        /* \"#utility.yul\":21307:21313   */\n      dup3\n        /* \"#utility.yul\":21303:21318   */\n      add\n        /* \"#utility.yul\":21296:21324   */\n      mstore\n        /* \"#utility.yul\":21111:21331   */\n      pop\n      jump\t// out\n        /* \"#utility.yul\":21337:21703   */\n    tag_227:\n        /* \"#utility.yul\":21479:21482   */\n      0x00\n        /* \"#utility.yul\":21500:21567   */\n      tag_434\n        /* \"#utility.yul\":21564:21566   */\n      0x21\n        /* \"#utility.yul\":21559:21562   */\n      dup4\n        /* \"#utility.yul\":21500:21567   */\n      tag_199\n      jump\t// in\n    tag_434:\n        /* \"#utility.yul\":21493:21567   */\n      swap2\n      pop\n        /* \"#utility.yul\":21576:21669   */\n      tag_435\n        /* \"#utility.yul\":21665:21668   */\n      dup3\n        /* \"#utility.yul\":21576:21669   */\n      tag_226\n      jump\t// in\n    tag_435:\n        /* \"#utility.yul\":21694:21696   */\n      0x40\n        /* \"#utility.yul\":21689:21692   */\n      dup3\n        /* \"#utility.yul\":21685:21697   */\n      add\n        /* \"#utility.yul\":21678:21697   */\n      swap1\n      pop\n        /* \"#utility.yul\":21337:21703   */\n      swap2\n      swap1\n      pop\n      jump\t// out\n        /* \"#utility.yul\":21709:22128   */\n    tag_110:\n        /* \"#utility.yul\":21875:21879   */\n      0x00\n        /* \"#utility.yul\":21913:21915   */\n      0x20\n        /* \"#utility.yul\":21902:21911   */\n      dup3\n        /* \"#utility.yul\":21898:21916   */\n      add\n        /* \"#utility.yul\":21890:21916   */\n      swap1\n      pop\n        /* \"#utility.yul\":21962:21971   */\n      dup2\n        /* \"#utility.yul\":21956:21960   */\n      dup2\n        /* \"#utility.yul\":21952:21972   */\n      sub\n        /* \"#utility.yul\":21948:21949   */\n      0x00\n        /* \"#utility.yul\":21937:21946   */\n      dup4\n        /* \"#utility.yul\":21933:21950   */\n      add\n        /* \"#utility.yul\":21926:21973   */\n      mstore\n        /* \"#utility.yul\":21990:22121   */\n      tag_437\n        /* \"#utility.yul\":22116:22120   */\n      dup2\n        /* \"#utility.yul\":21990:22121   */\n      tag_227\n      jump\t// in\n    tag_437:\n        /* \"#utility.yul\":21982:22121   */\n      swap1\n      pop\n        /* \"#utility.yul\":21709:22128   */\n      swap2\n      swap1\n      pop\n      jump\t// out\n        /* \"#utility.yul\":22134:22466   */\n    tag_112:\n        /* \"#utility.yul\":22255:22259   */\n      0x00\n        /* \"#utility.yul\":22293:22295   */\n      0x40\n        /* \"#utility.yul\":22282:22291   */\n      dup3\n        /* \"#utility.yul\":22278:22296   */\n      add\n        /* \"#utility.yul\":22270:22296   */\n      swap1\n      pop\n        /* \"#utility.yul\":22306:22377   */\n      tag_439\n        /* \"#utility.yul\":22374:22375   */\n      0x00\n        /* \"#utility.yul\":22363:22372   */\n      dup4\n        /* \"#utility.yul\":22359:22376   */\n      add\n        /* \"#utility.yul\":22350:22356   */\n      dup6\n        /* \"#utility.yul\":22306:22377   */\n      tag_197\n      jump\t// in\n    tag_439:\n        /* \"#utility.yul\":22387:22459   */\n      tag_440\n        /* \"#utility.yul\":22455:22457   */\n      0x20\n        /* \"#utility.yul\":22444:22453   */\n      dup4\n        /* \"#utility.yul\":22440:22458   */\n      add\n        /* \"#utility.yul\":22431:22437   */\n      dup5\n        /* \"#utility.yul\":22387:22459   */\n      tag_186\n      jump\t// in\n    tag_440:\n        /* \"#utility.yul\":22134:22466   */\n      swap4\n      swap3\n      pop\n      pop\n      pop\n      jump\t// out\n        /* \"#utility.yul\":22472:22588   */\n    tag_228:\n        /* \"#utility.yul\":22542:22563   */\n      tag_442\n        /* \"#utility.yul\":22557:22562   */\n      dup2\n        /* \"#utility.yul\":22542:22563   */\n      tag_195\n      jump\t// in\n    tag_442:\n        /* \"#utility.yul\":22535:22540   */\n      dup2\n        /* \"#utility.yul\":22532:22564   */\n      eq\n        /* \"#utility.yul\":22522:22582   */\n      tag_443\n      jumpi\n        /* \"#utility.yul\":22578:22579   */\n      0x00\n        /* \"#utility.yul\":22575:22576   */\n      0x00\n        /* \"#utility.yul\":22568:22580   */\n      revert\n        /* \"#utility.yul\":22522:22582   */\n    tag_443:\n        /* \"#utility.yul\":22472:22588   */\n      pop\n      jump\t// out\n        /* \"#utility.yul\":22594:22731   */\n    tag_229:\n        /* \"#utility.yul\":22648:22653   */\n      0x00\n        /* \"#utility.yul\":22679:22685   */\n      dup2\n        /* \"#utility.yul\":22673:22686   */\n      mload\n        /* \"#utility.yul\":22664:22686   */\n      swap1\n      pop\n        /* \"#utility.yul\":22695:22725   */\n      tag_445\n        /* \"#utility.yul\":22719:22724   */\n      dup2\n        /* \"#utility.yul\":22695:22725   */\n      tag_228\n      jump\t// in\n    tag_445:\n        /* \"#utility.yul\":22594:22731   */\n      swap3\n      swap2\n      pop\n      pop\n      jump\t// out\n        /* \"#utility.yul\":22737:23082   */\n    tag_116:\n        /* \"#utility.yul\":22804:22810   */\n      0x00\n        /* \"#utility.yul\":22853:22855   */\n      0x20\n        /* \"#utility.yul\":22841:22850   */\n      dup3\n        /* \"#utility.yul\":22832:22839   */\n      dup5\n        /* \"#utility.yul\":22828:22851   */\n      sub\n        /* \"#utility.yul\":22824:22856   */\n      slt\n        /* \"#utility.yul\":22821:22940   */\n      iszero\n      tag_447\n      jumpi\n        /* \"#utility.yul\":22859:22938   */\n      tag_448\n      tag_177\n      jump\t// in\n    tag_448:\n        /* \"#utility.yul\":22821:22940   */\n    tag_447:\n        /* \"#utility.yul\":22979:22980   */\n      0x00\n        /* \"#utility.yul\":23004:23065   */\n      tag_449\n        /* \"#utility.yul\":23057:23064   */\n      dup5\n        /* \"#utility.yul\":23048:23054   */\n      dup3\n        /* \"#utility.yul\":23037:23046   */\n      dup6\n        /* \"#utility.yul\":23033:23055   */\n      add\n        /* \"#utility.yul\":23004:23065   */\n      tag_229\n      jump\t// in\n    tag_449:\n        /* \"#utility.yul\":22994:23065   */\n      swap2\n      pop\n        /* \"#utility.yul\":22950:23075   */\n      pop\n        /* \"#utility.yul\":22737:23082   */\n      swap3\n      swap2\n      pop\n      pop\n      jump\t// out\n        /* \"#utility.yul\":23088:23379   */\n    tag_230:\n        /* \"#utility.yul\":23228:23262   */\n      0x426174636820657865637574696f6e2063616e206f6e6c792062652074726967\n        /* \"#utility.yul\":23224:23225   */\n      0x00\n        /* \"#utility.yul\":23216:23222   */\n      dup3\n        /* \"#utility.yul\":23212:23226   */\n      add\n        /* \"#utility.yul\":23205:23263   */\n      mstore\n        /* \"#utility.yul\":23297:23331   */\n      0x67657265642062792074686520456e747279506f696e742e20536572696f7573\n        /* \"#utility.yul\":23292:23294   */\n      0x20\n        /* \"#utility.yul\":23284:23290   */\n      dup3\n        /* \"#utility.yul\":23280:23295   */\n      add\n        /* \"#utility.yul\":23273:23332   */\n      mstore\n        /* \"#utility.yul\":23366:23371   */\n      0x6c792e0000000000000000000000000000000000000000000000000000000000\n        /* \"#utility.yul\":23361:23363   */\n      0x40\n        /* \"#utility.yul\":23353:23359   */\n      dup3\n        /* \"#utility.yul\":23349:23364   */\n      add\n        /* \"#utility.yul\":23342:23372   */\n      mstore\n        /* \"#utility.yul\":23088:23379   */\n      pop\n      jump\t// out\n        /* \"#utility.yul\":23385:23751   */\n    tag_231:\n        /* \"#utility.yul\":23527:23530   */\n      0x00\n        /* \"#utility.yul\":23548:23615   */\n      tag_452\n        /* \"#utility.yul\":23612:23614   */\n      0x43\n        /* \"#utility.yul\":23607:23610   */\n      dup4\n        /* \"#utility.yul\":23548:23615   */\n      tag_199\n      jump\t// in\n    tag_452:\n        /* \"#utility.yul\":23541:23615   */\n      swap2\n      pop\n        /* \"#utility.yul\":23624:23717   */\n      tag_453\n        /* \"#utility.yul\":23713:23716   */\n      dup3\n        /* \"#utility.yul\":23624:23717   */\n      tag_230\n      jump\t// in\n    tag_453:\n        /* \"#utility.yul\":23742:23744   */\n      0x60\n        /* \"#utility.yul\":23737:23740   */\n      dup3\n        /* \"#utility.yul\":23733:23745   */\n      add\n        /* \"#utility.yul\":23726:23745   */\n      swap1\n      pop\n        /* \"#utility.yul\":23385:23751   */\n      swap2\n      swap1\n      pop\n      jump\t// out\n        /* \"#utility.yul\":23757:24176   */\n    tag_120:\n        /* \"#utility.yul\":23923:23927   */\n      0x00\n        /* \"#utility.yul\":23961:23963   */\n      0x20\n        /* \"#utility.yul\":23950:23959   */\n      dup3\n        /* \"#utility.yul\":23946:23964   */\n      add\n        /* \"#utility.yul\":23938:23964   */\n      swap1\n      pop\n        /* \"#utility.yul\":24010:24019   */\n      dup2\n        /* \"#utility.yul\":24004:24008   */\n      dup2\n        /* \"#utility.yul\":24000:24020   */\n      sub\n        /* \"#utility.yul\":23996:23997   */\n      0x00\n        /* \"#utility.yul\":23985:23994   */\n      dup4\n        /* \"#utility.yul\":23981:23998   */\n      add\n        /* \"#utility.yul\":23974:24021   */\n      mstore\n        /* \"#utility.yul\":24038:24169   */\n      tag_455\n        /* \"#utility.yul\":24164:24168   */\n      dup2\n        /* \"#utility.yul\":24038:24169   */\n      tag_231\n      jump\t// in\n    tag_455:\n        /* \"#utility.yul\":24030:24169   */\n      swap1\n      pop\n        /* \"#utility.yul\":23757:24176   */\n      swap2\n      swap1\n      pop\n      jump\t// out\n        /* \"#utility.yul\":24182:24431   */\n    tag_232:\n        /* \"#utility.yul\":24322:24356   */\n      0x41727261797320676f747461206265207468652073616d65206c656e6774682c\n        /* \"#utility.yul\":24318:24319   */\n      0x00\n        /* \"#utility.yul\":24310:24316   */\n      dup3\n        /* \"#utility.yul\":24306:24320   */\n      add\n        /* \"#utility.yul\":24299:24357   */\n      mstore\n        /* \"#utility.yul\":24391:24423   */\n      0x206d7920647564652e204d69736d617463682069732061206e6f2d676f2e0000\n        /* \"#utility.yul\":24386:24388   */\n      0x20\n        /* \"#utility.yul\":24378:24384   */\n      dup3\n        /* \"#utility.yul\":24374:24389   */\n      add\n        /* \"#utility.yul\":24367:24424   */\n      mstore\n        /* \"#utility.yul\":24182:24431   */\n      pop\n      jump\t// out\n        /* \"#utility.yul\":24437:24803   */\n    tag_233:\n        /* \"#utility.yul\":24579:24582   */\n      0x00\n        /* \"#utility.yul\":24600:24667   */\n      tag_458\n        /* \"#utility.yul\":24664:24666   */\n      0x3e\n        /* \"#utility.yul\":24659:24662   */\n      dup4\n        /* \"#utility.yul\":24600:24667   */\n      tag_199\n      jump\t// in\n    tag_458:\n        /* \"#utility.yul\":24593:24667   */\n      swap2\n      pop\n        /* \"#utility.yul\":24676:24769   */\n      tag_459\n        /* \"#utility.yul\":24765:24768   */\n      dup3\n        /* \"#utility.yul\":24676:24769   */\n      tag_232\n      jump\t// in\n    tag_459:\n        /* \"#utility.yul\":24794:24796   */\n      0x40\n        /* \"#utility.yul\":24789:24792   */\n      dup3\n        /* \"#utility.yul\":24785:24797   */\n      add\n        /* \"#utility.yul\":24778:24797   */\n      swap1\n      pop\n        /* \"#utility.yul\":24437:24803   */\n      swap2\n      swap1\n      pop\n      jump\t// out\n        /* \"#utility.yul\":24809:25228   */\n    tag_124:\n        /* \"#utility.yul\":24975:24979   */\n      0x00\n        /* \"#utility.yul\":25013:25015   */\n      0x20\n        /* \"#utility.yul\":25002:25011   */\n      dup3\n        /* \"#utility.yul\":24998:25016   */\n      add\n        /* \"#utility.yul\":24990:25016   */\n      swap1\n      pop\n        /* \"#utility.yul\":25062:25071   */\n      dup2\n        /* \"#utility.yul\":25056:25060   */\n      dup2\n        /* \"#utility.yul\":25052:25072   */\n      sub\n        /* \"#utility.yul\":25048:25049   */\n      0x00\n        /* \"#utility.yul\":25037:25046   */\n      dup4\n        /* \"#utility.yul\":25033:25050   */\n      add\n        /* \"#utility.yul\":25026:25073   */\n      mstore\n        /* \"#utility.yul\":25090:25221   */\n      tag_461\n        /* \"#utility.yul\":25216:25220   */\n      dup2\n        /* \"#utility.yul\":25090:25221   */\n      tag_233\n      jump\t// in\n    tag_461:\n        /* \"#utility.yul\":25082:25221   */\n      swap1\n      pop\n        /* \"#utility.yul\":24809:25228   */\n      swap2\n      swap1\n      pop\n      jump\t// out\n        /* \"#utility.yul\":25234:25414   */\n    tag_130:\n        /* \"#utility.yul\":25282:25359   */\n      0x4e487b7100000000000000000000000000000000000000000000000000000000\n        /* \"#utility.yul\":25279:25280   */\n      0x00\n        /* \"#utility.yul\":25272:25360   */\n      mstore\n        /* \"#utility.yul\":25379:25383   */\n      0x32\n        /* \"#utility.yul\":25376:25377   */\n      0x04\n        /* \"#utility.yul\":25369:25384   */\n      mstore\n        /* \"#utility.yul\":25403:25407   */\n      0x24\n        /* \"#utility.yul\":25400:25401   */\n      0x00\n        /* \"#utility.yul\":25393:25408   */\n      revert\n        /* \"#utility.yul\":25420:25567   */\n    tag_234:\n        /* \"#utility.yul\":25521:25532   */\n      0x00\n        /* \"#utility.yul\":25558:25561   */\n      dup2\n        /* \"#utility.yul\":25543:25561   */\n      swap1\n      pop\n        /* \"#utility.yul\":25420:25567   */\n      swap3\n      swap2\n      pop\n      pop\n      jump\t// out\n        /* \"#utility.yul\":25573:25721   */\n    tag_235:\n        /* \"#utility.yul\":25671:25677   */\n      dup3\n        /* \"#utility.yul\":25666:25669   */\n      dup2\n        /* \"#utility.yul\":25661:25664   */\n      dup4\n        /* \"#utility.yul\":25648:25678   */\n      calldatacopy\n        /* \"#utility.yul\":25712:25713   */\n      0x00\n        /* \"#utility.yul\":25703:25709   */\n      dup4\n        /* \"#utility.yul\":25698:25701   */\n      dup4\n        /* \"#utility.yul\":25694:25710   */\n      add\n        /* \"#utility.yul\":25687:25714   */\n      mstore\n        /* \"#utility.yul\":25573:25721   */\n      pop\n      pop\n      pop\n      jump\t// out\n        /* \"#utility.yul\":25749:26076   */\n    tag_236:\n        /* \"#utility.yul\":25863:25866   */\n      0x00\n        /* \"#utility.yul\":25884:25972   */\n      tag_466\n        /* \"#utility.yul\":25965:25971   */\n      dup4\n        /* \"#utility.yul\":25960:25963   */\n      dup6\n        /* \"#utility.yul\":25884:25972   */\n      tag_234\n      jump\t// in\n    tag_466:\n        /* \"#utility.yul\":25877:25972   */\n      swap4\n      pop\n        /* \"#utility.yul\":25982:26038   */\n      tag_467\n        /* \"#utility.yul\":26031:26037   */\n      dup4\n        /* \"#utility.yul\":26026:26029   */\n      dup6\n        /* \"#utility.yul\":26019:26024   */\n      dup5\n        /* \"#utility.yul\":25982:26038   */\n      tag_235\n      jump\t// in\n    tag_467:\n        /* \"#utility.yul\":26063:26069   */\n      dup3\n        /* \"#utility.yul\":26058:26061   */\n      dup5\n        /* \"#utility.yul\":26054:26070   */\n      add\n        /* \"#utility.yul\":26047:26070   */\n      swap1\n      pop\n        /* \"#utility.yul\":25749:26076   */\n      swap4\n      swap3\n      pop\n      pop\n      pop\n      jump\t// out\n        /* \"#utility.yul\":26082:26373   */\n    tag_138:\n        /* \"#utility.yul\":26222:26225   */\n      0x00\n        /* \"#utility.yul\":26244:26347   */\n      tag_469\n        /* \"#utility.yul\":26343:26346   */\n      dup3\n        /* \"#utility.yul\":26334:26340   */\n      dup5\n        /* \"#utility.yul\":26326:26332   */\n      dup7\n        /* \"#utility.yul\":26244:26347   */\n      tag_236\n      jump\t// in\n    tag_469:\n        /* \"#utility.yul\":26237:26347   */\n      swap2\n      pop\n        /* \"#utility.yul\":26364:26367   */\n      dup2\n        /* \"#utility.yul\":26357:26367   */\n      swap1\n      pop\n        /* \"#utility.yul\":26082:26373   */\n      swap4\n      swap3\n      pop\n      pop\n      pop\n      jump\t// out\n        /* \"#utility.yul\":26379:26478   */\n    tag_237:\n        /* \"#utility.yul\":26431:26437   */\n      0x00\n        /* \"#utility.yul\":26465:26470   */\n      dup2\n        /* \"#utility.yul\":26459:26471   */\n      mload\n        /* \"#utility.yul\":26449:26471   */\n      swap1\n      pop\n        /* \"#utility.yul\":26379:26478   */\n      swap2\n      swap1\n      pop\n      jump\t// out\n        /* \"#utility.yul\":26484:26623   */\n    tag_238:\n        /* \"#utility.yul\":26573:26579   */\n      dup3\n        /* \"#utility.yul\":26568:26571   */\n      dup2\n        /* \"#utility.yul\":26563:26566   */\n      dup4\n        /* \"#utility.yul\":26557:26580   */\n      mcopy\n        /* \"#utility.yul\":26614:26615   */\n      0x00\n        /* \"#utility.yul\":26605:26611   */\n      dup4\n        /* \"#utility.yul\":26600:26603   */\n      dup4\n        /* \"#utility.yul\":26596:26612   */\n      add\n        /* \"#utility.yul\":26589:26616   */\n      mstore\n        /* \"#utility.yul\":26484:26623   */\n      pop\n      pop\n      pop\n      jump\t// out\n        /* \"#utility.yul\":26629:26731   */\n    tag_239:\n        /* \"#utility.yul\":26670:26676   */\n      0x00\n        /* \"#utility.yul\":26721:26723   */\n      0x1f\n        /* \"#utility.yul\":26717:26724   */\n      not\n        /* \"#utility.yul\":26712:26714   */\n      0x1f\n        /* \"#utility.yul\":26705:26710   */\n      dup4\n        /* \"#utility.yul\":26701:26715   */\n      add\n        /* \"#utility.yul\":26697:26725   */\n      and\n        /* \"#utility.yul\":26687:26725   */\n      swap1\n      pop\n        /* \"#utility.yul\":26629:26731   */\n      swap2\n      swap1\n      pop\n      jump\t// out\n        /* \"#utility.yul\":26737:27114   */\n    tag_240:\n        /* \"#utility.yul\":26825:26828   */\n      0x00\n        /* \"#utility.yul\":26853:26892   */\n      tag_474\n        /* \"#utility.yul\":26886:26891   */\n      dup3\n        /* \"#utility.yul\":26853:26892   */\n      tag_237\n      jump\t// in\n    tag_474:\n        /* \"#utility.yul\":26908:26979   */\n      tag_475\n        /* \"#utility.yul\":26972:26978   */\n      dup2\n        /* \"#utility.yul\":26967:26970   */\n      dup6\n        /* \"#utility.yul\":26908:26979   */\n      tag_199\n      jump\t// in\n    tag_475:\n        /* \"#utility.yul\":26901:26979   */\n      swap4\n      pop\n        /* \"#utility.yul\":26988:27053   */\n      tag_476\n        /* \"#utility.yul\":27046:27052   */\n      dup2\n        /* \"#utility.yul\":27041:27044   */\n      dup6\n        /* \"#utility.yul\":27034:27038   */\n      0x20\n        /* \"#utility.yul\":27027:27032   */\n      dup7\n        /* \"#utility.yul\":27023:27039   */\n      add\n        /* \"#utility.yul\":26988:27053   */\n      tag_238\n      jump\t// in\n    tag_476:\n        /* \"#utility.yul\":27078:27107   */\n      tag_477\n        /* \"#utility.yul\":27100:27106   */\n      dup2\n        /* \"#utility.yul\":27078:27107   */\n      tag_239\n      jump\t// in\n    tag_477:\n        /* \"#utility.yul\":27073:27076   */\n      dup5\n        /* \"#utility.yul\":27069:27108   */\n      add\n        /* \"#utility.yul\":27062:27108   */\n      swap2\n      pop\n        /* \"#utility.yul\":26829:27114   */\n      pop\n        /* \"#utility.yul\":26737:27114   */\n      swap3\n      swap2\n      pop\n      pop\n      jump\t// out\n        /* \"#utility.yul\":27120:27433   */\n    tag_144:\n        /* \"#utility.yul\":27233:27237   */\n      0x00\n        /* \"#utility.yul\":27271:27273   */\n      0x20\n        /* \"#utility.yul\":27260:27269   */\n      dup3\n        /* \"#utility.yul\":27256:27274   */\n      add\n        /* \"#utility.yul\":27248:27274   */\n      swap1\n      pop\n        /* \"#utility.yul\":27320:27329   */\n      dup2\n        /* \"#utility.yul\":27314:27318   */\n      dup2\n        /* \"#utility.yul\":27310:27330   */\n      sub\n        /* \"#utility.yul\":27306:27307   */\n      0x00\n        /* \"#utility.yul\":27295:27304   */\n      dup4\n        /* \"#utility.yul\":27291:27308   */\n      add\n        /* \"#utility.yul\":27284:27331   */\n      mstore\n        /* \"#utility.yul\":27348:27426   */\n      tag_479\n        /* \"#utility.yul\":27421:27425   */\n      dup2\n        /* \"#utility.yul\":27412:27418   */\n      dup5\n        /* \"#utility.yul\":27348:27426   */\n      tag_240\n      jump\t// in\n    tag_479:\n        /* \"#utility.yul\":27340:27426   */\n      swap1\n      pop\n        /* \"#utility.yul\":27120:27433   */\n      swap3\n      swap2\n      pop\n      pop\n      jump\t// out\n        /* \"#utility.yul\":27439:27607   */\n    tag_241:\n        /* \"#utility.yul\":27522:27533   */\n      0x00\n        /* \"#utility.yul\":27556:27562   */\n      dup3\n        /* \"#utility.yul\":27551:27554   */\n      dup3\n        /* \"#utility.yul\":27544:27563   */\n      mstore\n        /* \"#utility.yul\":27596:27600   */\n      0x20\n        /* \"#utility.yul\":27591:27594   */\n      dup3\n        /* \"#utility.yul\":27587:27601   */\n      add\n        /* \"#utility.yul\":27572:27601   */\n      swap1\n      pop\n        /* \"#utility.yul\":27439:27607   */\n      swap3\n      swap2\n      pop\n      pop\n      jump\t// out\n        /* \"#utility.yul\":27635:27949   */\n    tag_242:\n        /* \"#utility.yul\":27731:27734   */\n      0x00\n        /* \"#utility.yul\":27752:27822   */\n      tag_482\n        /* \"#utility.yul\":27815:27821   */\n      dup4\n        /* \"#utility.yul\":27810:27813   */\n      dup6\n        /* \"#utility.yul\":27752:27822   */\n      tag_241\n      jump\t// in\n    tag_482:\n        /* \"#utility.yul\":27745:27822   */\n      swap4\n      pop\n        /* \"#utility.yul\":27832:27888   */\n      tag_483\n        /* \"#utility.yul\":27881:27887   */\n      dup4\n        /* \"#utility.yul\":27876:27879   */\n      dup6\n        /* \"#utility.yul\":27869:27874   */\n      dup5\n        /* \"#utility.yul\":27832:27888   */\n      tag_235\n      jump\t// in\n    tag_483:\n        /* \"#utility.yul\":27913:27942   */\n      tag_484\n        /* \"#utility.yul\":27935:27941   */\n      dup4\n        /* \"#utility.yul\":27913:27942   */\n      tag_239\n      jump\t// in\n    tag_484:\n        /* \"#utility.yul\":27908:27911   */\n      dup5\n        /* \"#utility.yul\":27904:27943   */\n      add\n        /* \"#utility.yul\":27897:27943   */\n      swap1\n      pop\n        /* \"#utility.yul\":27635:27949   */\n      swap4\n      swap3\n      pop\n      pop\n      pop\n      jump\t// out\n        /* \"#utility.yul\":27955:28394   */\n    tag_154:\n        /* \"#utility.yul\":28104:28108   */\n      0x00\n        /* \"#utility.yul\":28142:28144   */\n      0x40\n        /* \"#utility.yul\":28131:28140   */\n      dup3\n        /* \"#utility.yul\":28127:28145   */\n      add\n        /* \"#utility.yul\":28119:28145   */\n      swap1\n      pop\n        /* \"#utility.yul\":28155:28226   */\n      tag_486\n        /* \"#utility.yul\":28223:28224   */\n      0x00\n        /* \"#utility.yul\":28212:28221   */\n      dup4\n        /* \"#utility.yul\":28208:28225   */\n      add\n        /* \"#utility.yul\":28199:28205   */\n      dup7\n        /* \"#utility.yul\":28155:28226   */\n      tag_186\n      jump\t// in\n    tag_486:\n        /* \"#utility.yul\":28273:28282   */\n      dup2\n        /* \"#utility.yul\":28267:28271   */\n      dup2\n        /* \"#utility.yul\":28263:28283   */\n      sub\n        /* \"#utility.yul\":28258:28260   */\n      0x20\n        /* \"#utility.yul\":28247:28256   */\n      dup4\n        /* \"#utility.yul\":28243:28261   */\n      add\n        /* \"#utility.yul\":28236:28284   */\n      mstore\n        /* \"#utility.yul\":28301:28387   */\n      tag_487\n        /* \"#utility.yul\":28382:28386   */\n      dup2\n        /* \"#utility.yul\":28373:28379   */\n      dup5\n        /* \"#utility.yul\":28365:28371   */\n      dup7\n        /* \"#utility.yul\":28301:28387   */\n      tag_242\n      jump\t// in\n    tag_487:\n        /* \"#utility.yul\":28293:28387   */\n      swap1\n      pop\n        /* \"#utility.yul\":27955:28394   */\n      swap5\n      swap4\n      pop\n      pop\n      pop\n      pop\n      jump\t// out\n        /* \"#utility.yul\":28400:28693   */\n    tag_243:\n        /* \"#utility.yul\":28540:28574   */\n      0x457865637574696f6e2063616e206f6e6c792062652074726967676572656420\n        /* \"#utility.yul\":28536:28537   */\n      0x00\n        /* \"#utility.yul\":28528:28534   */\n      dup3\n        /* \"#utility.yul\":28524:28538   */\n      add\n        /* \"#utility.yul\":28517:28575   */\n      mstore\n        /* \"#utility.yul\":28609:28643   */\n      0x62792074686520456e747279506f696e742e205374617920696e20796f757220\n        /* \"#utility.yul\":28604:28606   */\n      0x20\n        /* \"#utility.yul\":28596:28602   */\n      dup3\n        /* \"#utility.yul\":28592:28607   */\n      add\n        /* \"#utility.yul\":28585:28644   */\n      mstore\n        /* \"#utility.yul\":28678:28685   */\n      0x6c616e652e000000000000000000000000000000000000000000000000000000\n        /* \"#utility.yul\":28673:28675   */\n      0x40\n        /* \"#utility.yul\":28665:28671   */\n      dup3\n        /* \"#utility.yul\":28661:28676   */\n      add\n        /* \"#utility.yul\":28654:28686   */\n      mstore\n        /* \"#utility.yul\":28400:28693   */\n      pop\n      jump\t// out\n        /* \"#utility.yul\":28699:29065   */\n    tag_244:\n        /* \"#utility.yul\":28841:28844   */\n      0x00\n        /* \"#utility.yul\":28862:28929   */\n      tag_490\n        /* \"#utility.yul\":28926:28928   */\n      0x45\n        /* \"#utility.yul\":28921:28924   */\n      dup4\n        /* \"#utility.yul\":28862:28929   */\n      tag_199\n      jump\t// in\n    tag_490:\n        /* \"#utility.yul\":28855:28929   */\n      swap2\n      pop\n        /* \"#utility.yul\":28938:29031   */\n      tag_491\n        /* \"#utility.yul\":29027:29030   */\n      dup3\n        /* \"#utility.yul\":28938:29031   */\n      tag_243\n      jump\t// in\n    tag_491:\n        /* \"#utility.yul\":29056:29058   */\n      0x60\n        /* \"#utility.yul\":29051:29054   */\n      dup3\n        /* \"#utility.yul\":29047:29059   */\n      add\n        /* \"#utility.yul\":29040:29059   */\n      swap1\n      pop\n        /* \"#utility.yul\":28699:29065   */\n      swap2\n      swap1\n      pop\n      jump\t// out\n        /* \"#utility.yul\":29071:29490   */\n    tag_158:\n        /* \"#utility.yul\":29237:29241   */\n      0x00\n        /* \"#utility.yul\":29275:29277   */\n      0x20\n        /* \"#utility.yul\":29264:29273   */\n      dup3\n        /* \"#utility.yul\":29260:29278   */\n      add\n        /* \"#utility.yul\":29252:29278   */\n      swap1\n      pop\n        /* \"#utility.yul\":29324:29333   */\n      dup2\n        /* \"#utility.yul\":29318:29322   */\n      dup2\n        /* \"#utility.yul\":29314:29334   */\n      sub\n        /* \"#utility.yul\":29310:29311   */\n      0x00\n        /* \"#utility.yul\":29299:29308   */\n      dup4\n        /* \"#utility.yul\":29295:29312   */\n      add\n        /* \"#utility.yul\":29288:29335   */\n      mstore\n        /* \"#utility.yul\":29352:29483   */\n      tag_493\n        /* \"#utility.yul\":29478:29482   */\n      dup2\n        /* \"#utility.yul\":29352:29483   */\n      tag_244\n      jump\t// in\n    tag_493:\n        /* \"#utility.yul\":29344:29483   */\n      swap1\n      pop\n        /* \"#utility.yul\":29071:29490   */\n      swap2\n      swap1\n      pop\n      jump\t// out\n        /* \"#utility.yul\":29496:29741   */\n    tag_245:\n        /* \"#utility.yul\":29636:29670   */\n      0x4f6e6c7920746865206f776e65722063616e20616464207369676e6572732e20\n        /* \"#utility.yul\":29632:29633   */\n      0x00\n        /* \"#utility.yul\":29624:29630   */\n      dup3\n        /* \"#utility.yul\":29620:29634   */\n      add\n        /* \"#utility.yul\":29613:29671   */\n      mstore\n        /* \"#utility.yul\":29705:29733   */\n      0x546869732061696e2774206120667265652d666f722d616c6c2e000000000000\n        /* \"#utility.yul\":29700:29702   */\n      0x20\n        /* \"#utility.yul\":29692:29698   */\n      dup3\n        /* \"#utility.yul\":29688:29703   */\n      add\n        /* \"#utility.yul\":29681:29734   */\n      mstore\n        /* \"#utility.yul\":29496:29741   */\n      pop\n      jump\t// out\n        /* \"#utility.yul\":29747:30113   */\n    tag_246:\n        /* \"#utility.yul\":29889:29892   */\n      0x00\n        /* \"#utility.yul\":29910:29977   */\n      tag_496\n        /* \"#utility.yul\":29974:29976   */\n      0x3a\n        /* \"#utility.yul\":29969:29972   */\n      dup4\n        /* \"#utility.yul\":29910:29977   */\n      tag_199\n      jump\t// in\n    tag_496:\n        /* \"#utility.yul\":29903:29977   */\n      swap2\n      pop\n        /* \"#utility.yul\":29986:30079   */\n      tag_497\n        /* \"#utility.yul\":30075:30078   */\n      dup3\n        /* \"#utility.yul\":29986:30079   */\n      tag_245\n      jump\t// in\n    tag_497:\n        /* \"#utility.yul\":30104:30106   */\n      0x40\n        /* \"#utility.yul\":30099:30102   */\n      dup3\n        /* \"#utility.yul\":30095:30107   */\n      add\n        /* \"#utility.yul\":30088:30107   */\n      swap1\n      pop\n        /* \"#utility.yul\":29747:30113   */\n      swap2\n      swap1\n      pop\n      jump\t// out\n        /* \"#utility.yul\":30119:30538   */\n    tag_169:\n        /* \"#utility.yul\":30285:30289   */\n      0x00\n        /* \"#utility.yul\":30323:30325   */\n      0x20\n        /* \"#utility.yul\":30312:30321   */\n      dup3\n        /* \"#utility.yul\":30308:30326   */\n      add\n        /* \"#utility.yul\":30300:30326   */\n      swap1\n      pop\n        /* \"#utility.yul\":30372:30381   */\n      dup2\n        /* \"#utility.yul\":30366:30370   */\n      dup2\n        /* \"#utility.yul\":30362:30382   */\n      sub\n        /* \"#utility.yul\":30358:30359   */\n      0x00\n        /* \"#utility.yul\":30347:30356   */\n      dup4\n        /* \"#utility.yul\":30343:30360   */\n      add\n        /* \"#utility.yul\":30336:30383   */\n      mstore\n        /* \"#utility.yul\":30400:30531   */\n      tag_499\n        /* \"#utility.yul\":30526:30530   */\n      dup2\n        /* \"#utility.yul\":30400:30531   */\n      tag_246\n      jump\t// in\n    tag_499:\n        /* \"#utility.yul\":30392:30531   */\n      swap1\n      pop\n        /* \"#utility.yul\":30119:30538   */\n      swap2\n      swap1\n      pop\n      jump\t// out\n        /* \"#utility.yul\":30544:30768   */\n    tag_247:\n        /* \"#utility.yul\":30684:30718   */\n      0x5369676e657220616464726573732063616e6e6f74206265207a65726f2e2043\n        /* \"#utility.yul\":30680:30681   */\n      0x00\n        /* \"#utility.yul\":30672:30678   */\n      dup3\n        /* \"#utility.yul\":30668:30682   */\n      add\n        /* \"#utility.yul\":30661:30719   */\n      mstore\n        /* \"#utility.yul\":30753:30760   */\n      0x276d6f6e2e000000000000000000000000000000000000000000000000000000\n        /* \"#utility.yul\":30748:30750   */\n      0x20\n        /* \"#utility.yul\":30740:30746   */\n      dup3\n        /* \"#utility.yul\":30736:30751   */\n      add\n        /* \"#utility.yul\":30729:30761   */\n      mstore\n        /* \"#utility.yul\":30544:30768   */\n      pop\n      jump\t// out\n        /* \"#utility.yul\":30774:31140   */\n    tag_248:\n        /* \"#utility.yul\":30916:30919   */\n      0x00\n        /* \"#utility.yul\":30937:31004   */\n      tag_502\n        /* \"#utility.yul\":31001:31003   */\n      0x25\n        /* \"#utility.yul\":30996:30999   */\n      dup4\n        /* \"#utility.yul\":30937:31004   */\n      tag_199\n      jump\t// in\n    tag_502:\n        /* \"#utility.yul\":30930:31004   */\n      swap2\n      pop\n        /* \"#utility.yul\":31013:31106   */\n      tag_503\n        /* \"#utility.yul\":31102:31105   */\n      dup3\n        /* \"#utility.yul\":31013:31106   */\n      tag_247\n      jump\t// in\n    tag_503:\n        /* \"#utility.yul\":31131:31133   */\n      0x40\n        /* \"#utility.yul\":31126:31129   */\n      dup3\n        /* \"#utility.yul\":31122:31134   */\n      add\n        /* \"#utility.yul\":31115:31134   */\n      swap1\n      pop\n        /* \"#utility.yul\":30774:31140   */\n      swap2\n      swap1\n      pop\n      jump\t// out\n        /* \"#utility.yul\":31146:31565   */\n    tag_172:\n        /* \"#utility.yul\":31312:31316   */\n      0x00\n        /* \"#utility.yul\":31350:31352   */\n      0x20\n        /* \"#utility.yul\":31339:31348   */\n      dup3\n        /* \"#utility.yul\":31335:31353   */\n      add\n        /* \"#utility.yul\":31327:31353   */\n      swap1\n      pop\n        /* \"#utility.yul\":31399:31408   */\n      dup2\n        /* \"#utility.yul\":31393:31397   */\n      dup2\n        /* \"#utility.yul\":31389:31409   */\n      sub\n        /* \"#utility.yul\":31385:31386   */\n      0x00\n        /* \"#utility.yul\":31374:31383   */\n      dup4\n        /* \"#utility.yul\":31370:31387   */\n      add\n        /* \"#utility.yul\":31363:31410   */\n      mstore\n        /* \"#utility.yul\":31427:31558   */\n      tag_505\n        /* \"#utility.yul\":31553:31557   */\n      dup2\n        /* \"#utility.yul\":31427:31558   */\n      tag_248\n      jump\t// in\n    tag_505:\n        /* \"#utility.yul\":31419:31558   */\n      swap1\n      pop\n        /* \"#utility.yul\":31146:31565   */\n      swap2\n      swap1\n      pop\n      jump\t// out\n        /* \"#utility.yul\":31571:31798   */\n    tag_249:\n        /* \"#utility.yul\":31711:31745   */\n      0x54686973206164647265737320697320616c72656164792061207369676e6572\n        /* \"#utility.yul\":31707:31708   */\n      0x00\n        /* \"#utility.yul\":31699:31705   */\n      dup3\n        /* \"#utility.yul\":31695:31709   */\n      add\n        /* \"#utility.yul\":31688:31746   */\n      mstore\n        /* \"#utility.yul\":31780:31790   */\n      0x2e204368696c6c2e000000000000000000000000000000000000000000000000\n        /* \"#utility.yul\":31775:31777   */\n      0x20\n        /* \"#utility.yul\":31767:31773   */\n      dup3\n        /* \"#utility.yul\":31763:31778   */\n      add\n        /* \"#utility.yul\":31756:31791   */\n      mstore\n        /* \"#utility.yul\":31571:31798   */\n      pop\n      jump\t// out\n        /* \"#utility.yul\":31804:32170   */\n    tag_250:\n        /* \"#utility.yul\":31946:31949   */\n      0x00\n        /* \"#utility.yul\":31967:32034   */\n      tag_508\n        /* \"#utility.yul\":32031:32033   */\n      0x28\n        /* \"#utility.yul\":32026:32029   */\n      dup4\n        /* \"#utility.yul\":31967:32034   */\n      tag_199\n      jump\t// in\n    tag_508:\n        /* \"#utility.yul\":31960:32034   */\n      swap2\n      pop\n        /* \"#utility.yul\":32043:32136   */\n      tag_509\n        /* \"#utility.yul\":32132:32135   */\n      dup3\n        /* \"#utility.yul\":32043:32136   */\n      tag_249\n      jump\t// in\n    tag_509:\n        /* \"#utility.yul\":32161:32163   */\n      0x40\n        /* \"#utility.yul\":32156:32159   */\n      dup3\n        /* \"#utility.yul\":32152:32164   */\n      add\n        /* \"#utility.yul\":32145:32164   */\n      swap1\n      pop\n        /* \"#utility.yul\":31804:32170   */\n      swap2\n      swap1\n      pop\n      jump\t// out\n        /* \"#utility.yul\":32176:32595   */\n    tag_175:\n        /* \"#utility.yul\":32342:32346   */\n      0x00\n        /* \"#utility.yul\":32380:32382   */\n      0x20\n        /* \"#utility.yul\":32369:32378   */\n      dup3\n        /* \"#utility.yul\":32365:32383   */\n      add\n        /* \"#utility.yul\":32357:32383   */\n      swap1\n      pop\n        /* \"#utility.yul\":32429:32438   */\n      dup2\n        /* \"#utility.yul\":32423:32427   */\n      dup2\n        /* \"#utility.yul\":32419:32439   */\n      sub\n        /* \"#utility.yul\":32415:32416   */\n      0x00\n        /* \"#utility.yul\":32404:32413   */\n      dup4\n        /* \"#utility.yul\":32400:32417   */\n      add\n        /* \"#utility.yul\":32393:32440   */\n      mstore\n        /* \"#utility.yul\":32457:32588   */\n      tag_511\n        /* \"#utility.yul\":32583:32587   */\n      dup2\n        /* \"#utility.yul\":32457:32588   */\n      tag_250\n      jump\t// in\n    tag_511:\n        /* \"#utility.yul\":32449:32588   */\n      swap1\n      pop\n        /* \"#utility.yul\":32176:32595   */\n      swap2\n      swap1\n      pop\n      jump\t// out\n\n    auxdata: 0xa26469706673582212202d1f2ae13253aa51d3617cef36913cfd495e5e4b50e9baa9f306bbeb7a883df064736f6c634300081e0033\n}\n",
				"bytecode": {
					"linkReferences": {},
					"object": "60a060405234801561000f575f5ffd5b506040516125c33803806125c383398181016040528101906100319190610284565b5f73ffffffffffffffffffffffffffffffffffffffff168273ffffffffffffffffffffffffffffffffffffffff160361009f576040517f08c379a000000000000000000000000000000000000000000000000000000000815260040161009690610342565b60405180910390fd5b5f73ffffffffffffffffffffffffffffffffffffffff168173ffffffffffffffffffffffffffffffffffffffff160361010d576040517f08c379a0000000000000000000000000000000000000000000000000000000008152600401610104906103f6565b60405180910390fd5b815f5f6101000a81548173ffffffffffffffffffffffffffffffffffffffff021916908373ffffffffffffffffffffffffffffffffffffffff1602179055508073ffffffffffffffffffffffffffffffffffffffff1660808173ffffffffffffffffffffffffffffffffffffffff16815250505f600181905550600160025f8473ffffffffffffffffffffffffffffffffffffffff1673ffffffffffffffffffffffffffffffffffffffff1681526020019081526020015f205f6101000a81548160ff0219169083151502179055508173ffffffffffffffffffffffffffffffffffffffff167f47d1c22a25bb3a5d4e481b9b1e6944c2eade3181a0a20b495ed61d35b5323f2460405160405180910390a25050610414565b5f5ffd5b5f73ffffffffffffffffffffffffffffffffffffffff82169050919050565b5f6102538261022a565b9050919050565b61026381610249565b811461026d575f5ffd5b50565b5f8151905061027e8161025a565b92915050565b5f5f6040838503121561029a57610299610226565b5b5f6102a785828601610270565b92505060206102b885828601610270565b9150509250929050565b5f82825260208201905092915050565b7f4f776e657220616464726573732063616e6e6f74206265207a65726f2e2054685f8201527f61742773206a7573742077656972642e00000000000000000000000000000000602082015250565b5f61032c6030836102c2565b9150610337826102d2565b604082019050919050565b5f6020820190508181035f83015261035981610320565b9050919050565b7f456e747279506f696e7420616464726573732063616e6e6f74206265207a65725f8201527f6f2e2057686f277320676f6e6e612070726f636573732074686520557365724f60208201527f70733f0000000000000000000000000000000000000000000000000000000000604082015250565b5f6103e06043836102c2565b91506103eb82610360565b606082019050919050565b5f6020820190508181035f83015261040d816103d4565b9050919050565b6080516121826104415f395f81816104970152818161097701528181610c970152610cbb01526121825ff3fe608060405260043610610094575f3560e01c80638da5cb5b116100585780638da5cb5b14610187578063affed0e0146101b1578063b0d691fe146101db578063b61d27f614610205578063eb12d61e1461022d57610095565b80630e316ab7146100975780632de6a880146100bf57806343425567146100fb57806347e1da2a146101235780635d2b6a4e1461014b57610095565b5b005b3480156100a2575f5ffd5b506100bd60048036038101906100b891906110d6565b610255565b005b3480156100ca575f5ffd5b506100e560048036038101906100e09190611124565b610494565b6040516100f29190611183565b60405180910390f35b348015610106575f5ffd5b50610121600480360381019061011c91906111c6565b61078a565b005b34801561012e575f5ffd5b5061014960048036038101906101449190611321565b610975565b005b348015610156575f5ffd5b50610171600480360381019061016c91906110d6565b610c4e565b60405161017e91906113eb565b60405180910390f35b348015610192575f5ffd5b5061019b610c6b565b6040516101a89190611413565b60405180910390f35b3480156101bc575f5ffd5b506101c5610c8f565b6040516101d29190611183565b60405180910390f35b3480156101e6575f5ffd5b506101ef610c95565b6040516101fc9190611413565b60405180910390f35b348015610210575f5ffd5b5061022b60048036038101906102269190611481565b610cb9565b005b348015610238575f5ffd5b50610253600480360381019061024e91906110d6565b610e53565b005b5f5f9054906101000a900473ffffffffffffffffffffffffffffffffffffffff1673ffffffffffffffffffffffffffffffffffffffff163373ffffffffffffffffffffffffffffffffffffffff16146102e3576040517f08c379a00000000000000000000000000000000000000000000000000000000081526004016102da90611572565b60405180910390fd5b5f5f9054906101000a900473ffffffffffffffffffffffffffffffffffffffff1673ffffffffffffffffffffffffffffffffffffffff168173ffffffffffffffffffffffffffffffffffffffff1603610371576040517f08c379a000000000000000000000000000000000000000000000000000000000815260040161036890611600565b60405180910390fd5b60025f8273ffffffffffffffffffffffffffffffffffffffff1673ffffffffffffffffffffffffffffffffffffffff1681526020019081526020015f205f9054906101000a900460ff166103fa576040517f08c379a00000000000000000000000000000000000000000000000000000000081526004016103f19061168e565b60405180910390fd5b5f60025f8373ffffffffffffffffffffffffffffffffffffffff1673ffffffffffffffffffffffffffffffffffffffff1681526020019081526020015f205f6101000a81548160ff0219169083151502179055508073ffffffffffffffffffffffffffffffffffffffff167f3525e22824a8a7df2c9a6029941c824cf95b6447f1e13d5128fd3826d35afe8b60405160405180910390a250565b5f7f000000000000000000000000000000000000000000000000000000000000000073ffffffffffffffffffffffffffffffffffffffff163373ffffffffffffffffffffffffffffffffffffffff1614610523576040517f08c379a000000000000000000000000000000000000000000000000000000000815260040161051a9061171c565b60405180910390fd5b60015482602001351461056b576040517f08c379a0000000000000000000000000000000000000000000000000000000008152600401610562906117aa565b60405180910390fd5b60408280610120019061057e91906117d4565b9050116105c0576040517f08c379a00000000000000000000000000000000000000000000000000000000081526004016105b790611880565b60405180910390fd5b5f5f5f9054906101000a900473ffffffffffffffffffffffffffffffffffffffff16905060025f8273ffffffffffffffffffffffffffffffffffffffff1673ffffffffffffffffffffffffffffffffffffffff1681526020019081526020015f205f9054906101000a900460ff1661066d576040517f08c379a00000000000000000000000000000000000000000000000000000000081526004016106649061190e565b60405180910390fd5b5f8380610100019061067f91906117d4565b9061068a919061196d565b60601c90505f73ffffffffffffffffffffffffffffffffffffffff168173ffffffffffffffffffffffffffffffffffffffff1614610706578073ffffffffffffffffffffffffffffffffffffffff167fd680b39aa4e134b739e3f5bab3cc8f4c4312c876c15a68e9199b79f2976d390c60405160405180910390a25b60015f815480929190610718906119f8565b9190505550835f01602081019061072f91906110d6565b73ffffffffffffffffffffffffffffffffffffffff167f6f20e7e0b842bc6a4ee93377f71742bb7d3714803c40b26bcce7dee4faa640f085602001356040516107789190611183565b60405180910390a25f92505050919050565b5f5f9054906101000a900473ffffffffffffffffffffffffffffffffffffffff1673ffffffffffffffffffffffffffffffffffffffff163373ffffffffffffffffffffffffffffffffffffffff1614610818576040517f08c379a000000000000000000000000000000000000000000000000000000000815260040161080f90611aaf565b60405180910390fd5b5f73ffffffffffffffffffffffffffffffffffffffff168373ffffffffffffffffffffffffffffffffffffffff1603610886576040517f08c379a000000000000000000000000000000000000000000000000000000000815260040161087d90611b17565b60405180910390fd5b5f73ffffffffffffffffffffffffffffffffffffffff168273ffffffffffffffffffffffffffffffffffffffff16036108f4576040517f08c379a00000000000000000000000000000000000000000000000000000000081526004016108eb90611ba5565b60405180910390fd5b8273ffffffffffffffffffffffffffffffffffffffff1663095ea7b383836040518363ffffffff1660e01b815260040161092f929190611bc3565b6020604051808303815f875af115801561094b573d5f5f3e3d5ffd5b505050506040513d601f19601f8201168201806040525081019061096f9190611c14565b50505050565b7f000000000000000000000000000000000000000000000000000000000000000073ffffffffffffffffffffffffffffffffffffffff163373ffffffffffffffffffffffffffffffffffffffff1614610a03576040517f08c379a00000000000000000000000000000000000000000000000000000000081526004016109fa90611cd5565b60405180910390fd5b8383905086869050148015610a1d57508181905086869050145b610a5c576040517f08c379a0000000000000000000000000000000000000000000000000000000008152600401610a5390611d63565b60405180910390fd5b5f5f90505b86869050811015610c45575f5f888884818110610a8157610a80611d81565b5b9050602002016020810190610a9691906110d6565b73ffffffffffffffffffffffffffffffffffffffff16878785818110610abf57610abe611d81565b5b90506020020135868686818110610ad957610ad8611d81565b5b9050602002810190610aeb91906117d4565b604051610af9929190611dea565b5f6040518083038185875af1925050503d805f8114610b33576040519150601f19603f3d011682016040523d82523d5f602084013e610b38565b606091505b5091509150818190610b80576040517f08c379a0000000000000000000000000000000000000000000000000000000008152600401610b779190611e62565b60405180910390fd5b50888884818110610b9457610b93611d81565b5b9050602002016020810190610ba991906110d6565b73ffffffffffffffffffffffffffffffffffffffff167fcaf938de11c367272220bfd1d2baa99ca46665e7bc4d85f00adb51b90fe1fa9f888886818110610bf357610bf2611d81565b5b90506020020135878787818110610c0d57610c0c611d81565b5b9050602002810190610c1f91906117d4565b604051610c2e93929190611ebe565b60405180910390a250508080600101915050610a61565b50505050505050565b6002602052805f5260405f205f915054906101000a900460ff1681565b5f5f9054906101000a900473ffffffffffffffffffffffffffffffffffffffff1681565b60015481565b7f000000000000000000000000000000000000000000000000000000000000000081565b7f000000000000000000000000000000000000000000000000000000000000000073ffffffffffffffffffffffffffffffffffffffff163373ffffffffffffffffffffffffffffffffffffffff1614610d47576040517f08c379a0000000000000000000000000000000000000000000000000000000008152600401610d3e90611f84565b60405180910390fd5b5f5f8573ffffffffffffffffffffffffffffffffffffffff16858585604051610d71929190611dea565b5f6040518083038185875af1925050503d805f8114610dab576040519150601f19603f3d011682016040523d82523d5f602084013e610db0565b606091505b5091509150818190610df8576040517f08c379a0000000000000000000000000000000000000000000000000000000008152600401610def9190611e62565b60405180910390fd5b508573ffffffffffffffffffffffffffffffffffffffff167fcaf938de11c367272220bfd1d2baa99ca46665e7bc4d85f00adb51b90fe1fa9f868686604051610e4393929190611ebe565b60405180910390a2505050505050565b5f5f9054906101000a900473ffffffffffffffffffffffffffffffffffffffff1673ffffffffffffffffffffffffffffffffffffffff163373ffffffffffffffffffffffffffffffffffffffff1614610ee1576040517f08c379a0000000000000000000000000000000000000000000000000000000008152600401610ed890612012565b60405180910390fd5b5f73ffffffffffffffffffffffffffffffffffffffff168173ffffffffffffffffffffffffffffffffffffffff1603610f4f576040517f08c379a0000000000000000000000000000000000000000000000000000000008152600401610f46906120a0565b60405180910390fd5b60025f8273ffffffffffffffffffffffffffffffffffffffff1673ffffffffffffffffffffffffffffffffffffffff1681526020019081526020015f205f9054906101000a900460ff1615610fd9576040517f08c379a0000000000000000000000000000000000000000000000000000000008152600401610fd09061212e565b60405180910390fd5b600160025f8373ffffffffffffffffffffffffffffffffffffffff1673ffffffffffffffffffffffffffffffffffffffff1681526020019081526020015f205f6101000a81548160ff0219169083151502179055508073ffffffffffffffffffffffffffffffffffffffff167f47d1c22a25bb3a5d4e481b9b1e6944c2eade3181a0a20b495ed61d35b5323f2460405160405180910390a250565b5f5ffd5b5f5ffd5b5f73ffffffffffffffffffffffffffffffffffffffff82169050919050565b5f6110a58261107c565b9050919050565b6110b58161109b565b81146110bf575f5ffd5b50565b5f813590506110d0816110ac565b92915050565b5f602082840312156110eb576110ea611074565b5b5f6110f8848285016110c2565b91505092915050565b5f5ffd5b5f610140828403121561111b5761111a611101565b5b81905092915050565b5f6020828403121561113957611138611074565b5b5f82013567ffffffffffffffff81111561115657611155611078565b5b61116284828501611105565b91505092915050565b5f819050919050565b61117d8161116b565b82525050565b5f6020820190506111965f830184611174565b92915050565b6111a58161116b565b81146111af575f5ffd5b50565b5f813590506111c08161119c565b92915050565b5f5f5f606084860312156111dd576111dc611074565b5b5f6111ea868287016110c2565b93505060206111fb868287016110c2565b925050604061120c868287016111b2565b9150509250925092565b5f5ffd5b5f5ffd5b5f5ffd5b5f5f83601f84011261123757611236611216565b5b8235905067ffffffffffffffff8111156112545761125361121a565b5b6020830191508360208202830111156112705761126f61121e565b5b9250929050565b5f5f83601f84011261128c5761128b611216565b5b8235905067ffffffffffffffff8111156112a9576112a861121a565b5b6020830191508360208202830111156112c5576112c461121e565b5b9250929050565b5f5f83601f8401126112e1576112e0611216565b5b8235905067ffffffffffffffff8111156112fe576112fd61121a565b5b60208301915083602082028301111561131a5761131961121e565b5b9250929050565b5f5f5f5f5f5f6060878903121561133b5761133a611074565b5b5f87013567ffffffffffffffff81111561135857611357611078565b5b61136489828a01611222565b9650965050602087013567ffffffffffffffff81111561138757611386611078565b5b61139389828a01611277565b9450945050604087013567ffffffffffffffff8111156113b6576113b5611078565b5b6113c289828a016112cc565b92509250509295509295509295565b5f8115159050919050565b6113e5816113d1565b82525050565b5f6020820190506113fe5f8301846113dc565b92915050565b61140d8161109b565b82525050565b5f6020820190506114265f830184611404565b92915050565b5f5f83601f84011261144157611440611216565b5b8235905067ffffffffffffffff81111561145e5761145d61121a565b5b60208301915083600182028301111561147a5761147961121e565b5b9250929050565b5f5f5f5f6060858703121561149957611498611074565b5b5f6114a6878288016110c2565b94505060206114b7878288016111b2565b935050604085013567ffffffffffffffff8111156114d8576114d7611078565b5b6114e48782880161142c565b925092505092959194509250565b5f82825260208201905092915050565b7f4f6e6c7920746865206f776e65722063616e2072656d6f7665207369676e65725f8201527f732e204d7920686f7573652c206d792072756c65732e00000000000000000000602082015250565b5f61155c6036836114f2565b915061156782611502565b604082019050919050565b5f6020820190508181035f83015261158981611550565b9050919050565b7f43616e27742072656d6f766520746865206f776e65722061732061207369676e5f8201527f65722e20546861742773206a7573742073656c662d7361626f746167652e0000602082015250565b5f6115ea603e836114f2565b91506115f582611590565b604082019050919050565b5f6020820190508181035f830152611617816115de565b9050919050565b7f5468697320616464726573732069736e27742061207369676e65722e205768615f8201527f742061726520796f75206576656e20646f696e673f0000000000000000000000602082015250565b5f6116786035836114f2565b91506116838261161e565b604082019050919050565b5f6020820190508181035f8301526116a58161166c565b9050919050565b7f56616c69646174696f6e2063616e206f6e6c792062652063616c6c65642062795f8201527f2074686520456e747279506f696e742e00000000000000000000000000000000602082015250565b5f6117066030836114f2565b9150611711826116ac565b604082019050919050565b5f6020820190508181035f830152611733816116fa565b9050919050565b7f496e76616c6964206e6f6e63652e205468697320557365724f70206973206f6c5f8201527f64206e657773206f72206f7574206f66206f726465722e000000000000000000602082015250565b5f6117946037836114f2565b915061179f8261173a565b604082019050919050565b5f6020820190508181035f8301526117c181611788565b9050919050565b5f5ffd5b5f5ffd5b5f5ffd5b5f5f833560016020038436030381126117f0576117ef6117c8565b5b80840192508235915067ffffffffffffffff821115611812576118116117cc565b5b60208301925060018202360383131561182e5761182d6117d0565b5b509250929050565b7f5369676e617475726520746f6f2073686f72742e204c6f6f6b73207375732e005f82015250565b5f61186a601f836114f2565b915061187582611836565b602082019050919050565b5f6020820190508181035f8301526118978161185e565b9050919050565b7f5369676e6174757265206e6f742066726f6d20616e20617574686f72697a65645f8201527f207369676e65722e2057686f2061726520796f753f0000000000000000000000602082015250565b5f6118f86035836114f2565b91506119038261189e565b604082019050919050565b5f6020820190508181035f830152611925816118ec565b9050919050565b5f82905092915050565b5f7fffffffffffffffffffffffffffffffffffffffff00000000000000000000000082169050919050565b5f82821b905092915050565b5f611978838361192c565b826119838135611936565b925060148210156119c3576119be7fffffffffffffffffffffffffffffffffffffffff00000000000000000000000083601403600802611961565b831692505b505092915050565b7f4e487b71000000000000000000000000000000000000000000000000000000005f52601160045260245ffd5b5f611a028261116b565b91507fffffffffffffffffffffffffffffffffffffffffffffffffffffffffffffffff8203611a3457611a336119cb565b5b600182019050919050565b7f4f6e6c7920746865206f776e65722063616e20617070726f766520746f6b656e5f8201527f7320666f722061205061796d61737465722e0000000000000000000000000000602082015250565b5f611a996032836114f2565b9150611aa482611a3f565b604082019050919050565b5f6020820190508181035f830152611ac681611a8d565b9050919050565b7f546f6b656e20616464726573732063616e6e6f74206265207a65726f2e0000005f82015250565b5f611b01601d836114f2565b9150611b0c82611acd565b602082019050919050565b5f6020820190508181035f830152611b2e81611af5565b9050919050565b7f5061796d617374657220616464726573732063616e6e6f74206265207a65726f5f8201527f2e00000000000000000000000000000000000000000000000000000000000000602082015250565b5f611b8f6021836114f2565b9150611b9a82611b35565b604082019050919050565b5f6020820190508181035f830152611bbc81611b83565b9050919050565b5f604082019050611bd65f830185611404565b611be36020830184611174565b9392505050565b611bf3816113d1565b8114611bfd575f5ffd5b50565b5f81519050611c0e81611bea565b92915050565b5f60208284031215611c2957611c28611074565b5b5f611c3684828501611c00565b91505092915050565b7f426174636820657865637574696f6e2063616e206f6e6c7920626520747269675f8201527f67657265642062792074686520456e747279506f696e742e20536572696f757360208201527f6c792e0000000000000000000000000000000000000000000000000000000000604082015250565b5f611cbf6043836114f2565b9150611cca82611c3f565b606082019050919050565b5f6020820190508181035f830152611cec81611cb3565b9050919050565b7f41727261797320676f747461206265207468652073616d65206c656e6774682c5f8201527f206d7920647564652e204d69736d617463682069732061206e6f2d676f2e0000602082015250565b5f611d4d603e836114f2565b9150611d5882611cf3565b604082019050919050565b5f6020820190508181035f830152611d7a81611d41565b9050919050565b7f4e487b71000000000000000000000000000000000000000000000000000000005f52603260045260245ffd5b5f81905092915050565b828183375f83830152505050565b5f611dd18385611dae565b9350611dde838584611db8565b82840190509392505050565b5f611df6828486611dc6565b91508190509392505050565b5f81519050919050565b8281835e5f83830152505050565b5f601f19601f8301169050919050565b5f611e3482611e02565b611e3e81856114f2565b9350611e4e818560208601611e0c565b611e5781611e1a565b840191505092915050565b5f6020820190508181035f830152611e7a8184611e2a565b905092915050565b5f82825260208201905092915050565b5f611e9d8385611e82565b9350611eaa838584611db8565b611eb383611e1a565b840190509392505050565b5f604082019050611ed15f830186611174565b8181036020830152611ee4818486611e92565b9050949350505050565b7f457865637574696f6e2063616e206f6e6c7920626520747269676765726564205f8201527f62792074686520456e747279506f696e742e205374617920696e20796f75722060208201527f6c616e652e000000000000000000000000000000000000000000000000000000604082015250565b5f611f6e6045836114f2565b9150611f7982611eee565b606082019050919050565b5f6020820190508181035f830152611f9b81611f62565b9050919050565b7f4f6e6c7920746865206f776e65722063616e20616464207369676e6572732e205f8201527f546869732061696e2774206120667265652d666f722d616c6c2e000000000000602082015250565b5f611ffc603a836114f2565b915061200782611fa2565b604082019050919050565b5f6020820190508181035f83015261202981611ff0565b9050919050565b7f5369676e657220616464726573732063616e6e6f74206265207a65726f2e20435f8201527f276d6f6e2e000000000000000000000000000000000000000000000000000000602082015250565b5f61208a6025836114f2565b915061209582612030565b604082019050919050565b5f6020820190508181035f8301526120b78161207e565b9050919050565b7f54686973206164647265737320697320616c72656164792061207369676e65725f8201527f2e204368696c6c2e000000000000000000000000000000000000000000000000602082015250565b5f6121186028836114f2565b9150612123826120be565b604082019050919050565b5f6020820190508181035f8301526121458161210c565b905091905056fea26469706673582212202d1f2ae13253aa51d3617cef36913cfd495e5e4b50e9baa9f306bbeb7a883df064736f6c634300081e0033",
					"opcodes": "PUSH1 0xA0 PUSH1 0x40 MSTORE CALLVALUE DUP1 ISZERO PUSH2 0xF JUMPI PUSH0 PUSH0 REVERT JUMPDEST POP PUSH1 0x40 MLOAD PUSH2 0x25C3 CODESIZE SUB DUP1 PUSH2 0x25C3 DUP4 CODECOPY DUP2 DUP2 ADD PUSH1 0x40 MSTORE DUP2 ADD SWAP1 PUSH2 0x31 SWAP2 SWAP1 PUSH2 0x284 JUMP JUMPDEST PUSH0 PUSH20 0xFFFFFFFFFFFFFFFFFFFFFFFFFFFFFFFFFFFFFFFF AND DUP3 PUSH20 0xFFFFFFFFFFFFFFFFFFFFFFFFFFFFFFFFFFFFFFFF AND SUB PUSH2 0x9F JUMPI PUSH1 0x40 MLOAD PUSH32 0x8C379A000000000000000000000000000000000000000000000000000000000 DUP2 MSTORE PUSH1 0x4 ADD PUSH2 0x96 SWAP1 PUSH2 0x342 JUMP JUMPDEST PUSH1 0x40 MLOAD DUP1 SWAP2 SUB SWAP1 REVERT JUMPDEST PUSH0 PUSH20 0xFFFFFFFFFFFFFFFFFFFFFFFFFFFFFFFFFFFFFFFF AND DUP2 PUSH20 0xFFFFFFFFFFFFFFFFFFFFFFFFFFFFFFFFFFFFFFFF AND SUB PUSH2 0x10D JUMPI PUSH1 0x40 MLOAD PUSH32 0x8C379A000000000000000000000000000000000000000000000000000000000 DUP2 MSTORE PUSH1 0x4 ADD PUSH2 0x104 SWAP1 PUSH2 0x3F6 JUMP JUMPDEST PUSH1 0x40 MLOAD DUP1 SWAP2 SUB SWAP1 REVERT JUMPDEST DUP2 PUSH0 PUSH0 PUSH2 0x100 EXP DUP2 SLOAD DUP2 PUSH20 0xFFFFFFFFFFFFFFFFFFFFFFFFFFFFFFFFFFFFFFFF MUL NOT AND SWAP1 DUP4 PUSH20 0xFFFFFFFFFFFFFFFFFFFFFFFFFFFFFFFFFFFFFFFF AND MUL OR SWAP1 SSTORE POP DUP1 PUSH20 0xFFFFFFFFFFFFFFFFFFFFFFFFFFFFFFFFFFFFFFFF AND PUSH1 0x80 DUP2 PUSH20 0xFFFFFFFFFFFFFFFFFFFFFFFFFFFFFFFFFFFFFFFF AND DUP2 MSTORE POP POP PUSH0 PUSH1 0x1 DUP2 SWAP1 SSTORE POP PUSH1 0x1 PUSH1 0x2 PUSH0 DUP5 PUSH20 0xFFFFFFFFFFFFFFFFFFFFFFFFFFFFFFFFFFFFFFFF AND PUSH20 0xFFFFFFFFFFFFFFFFFFFFFFFFFFFFFFFFFFFFFFFF AND DUP2 MSTORE PUSH1 0x20 ADD SWAP1 DUP2 MSTORE PUSH1 0x20 ADD PUSH0 KECCAK256 PUSH0 PUSH2 0x100 EXP DUP2 SLOAD DUP2 PUSH1 0xFF MUL NOT AND SWAP1 DUP4 ISZERO ISZERO MUL OR SWAP1 SSTORE POP DUP2 PUSH20 0xFFFFFFFFFFFFFFFFFFFFFFFFFFFFFFFFFFFFFFFF AND PUSH32 0x47D1C22A25BB3A5D4E481B9B1E6944C2EADE3181A0A20B495ED61D35B5323F24 PUSH1 0x40 MLOAD PUSH1 0x40 MLOAD DUP1 SWAP2 SUB SWAP1 LOG2 POP POP PUSH2 0x414 JUMP JUMPDEST PUSH0 PUSH0 REVERT JUMPDEST PUSH0 PUSH20 0xFFFFFFFFFFFFFFFFFFFFFFFFFFFFFFFFFFFFFFFF DUP3 AND SWAP1 POP SWAP2 SWAP1 POP JUMP JUMPDEST PUSH0 PUSH2 0x253 DUP3 PUSH2 0x22A JUMP JUMPDEST SWAP1 POP SWAP2 SWAP1 POP JUMP JUMPDEST PUSH2 0x263 DUP2 PUSH2 0x249 JUMP JUMPDEST DUP2 EQ PUSH2 0x26D JUMPI PUSH0 PUSH0 REVERT JUMPDEST POP JUMP JUMPDEST PUSH0 DUP2 MLOAD SWAP1 POP PUSH2 0x27E DUP2 PUSH2 0x25A JUMP JUMPDEST SWAP3 SWAP2 POP POP JUMP JUMPDEST PUSH0 PUSH0 PUSH1 0x40 DUP4 DUP6 SUB SLT ISZERO PUSH2 0x29A JUMPI PUSH2 0x299 PUSH2 0x226 JUMP JUMPDEST JUMPDEST PUSH0 PUSH2 0x2A7 DUP6 DUP3 DUP7 ADD PUSH2 0x270 JUMP JUMPDEST SWAP3 POP POP PUSH1 0x20 PUSH2 0x2B8 DUP6 DUP3 DUP7 ADD PUSH2 0x270 JUMP JUMPDEST SWAP2 POP POP SWAP3 POP SWAP3 SWAP1 POP JUMP JUMPDEST PUSH0 DUP3 DUP3 MSTORE PUSH1 0x20 DUP3 ADD SWAP1 POP SWAP3 SWAP2 POP POP JUMP JUMPDEST PUSH32 0x4F776E657220616464726573732063616E6E6F74206265207A65726F2E205468 PUSH0 DUP3 ADD MSTORE PUSH32 0x61742773206A7573742077656972642E00000000000000000000000000000000 PUSH1 0x20 DUP3 ADD MSTORE POP JUMP JUMPDEST PUSH0 PUSH2 0x32C PUSH1 0x30 DUP4 PUSH2 0x2C2 JUMP JUMPDEST SWAP2 POP PUSH2 0x337 DUP3 PUSH2 0x2D2 JUMP JUMPDEST PUSH1 0x40 DUP3 ADD SWAP1 POP SWAP2 SWAP1 POP JUMP JUMPDEST PUSH0 PUSH1 0x20 DUP3 ADD SWAP1 POP DUP2 DUP2 SUB PUSH0 DUP4 ADD MSTORE PUSH2 0x359 DUP2 PUSH2 0x320 JUMP JUMPDEST SWAP1 POP SWAP2 SWAP1 POP JUMP JUMPDEST PUSH32 0x456E747279506F696E7420616464726573732063616E6E6F74206265207A6572 PUSH0 DUP3 ADD MSTORE PUSH32 0x6F2E2057686F277320676F6E6E612070726F636573732074686520557365724F PUSH1 0x20 DUP3 ADD MSTORE PUSH32 0x70733F0000000000000000000000000000000000000000000000000000000000 PUSH1 0x40 DUP3 ADD MSTORE POP JUMP JUMPDEST PUSH0 PUSH2 0x3E0 PUSH1 0x43 DUP4 PUSH2 0x2C2 JUMP JUMPDEST SWAP2 POP PUSH2 0x3EB DUP3 PUSH2 0x360 JUMP JUMPDEST PUSH1 0x60 DUP3 ADD SWAP1 POP SWAP2 SWAP1 POP JUMP JUMPDEST PUSH0 PUSH1 0x20 DUP3 ADD SWAP1 POP DUP2 DUP2 SUB PUSH0 DUP4 ADD MSTORE PUSH2 0x40D DUP2 PUSH2 0x3D4 JUMP JUMPDEST SWAP1 POP SWAP2 SWAP1 POP JUMP JUMPDEST PUSH1 0x80 MLOAD PUSH2 0x2182 PUSH2 0x441 PUSH0 CODECOPY PUSH0 DUP2 DUP2 PUSH2 0x497 ADD MSTORE DUP2 DUP2 PUSH2 0x977 ADD MSTORE DUP2 DUP2 PUSH2 0xC97 ADD MSTORE PUSH2 0xCBB ADD MSTORE PUSH2 0x2182 PUSH0 RETURN INVALID PUSH1 0x80 PUSH1 0x40 MSTORE PUSH1 0x4 CALLDATASIZE LT PUSH2 0x94 JUMPI PUSH0 CALLDATALOAD PUSH1 0xE0 SHR DUP1 PUSH4 0x8DA5CB5B GT PUSH2 0x58 JUMPI DUP1 PUSH4 0x8DA5CB5B EQ PUSH2 0x187 JUMPI DUP1 PUSH4 0xAFFED0E0 EQ PUSH2 0x1B1 JUMPI DUP1 PUSH4 0xB0D691FE EQ PUSH2 0x1DB JUMPI DUP1 PUSH4 0xB61D27F6 EQ PUSH2 0x205 JUMPI DUP1 PUSH4 0xEB12D61E EQ PUSH2 0x22D JUMPI PUSH2 0x95 JUMP JUMPDEST DUP1 PUSH4 0xE316AB7 EQ PUSH2 0x97 JUMPI DUP1 PUSH4 0x2DE6A880 EQ PUSH2 0xBF JUMPI DUP1 PUSH4 0x43425567 EQ PUSH2 0xFB JUMPI DUP1 PUSH4 0x47E1DA2A EQ PUSH2 0x123 JUMPI DUP1 PUSH4 0x5D2B6A4E EQ PUSH2 0x14B JUMPI PUSH2 0x95 JUMP JUMPDEST JUMPDEST STOP JUMPDEST CALLVALUE DUP1 ISZERO PUSH2 0xA2 JUMPI PUSH0 PUSH0 REVERT JUMPDEST POP PUSH2 0xBD PUSH1 0x4 DUP1 CALLDATASIZE SUB DUP2 ADD SWAP1 PUSH2 0xB8 SWAP2 SWAP1 PUSH2 0x10D6 JUMP JUMPDEST PUSH2 0x255 JUMP JUMPDEST STOP JUMPDEST CALLVALUE DUP1 ISZERO PUSH2 0xCA JUMPI PUSH0 PUSH0 REVERT JUMPDEST POP PUSH2 0xE5 PUSH1 0x4 DUP1 CALLDATASIZE SUB DUP2 ADD SWAP1 PUSH2 0xE0 SWAP2 SWAP1 PUSH2 0x1124 JUMP JUMPDEST PUSH2 0x494 JUMP JUMPDEST PUSH1 0x40 MLOAD PUSH2 0xF2 SWAP2 SWAP1 PUSH2 0x1183 JUMP JUMPDEST PUSH1 0x40 MLOAD DUP1 SWAP2 SUB SWAP1 RETURN JUMPDEST CALLVALUE DUP1 ISZERO PUSH2 0x106 JUMPI PUSH0 PUSH0 REVERT JUMPDEST POP PUSH2 0x121 PUSH1 0x4 DUP1 CALLDATASIZE SUB DUP2 ADD SWAP1 PUSH2 0x11C SWAP2 SWAP1 PUSH2 0x11C6 JUMP JUMPDEST PUSH2 0x78A JUMP JUMPDEST STOP JUMPDEST CALLVALUE DUP1 ISZERO PUSH2 0x12E JUMPI PUSH0 PUSH0 REVERT JUMPDEST POP PUSH2 0x149 PUSH1 0x4 DUP1 CALLDATASIZE SUB DUP2 ADD SWAP1 PUSH2 0x144 SWAP2 SWAP1 PUSH2 0x1321 JUMP JUMPDEST PUSH2 0x975 JUMP JUMPDEST STOP JUMPDEST CALLVALUE DUP1 ISZERO PUSH2 0x156 JUMPI PUSH0 PUSH0 REVERT JUMPDEST POP PUSH2 0x171 PUSH1 0x4 DUP1 CALLDATASIZE SUB DUP2 ADD SWAP1 PUSH2 0x16C SWAP2 SWAP1 PUSH2 0x10D6 JUMP JUMPDEST PUSH2 0xC4E JUMP JUMPDEST PUSH1 0x40 MLOAD PUSH2 0x17E SWAP2 SWAP1 PUSH2 0x13EB JUMP JUMPDEST PUSH1 0x40 MLOAD DUP1 SWAP2 SUB SWAP1 RETURN JUMPDEST CALLVALUE DUP1 ISZERO PUSH2 0x192 JUMPI PUSH0 PUSH0 REVERT JUMPDEST POP PUSH2 0x19B PUSH2 0xC6B JUMP JUMPDEST PUSH1 0x40 MLOAD PUSH2 0x1A8 SWAP2 SWAP1 PUSH2 0x1413 JUMP JUMPDEST PUSH1 0x40 MLOAD DUP1 SWAP2 SUB SWAP1 RETURN JUMPDEST CALLVALUE DUP1 ISZERO PUSH2 0x1BC JUMPI PUSH0 PUSH0 REVERT JUMPDEST POP PUSH2 0x1C5 PUSH2 0xC8F JUMP JUMPDEST PUSH1 0x40 MLOAD PUSH2 0x1D2 SWAP2 SWAP1 PUSH2 0x1183 JUMP JUMPDEST PUSH1 0x40 MLOAD DUP1 SWAP2 SUB SWAP1 RETURN JUMPDEST CALLVALUE DUP1 ISZERO PUSH2 0x1E6 JUMPI PUSH0 PUSH0 REVERT JUMPDEST POP PUSH2 0x1EF PUSH2 0xC95 JUMP JUMPDEST PUSH1 0x40 MLOAD PUSH2 0x1FC SWAP2 SWAP1 PUSH2 0x1413 JUMP JUMPDEST PUSH1 0x40 MLOAD DUP1 SWAP2 SUB SWAP1 RETURN JUMPDEST CALLVALUE DUP1 ISZERO PUSH2 0x210 JUMPI PUSH0 PUSH0 REVERT JUMPDEST POP PUSH2 0x22B PUSH1 0x4 DUP1 CALLDATASIZE SUB DUP2 ADD SWAP1 PUSH2 0x226 SWAP2 SWAP1 PUSH2 0x1481 JUMP JUMPDEST PUSH2 0xCB9 JUMP JUMPDEST STOP JUMPDEST CALLVALUE DUP1 ISZERO PUSH2 0x238 JUMPI PUSH0 PUSH0 REVERT JUMPDEST POP PUSH2 0x253 PUSH1 0x4 DUP1 CALLDATASIZE SUB DUP2 ADD SWAP1 PUSH2 0x24E SWAP2 SWAP1 PUSH2 0x10D6 JUMP JUMPDEST PUSH2 0xE53 JUMP JUMPDEST STOP JUMPDEST PUSH0 PUSH0 SWAP1 SLOAD SWAP1 PUSH2 0x100 EXP SWAP1 DIV PUSH20 0xFFFFFFFFFFFFFFFFFFFFFFFFFFFFFFFFFFFFFFFF AND PUSH20 0xFFFFFFFFFFFFFFFFFFFFFFFFFFFFFFFFFFFFFFFF AND CALLER PUSH20 0xFFFFFFFFFFFFFFFFFFFFFFFFFFFFFFFFFFFFFFFF AND EQ PUSH2 0x2E3 JUMPI PUSH1 0x40 MLOAD PUSH32 0x8C379A000000000000000000000000000000000000000000000000000000000 DUP2 MSTORE PUSH1 0x4 ADD PUSH2 0x2DA SWAP1 PUSH2 0x1572 JUMP JUMPDEST PUSH1 0x40 MLOAD DUP1 SWAP2 SUB SWAP1 REVERT JUMPDEST PUSH0 PUSH0 SWAP1 SLOAD SWAP1 PUSH2 0x100 EXP SWAP1 DIV PUSH20 0xFFFFFFFFFFFFFFFFFFFFFFFFFFFFFFFFFFFFFFFF AND PUSH20 0xFFFFFFFFFFFFFFFFFFFFFFFFFFFFFFFFFFFFFFFF AND DUP2 PUSH20 0xFFFFFFFFFFFFFFFFFFFFFFFFFFFFFFFFFFFFFFFF AND SUB PUSH2 0x371 JUMPI PUSH1 0x40 MLOAD PUSH32 0x8C379A000000000000000000000000000000000000000000000000000000000 DUP2 MSTORE PUSH1 0x4 ADD PUSH2 0x368 SWAP1 PUSH2 0x1600 JUMP JUMPDEST PUSH1 0x40 MLOAD DUP1 SWAP2 SUB SWAP1 REVERT JUMPDEST PUSH1 0x2 PUSH0 DUP3 PUSH20 0xFFFFFFFFFFFFFFFFFFFFFFFFFFFFFFFFFFFFFFFF AND PUSH20 0xFFFFFFFFFFFFFFFFFFFFFFFFFFFFFFFFFFFFFFFF AND DUP2 MSTORE PUSH1 0x20 ADD SWAP1 DUP2 MSTORE PUSH1 0x20 ADD PUSH0 KECCAK256 PUSH0 SWAP1 SLOAD SWAP1 PUSH2 0x100 EXP SWAP1 DIV PUSH1 0xFF AND PUSH2 0x3FA JUMPI PUSH1 0x40 MLOAD PUSH32 0x8C379A000000000000000000000000000000000000000000000000000000000 DUP2 MSTORE PUSH1 0x4 ADD PUSH2 0x3F1 SWAP1 PUSH2 0x168E JUMP JUMPDEST PUSH1 0x40 MLOAD DUP1 SWAP2 SUB SWAP1 REVERT JUMPDEST PUSH0 PUSH1 0x2 PUSH0 DUP4 PUSH20 0xFFFFFFFFFFFFFFFFFFFFFFFFFFFFFFFFFFFFFFFF AND PUSH20 0xFFFFFFFFFFFFFFFFFFFFFFFFFFFFFFFFFFFFFFFF AND DUP2 MSTORE PUSH1 0x20 ADD SWAP1 DUP2 MSTORE PUSH1 0x20 ADD PUSH0 KECCAK256 PUSH0 PUSH2 0x100 EXP DUP2 SLOAD DUP2 PUSH1 0xFF MUL NOT AND SWAP1 DUP4 ISZERO ISZERO MUL OR SWAP1 SSTORE POP DUP1 PUSH20 0xFFFFFFFFFFFFFFFFFFFFFFFFFFFFFFFFFFFFFFFF AND PUSH32 0x3525E22824A8A7DF2C9A6029941C824CF95B6447F1E13D5128FD3826D35AFE8B PUSH1 0x40 MLOAD PUSH1 0x40 MLOAD DUP1 SWAP2 SUB SWAP1 LOG2 POP JUMP JUMPDEST PUSH0 PUSH32 0x0 PUSH20 0xFFFFFFFFFFFFFFFFFFFFFFFFFFFFFFFFFFFFFFFF AND CALLER PUSH20 0xFFFFFFFFFFFFFFFFFFFFFFFFFFFFFFFFFFFFFFFF AND EQ PUSH2 0x523 JUMPI PUSH1 0x40 MLOAD PUSH32 0x8C379A000000000000000000000000000000000000000000000000000000000 DUP2 MSTORE PUSH1 0x4 ADD PUSH2 0x51A SWAP1 PUSH2 0x171C JUMP JUMPDEST PUSH1 0x40 MLOAD DUP1 SWAP2 SUB SWAP1 REVERT JUMPDEST PUSH1 0x1 SLOAD DUP3 PUSH1 0x20 ADD CALLDATALOAD EQ PUSH2 0x56B JUMPI PUSH1 0x40 MLOAD PUSH32 0x8C379A000000000000000000000000000000000000000000000000000000000 DUP2 MSTORE PUSH1 0x4 ADD PUSH2 0x562 SWAP1 PUSH2 0x17AA JUMP JUMPDEST PUSH1 0x40 MLOAD DUP1 SWAP2 SUB SWAP1 REVERT JUMPDEST PUSH1 0x40 DUP3 DUP1 PUSH2 0x120 ADD SWAP1 PUSH2 0x57E SWAP2 SWAP1 PUSH2 0x17D4 JUMP JUMPDEST SWAP1 POP GT PUSH2 0x5C0 JUMPI PUSH1 0x40 MLOAD PUSH32 0x8C379A000000000000000000000000000000000000000000000000000000000 DUP2 MSTORE PUSH1 0x4 ADD PUSH2 0x5B7 SWAP1 PUSH2 0x1880 JUMP JUMPDEST PUSH1 0x40 MLOAD DUP1 SWAP2 SUB SWAP1 REVERT JUMPDEST PUSH0 PUSH0 PUSH0 SWAP1 SLOAD SWAP1 PUSH2 0x100 EXP SWAP1 DIV PUSH20 0xFFFFFFFFFFFFFFFFFFFFFFFFFFFFFFFFFFFFFFFF AND SWAP1 POP PUSH1 0x2 PUSH0 DUP3 PUSH20 0xFFFFFFFFFFFFFFFFFFFFFFFFFFFFFFFFFFFFFFFF AND PUSH20 0xFFFFFFFFFFFFFFFFFFFFFFFFFFFFFFFFFFFFFFFF AND DUP2 MSTORE PUSH1 0x20 ADD SWAP1 DUP2 MSTORE PUSH1 0x20 ADD PUSH0 KECCAK256 PUSH0 SWAP1 SLOAD SWAP1 PUSH2 0x100 EXP SWAP1 DIV PUSH1 0xFF AND PUSH2 0x66D JUMPI PUSH1 0x40 MLOAD PUSH32 0x8C379A000000000000000000000000000000000000000000000000000000000 DUP2 MSTORE PUSH1 0x4 ADD PUSH2 0x664 SWAP1 PUSH2 0x190E JUMP JUMPDEST PUSH1 0x40 MLOAD DUP1 SWAP2 SUB SWAP1 REVERT JUMPDEST PUSH0 DUP4 DUP1 PUSH2 0x100 ADD SWAP1 PUSH2 0x67F SWAP2 SWAP1 PUSH2 0x17D4 JUMP JUMPDEST SWAP1 PUSH2 0x68A SWAP2 SWAP1 PUSH2 0x196D JUMP JUMPDEST PUSH1 0x60 SHR SWAP1 POP PUSH0 PUSH20 0xFFFFFFFFFFFFFFFFFFFFFFFFFFFFFFFFFFFFFFFF AND DUP2 PUSH20 0xFFFFFFFFFFFFFFFFFFFFFFFFFFFFFFFFFFFFFFFF AND EQ PUSH2 0x706 JUMPI DUP1 PUSH20 0xFFFFFFFFFFFFFFFFFFFFFFFFFFFFFFFFFFFFFFFF AND PUSH32 0xD680B39AA4E134B739E3F5BAB3CC8F4C4312C876C15A68E9199B79F2976D390C PUSH1 0x40 MLOAD PUSH1 0x40 MLOAD DUP1 SWAP2 SUB SWAP1 LOG2 JUMPDEST PUSH1 0x1 PUSH0 DUP2 SLOAD DUP1 SWAP3 SWAP2 SWAP1 PUSH2 0x718 SWAP1 PUSH2 0x19F8 JUMP JUMPDEST SWAP2 SWAP1 POP SSTORE POP DUP4 PUSH0 ADD PUSH1 0x20 DUP2 ADD SWAP1 PUSH2 0x72F SWAP2 SWAP1 PUSH2 0x10D6 JUMP JUMPDEST PUSH20 0xFFFFFFFFFFFFFFFFFFFFFFFFFFFFFFFFFFFFFFFF AND PUSH32 0x6F20E7E0B842BC6A4EE93377F71742BB7D3714803C40B26BCCE7DEE4FAA640F0 DUP6 PUSH1 0x20 ADD CALLDATALOAD PUSH1 0x40 MLOAD PUSH2 0x778 SWAP2 SWAP1 PUSH2 0x1183 JUMP JUMPDEST PUSH1 0x40 MLOAD DUP1 SWAP2 SUB SWAP1 LOG2 PUSH0 SWAP3 POP POP POP SWAP2 SWAP1 POP JUMP JUMPDEST PUSH0 PUSH0 SWAP1 SLOAD SWAP1 PUSH2 0x100 EXP SWAP1 DIV PUSH20 0xFFFFFFFFFFFFFFFFFFFFFFFFFFFFFFFFFFFFFFFF AND PUSH20 0xFFFFFFFFFFFFFFFFFFFFFFFFFFFFFFFFFFFFFFFF AND CALLER PUSH20 0xFFFFFFFFFFFFFFFFFFFFFFFFFFFFFFFFFFFFFFFF AND EQ PUSH2 0x818 JUMPI PUSH1 0x40 MLOAD PUSH32 0x8C379A000000000000000000000000000000000000000000000000000000000 DUP2 MSTORE PUSH1 0x4 ADD PUSH2 0x80F SWAP1 PUSH2 0x1AAF JUMP JUMPDEST PUSH1 0x40 MLOAD DUP1 SWAP2 SUB SWAP1 REVERT JUMPDEST PUSH0 PUSH20 0xFFFFFFFFFFFFFFFFFFFFFFFFFFFFFFFFFFFFFFFF AND DUP4 PUSH20 0xFFFFFFFFFFFFFFFFFFFFFFFFFFFFFFFFFFFFFFFF AND SUB PUSH2 0x886 JUMPI PUSH1 0x40 MLOAD PUSH32 0x8C379A000000000000000000000000000000000000000000000000000000000 DUP2 MSTORE PUSH1 0x4 ADD PUSH2 0x87D SWAP1 PUSH2 0x1B17 JUMP JUMPDEST PUSH1 0x40 MLOAD DUP1 SWAP2 SUB SWAP1 REVERT JUMPDEST PUSH0 PUSH20 0xFFFFFFFFFFFFFFFFFFFFFFFFFFFFFFFFFFFFFFFF AND DUP3 PUSH20 0xFFFFFFFFFFFFFFFFFFFFFFFFFFFFFFFFFFFFFFFF AND SUB PUSH2 0x8F4 JUMPI PUSH1 0x40 MLOAD PUSH32 0x8C379A000000000000000000000000000000000000000000000000000000000 DUP2 MSTORE PUSH1 0x4 ADD PUSH2 0x8EB SWAP1 PUSH2 0x1BA5 JUMP JUMPDEST PUSH1 0x40 MLOAD DUP1 SWAP2 SUB SWAP1 REVERT JUMPDEST DUP3 PUSH20 0xFFFFFFFFFFFFFFFFFFFFFFFFFFFFFFFFFFFFFFFF AND PUSH4 0x95EA7B3 DUP4 DUP4 PUSH1 0x40 MLOAD DUP4 PUSH4 0xFFFFFFFF AND PUSH1 0xE0 SHL DUP2 MSTORE PUSH1 0x4 ADD PUSH2 0x92F SWAP3 SWAP2 SWAP1 PUSH2 0x1BC3 JUMP JUMPDEST PUSH1 0x20 PUSH1 0x40 MLOAD DUP1 DUP4 SUB DUP2 PUSH0 DUP8 GAS CALL ISZERO DUP1 ISZERO PUSH2 0x94B JUMPI RETURNDATASIZE PUSH0 PUSH0 RETURNDATACOPY RETURNDATASIZE PUSH0 REVERT JUMPDEST POP POP POP POP PUSH1 0x40 MLOAD RETURNDATASIZE PUSH1 0x1F NOT PUSH1 0x1F DUP3 ADD AND DUP3 ADD DUP1 PUSH1 0x40 MSTORE POP DUP2 ADD SWAP1 PUSH2 0x96F SWAP2 SWAP1 PUSH2 0x1C14 JUMP JUMPDEST POP POP POP POP JUMP JUMPDEST PUSH32 0x0 PUSH20 0xFFFFFFFFFFFFFFFFFFFFFFFFFFFFFFFFFFFFFFFF AND CALLER PUSH20 0xFFFFFFFFFFFFFFFFFFFFFFFFFFFFFFFFFFFFFFFF AND EQ PUSH2 0xA03 JUMPI PUSH1 0x40 MLOAD PUSH32 0x8C379A000000000000000000000000000000000000000000000000000000000 DUP2 MSTORE PUSH1 0x4 ADD PUSH2 0x9FA SWAP1 PUSH2 0x1CD5 JUMP JUMPDEST PUSH1 0x40 MLOAD DUP1 SWAP2 SUB SWAP1 REVERT JUMPDEST DUP4 DUP4 SWAP1 POP DUP7 DUP7 SWAP1 POP EQ DUP1 ISZERO PUSH2 0xA1D JUMPI POP DUP2 DUP2 SWAP1 POP DUP7 DUP7 SWAP1 POP EQ JUMPDEST PUSH2 0xA5C JUMPI PUSH1 0x40 MLOAD PUSH32 0x8C379A000000000000000000000000000000000000000000000000000000000 DUP2 MSTORE PUSH1 0x4 ADD PUSH2 0xA53 SWAP1 PUSH2 0x1D63 JUMP JUMPDEST PUSH1 0x40 MLOAD DUP1 SWAP2 SUB SWAP1 REVERT JUMPDEST PUSH0 PUSH0 SWAP1 POP JUMPDEST DUP7 DUP7 SWAP1 POP DUP2 LT ISZERO PUSH2 0xC45 JUMPI PUSH0 PUSH0 DUP9 DUP9 DUP5 DUP2 DUP2 LT PUSH2 0xA81 JUMPI PUSH2 0xA80 PUSH2 0x1D81 JUMP JUMPDEST JUMPDEST SWAP1 POP PUSH1 0x20 MUL ADD PUSH1 0x20 DUP2 ADD SWAP1 PUSH2 0xA96 SWAP2 SWAP1 PUSH2 0x10D6 JUMP JUMPDEST PUSH20 0xFFFFFFFFFFFFFFFFFFFFFFFFFFFFFFFFFFFFFFFF AND DUP8 DUP8 DUP6 DUP2 DUP2 LT PUSH2 0xABF JUMPI PUSH2 0xABE PUSH2 0x1D81 JUMP JUMPDEST JUMPDEST SWAP1 POP PUSH1 0x20 MUL ADD CALLDATALOAD DUP7 DUP7 DUP7 DUP2 DUP2 LT PUSH2 0xAD9 JUMPI PUSH2 0xAD8 PUSH2 0x1D81 JUMP JUMPDEST JUMPDEST SWAP1 POP PUSH1 0x20 MUL DUP2 ADD SWAP1 PUSH2 0xAEB SWAP2 SWAP1 PUSH2 0x17D4 JUMP JUMPDEST PUSH1 0x40 MLOAD PUSH2 0xAF9 SWAP3 SWAP2 SWAP1 PUSH2 0x1DEA JUMP JUMPDEST PUSH0 PUSH1 0x40 MLOAD DUP1 DUP4 SUB DUP2 DUP6 DUP8 GAS CALL SWAP3 POP POP POP RETURNDATASIZE DUP1 PUSH0 DUP2 EQ PUSH2 0xB33 JUMPI PUSH1 0x40 MLOAD SWAP2 POP PUSH1 0x1F NOT PUSH1 0x3F RETURNDATASIZE ADD AND DUP3 ADD PUSH1 0x40 MSTORE RETURNDATASIZE DUP3 MSTORE RETURNDATASIZE PUSH0 PUSH1 0x20 DUP5 ADD RETURNDATACOPY PUSH2 0xB38 JUMP JUMPDEST PUSH1 0x60 SWAP2 POP JUMPDEST POP SWAP2 POP SWAP2 POP DUP2 DUP2 SWAP1 PUSH2 0xB80 JUMPI PUSH1 0x40 MLOAD PUSH32 0x8C379A000000000000000000000000000000000000000000000000000000000 DUP2 MSTORE PUSH1 0x4 ADD PUSH2 0xB77 SWAP2 SWAP1 PUSH2 0x1E62 JUMP JUMPDEST PUSH1 0x40 MLOAD DUP1 SWAP2 SUB SWAP1 REVERT JUMPDEST POP DUP9 DUP9 DUP5 DUP2 DUP2 LT PUSH2 0xB94 JUMPI PUSH2 0xB93 PUSH2 0x1D81 JUMP JUMPDEST JUMPDEST SWAP1 POP PUSH1 0x20 MUL ADD PUSH1 0x20 DUP2 ADD SWAP1 PUSH2 0xBA9 SWAP2 SWAP1 PUSH2 0x10D6 JUMP JUMPDEST PUSH20 0xFFFFFFFFFFFFFFFFFFFFFFFFFFFFFFFFFFFFFFFF AND PUSH32 0xCAF938DE11C367272220BFD1D2BAA99CA46665E7BC4D85F00ADB51B90FE1FA9F DUP9 DUP9 DUP7 DUP2 DUP2 LT PUSH2 0xBF3 JUMPI PUSH2 0xBF2 PUSH2 0x1D81 JUMP JUMPDEST JUMPDEST SWAP1 POP PUSH1 0x20 MUL ADD CALLDATALOAD DUP8 DUP8 DUP8 DUP2 DUP2 LT PUSH2 0xC0D JUMPI PUSH2 0xC0C PUSH2 0x1D81 JUMP JUMPDEST JUMPDEST SWAP1 POP PUSH1 0x20 MUL DUP2 ADD SWAP1 PUSH2 0xC1F SWAP2 SWAP1 PUSH2 0x17D4 JUMP JUMPDEST PUSH1 0x40 MLOAD PUSH2 0xC2E SWAP4 SWAP3 SWAP2 SWAP1 PUSH2 0x1EBE JUMP JUMPDEST PUSH1 0x40 MLOAD DUP1 SWAP2 SUB SWAP1 LOG2 POP POP DUP1 DUP1 PUSH1 0x1 ADD SWAP2 POP POP PUSH2 0xA61 JUMP JUMPDEST POP POP POP POP POP POP POP JUMP JUMPDEST PUSH1 0x2 PUSH1 0x20 MSTORE DUP1 PUSH0 MSTORE PUSH1 0x40 PUSH0 KECCAK256 PUSH0 SWAP2 POP SLOAD SWAP1 PUSH2 0x100 EXP SWAP1 DIV PUSH1 0xFF AND DUP2 JUMP JUMPDEST PUSH0 PUSH0 SWAP1 SLOAD SWAP1 PUSH2 0x100 EXP SWAP1 DIV PUSH20 0xFFFFFFFFFFFFFFFFFFFFFFFFFFFFFFFFFFFFFFFF AND DUP2 JUMP JUMPDEST PUSH1 0x1 SLOAD DUP2 JUMP JUMPDEST PUSH32 0x0 DUP2 JUMP JUMPDEST PUSH32 0x0 PUSH20 0xFFFFFFFFFFFFFFFFFFFFFFFFFFFFFFFFFFFFFFFF AND CALLER PUSH20 0xFFFFFFFFFFFFFFFFFFFFFFFFFFFFFFFFFFFFFFFF AND EQ PUSH2 0xD47 JUMPI PUSH1 0x40 MLOAD PUSH32 0x8C379A000000000000000000000000000000000000000000000000000000000 DUP2 MSTORE PUSH1 0x4 ADD PUSH2 0xD3E SWAP1 PUSH2 0x1F84 JUMP JUMPDEST PUSH1 0x40 MLOAD DUP1 SWAP2 SUB SWAP1 REVERT JUMPDEST PUSH0 PUSH0 DUP6 PUSH20 0xFFFFFFFFFFFFFFFFFFFFFFFFFFFFFFFFFFFFFFFF AND DUP6 DUP6 DUP6 PUSH1 0x40 MLOAD PUSH2 0xD71 SWAP3 SWAP2 SWAP1 PUSH2 0x1DEA JUMP JUMPDEST PUSH0 PUSH1 0x40 MLOAD DUP1 DUP4 SUB DUP2 DUP6 DUP8 GAS CALL SWAP3 POP POP POP RETURNDATASIZE DUP1 PUSH0 DUP2 EQ PUSH2 0xDAB JUMPI PUSH1 0x40 MLOAD SWAP2 POP PUSH1 0x1F NOT PUSH1 0x3F RETURNDATASIZE ADD AND DUP3 ADD PUSH1 0x40 MSTORE RETURNDATASIZE DUP3 MSTORE RETURNDATASIZE PUSH0 PUSH1 0x20 DUP5 ADD RETURNDATACOPY PUSH2 0xDB0 JUMP JUMPDEST PUSH1 0x60 SWAP2 POP JUMPDEST POP SWAP2 POP SWAP2 POP DUP2 DUP2 SWAP1 PUSH2 0xDF8 JUMPI PUSH1 0x40 MLOAD PUSH32 0x8C379A000000000000000000000000000000000000000000000000000000000 DUP2 MSTORE PUSH1 0x4 ADD PUSH2 0xDEF SWAP2 SWAP1 PUSH2 0x1E62 JUMP JUMPDEST PUSH1 0x40 MLOAD DUP1 SWAP2 SUB SWAP1 REVERT JUMPDEST POP DUP6 PUSH20 0xFFFFFFFFFFFFFFFFFFFFFFFFFFFFFFFFFFFFFFFF AND PUSH32 0xCAF938DE11C367272220BFD1D2BAA99CA46665E7BC4D85F00ADB51B90FE1FA9F DUP7 DUP7 DUP7 PUSH1 0x40 MLOAD PUSH2 0xE43 SWAP4 SWAP3 SWAP2 SWAP1 PUSH2 0x1EBE JUMP JUMPDEST PUSH1 0x40 MLOAD DUP1 SWAP2 SUB SWAP1 LOG2 POP POP POP POP POP POP JUMP JUMPDEST PUSH0 PUSH0 SWAP1 SLOAD SWAP1 PUSH2 0x100 EXP SWAP1 DIV PUSH20 0xFFFFFFFFFFFFFFFFFFFFFFFFFFFFFFFFFFFFFFFF AND PUSH20 0xFFFFFFFFFFFFFFFFFFFFFFFFFFFFFFFFFFFFFFFF AND CALLER PUSH20 0xFFFFFFFFFFFFFFFFFFFFFFFFFFFFFFFFFFFFFFFF AND EQ PUSH2 0xEE1 JUMPI PUSH1 0x40 MLOAD PUSH32 0x8C379A000000000000000000000000000000000000000000000000000000000 DUP2 MSTORE PUSH1 0x4 ADD PUSH2 0xED8 SWAP1 PUSH2 0x2012 JUMP JUMPDEST PUSH1 0x40 MLOAD DUP1 SWAP2 SUB SWAP1 REVERT JUMPDEST PUSH0 PUSH20 0xFFFFFFFFFFFFFFFFFFFFFFFFFFFFFFFFFFFFFFFF AND DUP2 PUSH20 0xFFFFFFFFFFFFFFFFFFFFFFFFFFFFFFFFFFFFFFFF AND SUB PUSH2 0xF4F JUMPI PUSH1 0x40 MLOAD PUSH32 0x8C379A000000000000000000000000000000000000000000000000000000000 DUP2 MSTORE PUSH1 0x4 ADD PUSH2 0xF46 SWAP1 PUSH2 0x20A0 JUMP JUMPDEST PUSH1 0x40 MLOAD DUP1 SWAP2 SUB SWAP1 REVERT JUMPDEST PUSH1 0x2 PUSH0 DUP3 PUSH20 0xFFFFFFFFFFFFFFFFFFFFFFFFFFFFFFFFFFFFFFFF AND PUSH20 0xFFFFFFFFFFFFFFFFFFFFFFFFFFFFFFFFFFFFFFFF AND DUP2 MSTORE PUSH1 0x20 ADD SWAP1 DUP2 MSTORE PUSH1 0x20 ADD PUSH0 KECCAK256 PUSH0 SWAP1 SLOAD SWAP1 PUSH2 0x100 EXP SWAP1 DIV PUSH1 0xFF AND ISZERO PUSH2 0xFD9 JUMPI PUSH1 0x40 MLOAD PUSH32 0x8C379A000000000000000000000000000000000000000000000000000000000 DUP2 MSTORE PUSH1 0x4 ADD PUSH2 0xFD0 SWAP1 PUSH2 0x212E JUMP JUMPDEST PUSH1 0x40 MLOAD DUP1 SWAP2 SUB SWAP1 REVERT JUMPDEST PUSH1 0x1 PUSH1 0x2 PUSH0 DUP4 PUSH20 0xFFFFFFFFFFFFFFFFFFFFFFFFFFFFFFFFFFFFFFFF AND PUSH20 0xFFFFFFFFFFFFFFFFFFFFFFFFFFFFFFFFFFFFFFFF AND DUP2 MSTORE PUSH1 0x20 ADD SWAP1 DUP2 MSTORE PUSH1 0x20 ADD PUSH0 KECCAK256 PUSH0 PUSH2 0x100 EXP DUP2 SLOAD DUP2 PUSH1 0xFF MUL NOT AND SWAP1 DUP4 ISZERO ISZERO MUL OR SWAP1 SSTORE POP DUP1 PUSH20 0xFFFFFFFFFFFFFFFFFFFFFFFFFFFFFFFFFFFFFFFF AND PUSH32 0x47D1C22A25BB3A5D4E481B9B1E6944C2EADE3181A0A20B495ED61D35B5323F24 PUSH1 0x40 MLOAD PUSH1 0x40 MLOAD DUP1 SWAP2 SUB SWAP1 LOG2 POP JUMP JUMPDEST PUSH0 PUSH0 REVERT JUMPDEST PUSH0 PUSH0 REVERT JUMPDEST PUSH0 PUSH20 0xFFFFFFFFFFFFFFFFFFFFFFFFFFFFFFFFFFFFFFFF DUP3 AND SWAP1 POP SWAP2 SWAP1 POP JUMP JUMPDEST PUSH0 PUSH2 0x10A5 DUP3 PUSH2 0x107C JUMP JUMPDEST SWAP1 POP SWAP2 SWAP1 POP JUMP JUMPDEST PUSH2 0x10B5 DUP2 PUSH2 0x109B JUMP JUMPDEST DUP2 EQ PUSH2 0x10BF JUMPI PUSH0 PUSH0 REVERT JUMPDEST POP JUMP JUMPDEST PUSH0 DUP2 CALLDATALOAD SWAP1 POP PUSH2 0x10D0 DUP2 PUSH2 0x10AC JUMP JUMPDEST SWAP3 SWAP2 POP POP JUMP JUMPDEST PUSH0 PUSH1 0x20 DUP3 DUP5 SUB SLT ISZERO PUSH2 0x10EB JUMPI PUSH2 0x10EA PUSH2 0x1074 JUMP JUMPDEST JUMPDEST PUSH0 PUSH2 0x10F8 DUP5 DUP3 DUP6 ADD PUSH2 0x10C2 JUMP JUMPDEST SWAP2 POP POP SWAP3 SWAP2 POP POP JUMP JUMPDEST PUSH0 PUSH0 REVERT JUMPDEST PUSH0 PUSH2 0x140 DUP3 DUP5 SUB SLT ISZERO PUSH2 0x111B JUMPI PUSH2 0x111A PUSH2 0x1101 JUMP JUMPDEST JUMPDEST DUP2 SWAP1 POP SWAP3 SWAP2 POP POP JUMP JUMPDEST PUSH0 PUSH1 0x20 DUP3 DUP5 SUB SLT ISZERO PUSH2 0x1139 JUMPI PUSH2 0x1138 PUSH2 0x1074 JUMP JUMPDEST JUMPDEST PUSH0 DUP3 ADD CALLDATALOAD PUSH8 0xFFFFFFFFFFFFFFFF DUP2 GT ISZERO PUSH2 0x1156 JUMPI PUSH2 0x1155 PUSH2 0x1078 JUMP JUMPDEST JUMPDEST PUSH2 0x1162 DUP5 DUP3 DUP6 ADD PUSH2 0x1105 JUMP JUMPDEST SWAP2 POP POP SWAP3 SWAP2 POP POP JUMP JUMPDEST PUSH0 DUP2 SWAP1 POP SWAP2 SWAP1 POP JUMP JUMPDEST PUSH2 0x117D DUP2 PUSH2 0x116B JUMP JUMPDEST DUP3 MSTORE POP POP JUMP JUMPDEST PUSH0 PUSH1 0x20 DUP3 ADD SWAP1 POP PUSH2 0x1196 PUSH0 DUP4 ADD DUP5 PUSH2 0x1174 JUMP JUMPDEST SWAP3 SWAP2 POP POP JUMP JUMPDEST PUSH2 0x11A5 DUP2 PUSH2 0x116B JUMP JUMPDEST DUP2 EQ PUSH2 0x11AF JUMPI PUSH0 PUSH0 REVERT JUMPDEST POP JUMP JUMPDEST PUSH0 DUP2 CALLDATALOAD SWAP1 POP PUSH2 0x11C0 DUP2 PUSH2 0x119C JUMP JUMPDEST SWAP3 SWAP2 POP POP JUMP JUMPDEST PUSH0 PUSH0 PUSH0 PUSH1 0x60 DUP5 DUP7 SUB SLT ISZERO PUSH2 0x11DD JUMPI PUSH2 0x11DC PUSH2 0x1074 JUMP JUMPDEST JUMPDEST PUSH0 PUSH2 0x11EA DUP7 DUP3 DUP8 ADD PUSH2 0x10C2 JUMP JUMPDEST SWAP4 POP POP PUSH1 0x20 PUSH2 0x11FB DUP7 DUP3 DUP8 ADD PUSH2 0x10C2 JUMP JUMPDEST SWAP3 POP POP PUSH1 0x40 PUSH2 0x120C DUP7 DUP3 DUP8 ADD PUSH2 0x11B2 JUMP JUMPDEST SWAP2 POP POP SWAP3 POP SWAP3 POP SWAP3 JUMP JUMPDEST PUSH0 PUSH0 REVERT JUMPDEST PUSH0 PUSH0 REVERT JUMPDEST PUSH0 PUSH0 REVERT JUMPDEST PUSH0 PUSH0 DUP4 PUSH1 0x1F DUP5 ADD SLT PUSH2 0x1237 JUMPI PUSH2 0x1236 PUSH2 0x1216 JUMP JUMPDEST JUMPDEST DUP3 CALLDATALOAD SWAP1 POP PUSH8 0xFFFFFFFFFFFFFFFF DUP2 GT ISZERO PUSH2 0x1254 JUMPI PUSH2 0x1253 PUSH2 0x121A JUMP JUMPDEST JUMPDEST PUSH1 0x20 DUP4 ADD SWAP2 POP DUP4 PUSH1 0x20 DUP3 MUL DUP4 ADD GT ISZERO PUSH2 0x1270 JUMPI PUSH2 0x126F PUSH2 0x121E JUMP JUMPDEST JUMPDEST SWAP3 POP SWAP3 SWAP1 POP JUMP JUMPDEST PUSH0 PUSH0 DUP4 PUSH1 0x1F DUP5 ADD SLT PUSH2 0x128C JUMPI PUSH2 0x128B PUSH2 0x1216 JUMP JUMPDEST JUMPDEST DUP3 CALLDATALOAD SWAP1 POP PUSH8 0xFFFFFFFFFFFFFFFF DUP2 GT ISZERO PUSH2 0x12A9 JUMPI PUSH2 0x12A8 PUSH2 0x121A JUMP JUMPDEST JUMPDEST PUSH1 0x20 DUP4 ADD SWAP2 POP DUP4 PUSH1 0x20 DUP3 MUL DUP4 ADD GT ISZERO PUSH2 0x12C5 JUMPI PUSH2 0x12C4 PUSH2 0x121E JUMP JUMPDEST JUMPDEST SWAP3 POP SWAP3 SWAP1 POP JUMP JUMPDEST PUSH0 PUSH0 DUP4 PUSH1 0x1F DUP5 ADD SLT PUSH2 0x12E1 JUMPI PUSH2 0x12E0 PUSH2 0x1216 JUMP JUMPDEST JUMPDEST DUP3 CALLDATALOAD SWAP1 POP PUSH8 0xFFFFFFFFFFFFFFFF DUP2 GT ISZERO PUSH2 0x12FE JUMPI PUSH2 0x12FD PUSH2 0x121A JUMP JUMPDEST JUMPDEST PUSH1 0x20 DUP4 ADD SWAP2 POP DUP4 PUSH1 0x20 DUP3 MUL DUP4 ADD GT ISZERO PUSH2 0x131A JUMPI PUSH2 0x1319 PUSH2 0x121E JUMP JUMPDEST JUMPDEST SWAP3 POP SWAP3 SWAP1 POP JUMP JUMPDEST PUSH0 PUSH0 PUSH0 PUSH0 PUSH0 PUSH0 PUSH1 0x60 DUP8 DUP10 SUB SLT ISZERO PUSH2 0x133B JUMPI PUSH2 0x133A PUSH2 0x1074 JUMP JUMPDEST JUMPDEST PUSH0 DUP8 ADD CALLDATALOAD PUSH8 0xFFFFFFFFFFFFFFFF DUP2 GT ISZERO PUSH2 0x1358 JUMPI PUSH2 0x1357 PUSH2 0x1078 JUMP JUMPDEST JUMPDEST PUSH2 0x1364 DUP10 DUP3 DUP11 ADD PUSH2 0x1222 JUMP JUMPDEST SWAP7 POP SWAP7 POP POP PUSH1 0x20 DUP8 ADD CALLDATALOAD PUSH8 0xFFFFFFFFFFFFFFFF DUP2 GT ISZERO PUSH2 0x1387 JUMPI PUSH2 0x1386 PUSH2 0x1078 JUMP JUMPDEST JUMPDEST PUSH2 0x1393 DUP10 DUP3 DUP11 ADD PUSH2 0x1277 JUMP JUMPDEST SWAP5 POP SWAP5 POP POP PUSH1 0x40 DUP8 ADD CALLDATALOAD PUSH8 0xFFFFFFFFFFFFFFFF DUP2 GT ISZERO PUSH2 0x13B6 JUMPI PUSH2 0x13B5 PUSH2 0x1078 JUMP JUMPDEST JUMPDEST PUSH2 0x13C2 DUP10 DUP3 DUP11 ADD PUSH2 0x12CC JUMP JUMPDEST SWAP3 POP SWAP3 POP POP SWAP3 SWAP6 POP SWAP3 SWAP6 POP SWAP3 SWAP6 JUMP JUMPDEST PUSH0 DUP2 ISZERO ISZERO SWAP1 POP SWAP2 SWAP1 POP JUMP JUMPDEST PUSH2 0x13E5 DUP2 PUSH2 0x13D1 JUMP JUMPDEST DUP3 MSTORE POP POP JUMP JUMPDEST PUSH0 PUSH1 0x20 DUP3 ADD SWAP1 POP PUSH2 0x13FE PUSH0 DUP4 ADD DUP5 PUSH2 0x13DC JUMP JUMPDEST SWAP3 SWAP2 POP POP JUMP JUMPDEST PUSH2 0x140D DUP2 PUSH2 0x109B JUMP JUMPDEST DUP3 MSTORE POP POP JUMP JUMPDEST PUSH0 PUSH1 0x20 DUP3 ADD SWAP1 POP PUSH2 0x1426 PUSH0 DUP4 ADD DUP5 PUSH2 0x1404 JUMP JUMPDEST SWAP3 SWAP2 POP POP JUMP JUMPDEST PUSH0 PUSH0 DUP4 PUSH1 0x1F DUP5 ADD SLT PUSH2 0x1441 JUMPI PUSH2 0x1440 PUSH2 0x1216 JUMP JUMPDEST JUMPDEST DUP3 CALLDATALOAD SWAP1 POP PUSH8 0xFFFFFFFFFFFFFFFF DUP2 GT ISZERO PUSH2 0x145E JUMPI PUSH2 0x145D PUSH2 0x121A JUMP JUMPDEST JUMPDEST PUSH1 0x20 DUP4 ADD SWAP2 POP DUP4 PUSH1 0x1 DUP3 MUL DUP4 ADD GT ISZERO PUSH2 0x147A JUMPI PUSH2 0x1479 PUSH2 0x121E JUMP JUMPDEST JUMPDEST SWAP3 POP SWAP3 SWAP1 POP JUMP JUMPDEST PUSH0 PUSH0 PUSH0 PUSH0 PUSH1 0x60 DUP6 DUP8 SUB SLT ISZERO PUSH2 0x1499 JUMPI PUSH2 0x1498 PUSH2 0x1074 JUMP JUMPDEST JUMPDEST PUSH0 PUSH2 0x14A6 DUP8 DUP3 DUP9 ADD PUSH2 0x10C2 JUMP JUMPDEST SWAP5 POP POP PUSH1 0x20 PUSH2 0x14B7 DUP8 DUP3 DUP9 ADD PUSH2 0x11B2 JUMP JUMPDEST SWAP4 POP POP PUSH1 0x40 DUP6 ADD CALLDATALOAD PUSH8 0xFFFFFFFFFFFFFFFF DUP2 GT ISZERO PUSH2 0x14D8 JUMPI PUSH2 0x14D7 PUSH2 0x1078 JUMP JUMPDEST JUMPDEST PUSH2 0x14E4 DUP8 DUP3 DUP9 ADD PUSH2 0x142C JUMP JUMPDEST SWAP3 POP SWAP3 POP POP SWAP3 SWAP6 SWAP2 SWAP5 POP SWAP3 POP JUMP JUMPDEST PUSH0 DUP3 DUP3 MSTORE PUSH1 0x20 DUP3 ADD SWAP1 POP SWAP3 SWAP2 POP POP JUMP JUMPDEST PUSH32 0x4F6E6C7920746865206F776E65722063616E2072656D6F7665207369676E6572 PUSH0 DUP3 ADD MSTORE PUSH32 0x732E204D7920686F7573652C206D792072756C65732E00000000000000000000 PUSH1 0x20 DUP3 ADD MSTORE POP JUMP JUMPDEST PUSH0 PUSH2 0x155C PUSH1 0x36 DUP4 PUSH2 0x14F2 JUMP JUMPDEST SWAP2 POP PUSH2 0x1567 DUP3 PUSH2 0x1502 JUMP JUMPDEST PUSH1 0x40 DUP3 ADD SWAP1 POP SWAP2 SWAP1 POP JUMP JUMPDEST PUSH0 PUSH1 0x20 DUP3 ADD SWAP1 POP DUP2 DUP2 SUB PUSH0 DUP4 ADD MSTORE PUSH2 0x1589 DUP2 PUSH2 0x1550 JUMP JUMPDEST SWAP1 POP SWAP2 SWAP1 POP JUMP JUMPDEST PUSH32 0x43616E27742072656D6F766520746865206F776E65722061732061207369676E PUSH0 DUP3 ADD MSTORE PUSH32 0x65722E20546861742773206A7573742073656C662D7361626F746167652E0000 PUSH1 0x20 DUP3 ADD MSTORE POP JUMP JUMPDEST PUSH0 PUSH2 0x15EA PUSH1 0x3E DUP4 PUSH2 0x14F2 JUMP JUMPDEST SWAP2 POP PUSH2 0x15F5 DUP3 PUSH2 0x1590 JUMP JUMPDEST PUSH1 0x40 DUP3 ADD SWAP1 POP SWAP2 SWAP1 POP JUMP JUMPDEST PUSH0 PUSH1 0x20 DUP3 ADD SWAP1 POP DUP2 DUP2 SUB PUSH0 DUP4 ADD MSTORE PUSH2 0x1617 DUP2 PUSH2 0x15DE JUMP JUMPDEST SWAP1 POP SWAP2 SWAP1 POP JUMP JUMPDEST PUSH32 0x5468697320616464726573732069736E27742061207369676E65722E20576861 PUSH0 DUP3 ADD MSTORE PUSH32 0x742061726520796F75206576656E20646F696E673F0000000000000000000000 PUSH1 0x20 DUP3 ADD MSTORE POP JUMP JUMPDEST PUSH0 PUSH2 0x1678 PUSH1 0x35 DUP4 PUSH2 0x14F2 JUMP JUMPDEST SWAP2 POP PUSH2 0x1683 DUP3 PUSH2 0x161E JUMP JUMPDEST PUSH1 0x40 DUP3 ADD SWAP1 POP SWAP2 SWAP1 POP JUMP JUMPDEST PUSH0 PUSH1 0x20 DUP3 ADD SWAP1 POP DUP2 DUP2 SUB PUSH0 DUP4 ADD MSTORE PUSH2 0x16A5 DUP2 PUSH2 0x166C JUMP JUMPDEST SWAP1 POP SWAP2 SWAP1 POP JUMP JUMPDEST PUSH32 0x56616C69646174696F6E2063616E206F6E6C792062652063616C6C6564206279 PUSH0 DUP3 ADD MSTORE PUSH32 0x2074686520456E747279506F696E742E00000000000000000000000000000000 PUSH1 0x20 DUP3 ADD MSTORE POP JUMP JUMPDEST PUSH0 PUSH2 0x1706 PUSH1 0x30 DUP4 PUSH2 0x14F2 JUMP JUMPDEST SWAP2 POP PUSH2 0x1711 DUP3 PUSH2 0x16AC JUMP JUMPDEST PUSH1 0x40 DUP3 ADD SWAP1 POP SWAP2 SWAP1 POP JUMP JUMPDEST PUSH0 PUSH1 0x20 DUP3 ADD SWAP1 POP DUP2 DUP2 SUB PUSH0 DUP4 ADD MSTORE PUSH2 0x1733 DUP2 PUSH2 0x16FA JUMP JUMPDEST SWAP1 POP SWAP2 SWAP1 POP JUMP JUMPDEST PUSH32 0x496E76616C6964206E6F6E63652E205468697320557365724F70206973206F6C PUSH0 DUP3 ADD MSTORE PUSH32 0x64206E657773206F72206F7574206F66206F726465722E000000000000000000 PUSH1 0x20 DUP3 ADD MSTORE POP JUMP JUMPDEST PUSH0 PUSH2 0x1794 PUSH1 0x37 DUP4 PUSH2 0x14F2 JUMP JUMPDEST SWAP2 POP PUSH2 0x179F DUP3 PUSH2 0x173A JUMP JUMPDEST PUSH1 0x40 DUP3 ADD SWAP1 POP SWAP2 SWAP1 POP JUMP JUMPDEST PUSH0 PUSH1 0x20 DUP3 ADD SWAP1 POP DUP2 DUP2 SUB PUSH0 DUP4 ADD MSTORE PUSH2 0x17C1 DUP2 PUSH2 0x1788 JUMP JUMPDEST SWAP1 POP SWAP2 SWAP1 POP JUMP JUMPDEST PUSH0 PUSH0 REVERT JUMPDEST PUSH0 PUSH0 REVERT JUMPDEST PUSH0 PUSH0 REVERT JUMPDEST PUSH0 PUSH0 DUP4 CALLDATALOAD PUSH1 0x1 PUSH1 0x20 SUB DUP5 CALLDATASIZE SUB SUB DUP2 SLT PUSH2 0x17F0 JUMPI PUSH2 0x17EF PUSH2 0x17C8 JUMP JUMPDEST JUMPDEST DUP1 DUP5 ADD SWAP3 POP DUP3 CALLDATALOAD SWAP2 POP PUSH8 0xFFFFFFFFFFFFFFFF DUP3 GT ISZERO PUSH2 0x1812 JUMPI PUSH2 0x1811 PUSH2 0x17CC JUMP JUMPDEST JUMPDEST PUSH1 0x20 DUP4 ADD SWAP3 POP PUSH1 0x1 DUP3 MUL CALLDATASIZE SUB DUP4 SGT ISZERO PUSH2 0x182E JUMPI PUSH2 0x182D PUSH2 0x17D0 JUMP JUMPDEST JUMPDEST POP SWAP3 POP SWAP3 SWAP1 POP JUMP JUMPDEST PUSH32 0x5369676E617475726520746F6F2073686F72742E204C6F6F6B73207375732E00 PUSH0 DUP3 ADD MSTORE POP JUMP JUMPDEST PUSH0 PUSH2 0x186A PUSH1 0x1F DUP4 PUSH2 0x14F2 JUMP JUMPDEST SWAP2 POP PUSH2 0x1875 DUP3 PUSH2 0x1836 JUMP JUMPDEST PUSH1 0x20 DUP3 ADD SWAP1 POP SWAP2 SWAP1 POP JUMP JUMPDEST PUSH0 PUSH1 0x20 DUP3 ADD SWAP1 POP DUP2 DUP2 SUB PUSH0 DUP4 ADD MSTORE PUSH2 0x1897 DUP2 PUSH2 0x185E JUMP JUMPDEST SWAP1 POP SWAP2 SWAP1 POP JUMP JUMPDEST PUSH32 0x5369676E6174757265206E6F742066726F6D20616E20617574686F72697A6564 PUSH0 DUP3 ADD MSTORE PUSH32 0x207369676E65722E2057686F2061726520796F753F0000000000000000000000 PUSH1 0x20 DUP3 ADD MSTORE POP JUMP JUMPDEST PUSH0 PUSH2 0x18F8 PUSH1 0x35 DUP4 PUSH2 0x14F2 JUMP JUMPDEST SWAP2 POP PUSH2 0x1903 DUP3 PUSH2 0x189E JUMP JUMPDEST PUSH1 0x40 DUP3 ADD SWAP1 POP SWAP2 SWAP1 POP JUMP JUMPDEST PUSH0 PUSH1 0x20 DUP3 ADD SWAP1 POP DUP2 DUP2 SUB PUSH0 DUP4 ADD MSTORE PUSH2 0x1925 DUP2 PUSH2 0x18EC JUMP JUMPDEST SWAP1 POP SWAP2 SWAP1 POP JUMP JUMPDEST PUSH0 DUP3 SWAP1 POP SWAP3 SWAP2 POP POP JUMP JUMPDEST PUSH0 PUSH32 0xFFFFFFFFFFFFFFFFFFFFFFFFFFFFFFFFFFFFFFFF000000000000000000000000 DUP3 AND SWAP1 POP SWAP2 SWAP1 POP JUMP JUMPDEST PUSH0 DUP3 DUP3 SHL SWAP1 POP SWAP3 SWAP2 POP POP JUMP JUMPDEST PUSH0 PUSH2 0x1978 DUP4 DUP4 PUSH2 0x192C JUMP JUMPDEST DUP3 PUSH2 0x1983 DUP2 CALLDATALOAD PUSH2 0x1936 JUMP JUMPDEST SWAP3 POP PUSH1 0x14 DUP3 LT ISZERO PUSH2 0x19C3 JUMPI PUSH2 0x19BE PUSH32 0xFFFFFFFFFFFFFFFFFFFFFFFFFFFFFFFFFFFFFFFF000000000000000000000000 DUP4 PUSH1 0x14 SUB PUSH1 0x8 MUL PUSH2 0x1961 JUMP JUMPDEST DUP4 AND SWAP3 POP JUMPDEST POP POP SWAP3 SWAP2 POP POP JUMP JUMPDEST PUSH32 0x4E487B7100000000000000000000000000000000000000000000000000000000 PUSH0 MSTORE PUSH1 0x11 PUSH1 0x4 MSTORE PUSH1 0x24 PUSH0 REVERT JUMPDEST PUSH0 PUSH2 0x1A02 DUP3 PUSH2 0x116B JUMP JUMPDEST SWAP2 POP PUSH32 0xFFFFFFFFFFFFFFFFFFFFFFFFFFFFFFFFFFFFFFFFFFFFFFFFFFFFFFFFFFFFFFFF DUP3 SUB PUSH2 0x1A34 JUMPI PUSH2 0x1A33 PUSH2 0x19CB JUMP JUMPDEST JUMPDEST PUSH1 0x1 DUP3 ADD SWAP1 POP SWAP2 SWAP1 POP JUMP JUMPDEST PUSH32 0x4F6E6C7920746865206F776E65722063616E20617070726F766520746F6B656E PUSH0 DUP3 ADD MSTORE PUSH32 0x7320666F722061205061796D61737465722E0000000000000000000000000000 PUSH1 0x20 DUP3 ADD MSTORE POP JUMP JUMPDEST PUSH0 PUSH2 0x1A99 PUSH1 0x32 DUP4 PUSH2 0x14F2 JUMP JUMPDEST SWAP2 POP PUSH2 0x1AA4 DUP3 PUSH2 0x1A3F JUMP JUMPDEST PUSH1 0x40 DUP3 ADD SWAP1 POP SWAP2 SWAP1 POP JUMP JUMPDEST PUSH0 PUSH1 0x20 DUP3 ADD SWAP1 POP DUP2 DUP2 SUB PUSH0 DUP4 ADD MSTORE PUSH2 0x1AC6 DUP2 PUSH2 0x1A8D JUMP JUMPDEST SWAP1 POP SWAP2 SWAP1 POP JUMP JUMPDEST PUSH32 0x546F6B656E20616464726573732063616E6E6F74206265207A65726F2E000000 PUSH0 DUP3 ADD MSTORE POP JUMP JUMPDEST PUSH0 PUSH2 0x1B01 PUSH1 0x1D DUP4 PUSH2 0x14F2 JUMP JUMPDEST SWAP2 POP PUSH2 0x1B0C DUP3 PUSH2 0x1ACD JUMP JUMPDEST PUSH1 0x20 DUP3 ADD SWAP1 POP SWAP2 SWAP1 POP JUMP JUMPDEST PUSH0 PUSH1 0x20 DUP3 ADD SWAP1 POP DUP2 DUP2 SUB PUSH0 DUP4 ADD MSTORE PUSH2 0x1B2E DUP2 PUSH2 0x1AF5 JUMP JUMPDEST SWAP1 POP SWAP2 SWAP1 POP JUMP JUMPDEST PUSH32 0x5061796D617374657220616464726573732063616E6E6F74206265207A65726F PUSH0 DUP3 ADD MSTORE PUSH32 0x2E00000000000000000000000000000000000000000000000000000000000000 PUSH1 0x20 DUP3 ADD MSTORE POP JUMP JUMPDEST PUSH0 PUSH2 0x1B8F PUSH1 0x21 DUP4 PUSH2 0x14F2 JUMP JUMPDEST SWAP2 POP PUSH2 0x1B9A DUP3 PUSH2 0x1B35 JUMP JUMPDEST PUSH1 0x40 DUP3 ADD SWAP1 POP SWAP2 SWAP1 POP JUMP JUMPDEST PUSH0 PUSH1 0x20 DUP3 ADD SWAP1 POP DUP2 DUP2 SUB PUSH0 DUP4 ADD MSTORE PUSH2 0x1BBC DUP2 PUSH2 0x1B83 JUMP JUMPDEST SWAP1 POP SWAP2 SWAP1 POP JUMP JUMPDEST PUSH0 PUSH1 0x40 DUP3 ADD SWAP1 POP PUSH2 0x1BD6 PUSH0 DUP4 ADD DUP6 PUSH2 0x1404 JUMP JUMPDEST PUSH2 0x1BE3 PUSH1 0x20 DUP4 ADD DUP5 PUSH2 0x1174 JUMP JUMPDEST SWAP4 SWAP3 POP POP POP JUMP JUMPDEST PUSH2 0x1BF3 DUP2 PUSH2 0x13D1 JUMP JUMPDEST DUP2 EQ PUSH2 0x1BFD JUMPI PUSH0 PUSH0 REVERT JUMPDEST POP JUMP JUMPDEST PUSH0 DUP2 MLOAD SWAP1 POP PUSH2 0x1C0E DUP2 PUSH2 0x1BEA JUMP JUMPDEST SWAP3 SWAP2 POP POP JUMP JUMPDEST PUSH0 PUSH1 0x20 DUP3 DUP5 SUB SLT ISZERO PUSH2 0x1C29 JUMPI PUSH2 0x1C28 PUSH2 0x1074 JUMP JUMPDEST JUMPDEST PUSH0 PUSH2 0x1C36 DUP5 DUP3 DUP6 ADD PUSH2 0x1C00 JUMP JUMPDEST SWAP2 POP POP SWAP3 SWAP2 POP POP JUMP JUMPDEST PUSH32 0x426174636820657865637574696F6E2063616E206F6E6C792062652074726967 PUSH0 DUP3 ADD MSTORE PUSH32 0x67657265642062792074686520456E747279506F696E742E20536572696F7573 PUSH1 0x20 DUP3 ADD MSTORE PUSH32 0x6C792E0000000000000000000000000000000000000000000000000000000000 PUSH1 0x40 DUP3 ADD MSTORE POP JUMP JUMPDEST PUSH0 PUSH2 0x1CBF PUSH1 0x43 DUP4 PUSH2 0x14F2 JUMP JUMPDEST SWAP2 POP PUSH2 0x1CCA DUP3 PUSH2 0x1C3F JUMP JUMPDEST PUSH1 0x60 DUP3 ADD SWAP1 POP SWAP2 SWAP1 POP JUMP JUMPDEST PUSH0 PUSH1 0x20 DUP3 ADD SWAP1 POP DUP2 DUP2 SUB PUSH0 DUP4 ADD MSTORE PUSH2 0x1CEC DUP2 PUSH2 0x1CB3 JUMP JUMPDEST SWAP1 POP SWAP2 SWAP1 POP JUMP JUMPDEST PUSH32 0x41727261797320676F747461206265207468652073616D65206C656E6774682C PUSH0 DUP3 ADD MSTORE PUSH32 0x206D7920647564652E204D69736D617463682069732061206E6F2D676F2E0000 PUSH1 0x20 DUP3 ADD MSTORE POP JUMP JUMPDEST PUSH0 PUSH2 0x1D4D PUSH1 0x3E DUP4 PUSH2 0x14F2 JUMP JUMPDEST SWAP2 POP PUSH2 0x1D58 DUP3 PUSH2 0x1CF3 JUMP JUMPDEST PUSH1 0x40 DUP3 ADD SWAP1 POP SWAP2 SWAP1 POP JUMP JUMPDEST PUSH0 PUSH1 0x20 DUP3 ADD SWAP1 POP DUP2 DUP2 SUB PUSH0 DUP4 ADD MSTORE PUSH2 0x1D7A DUP2 PUSH2 0x1D41 JUMP JUMPDEST SWAP1 POP SWAP2 SWAP1 POP JUMP JUMPDEST PUSH32 0x4E487B7100000000000000000000000000000000000000000000000000000000 PUSH0 MSTORE PUSH1 0x32 PUSH1 0x4 MSTORE PUSH1 0x24 PUSH0 REVERT JUMPDEST PUSH0 DUP2 SWAP1 POP SWAP3 SWAP2 POP POP JUMP JUMPDEST DUP3 DUP2 DUP4 CALLDATACOPY PUSH0 DUP4 DUP4 ADD MSTORE POP POP POP JUMP JUMPDEST PUSH0 PUSH2 0x1DD1 DUP4 DUP6 PUSH2 0x1DAE JUMP JUMPDEST SWAP4 POP PUSH2 0x1DDE DUP4 DUP6 DUP5 PUSH2 0x1DB8 JUMP JUMPDEST DUP3 DUP5 ADD SWAP1 POP SWAP4 SWAP3 POP POP POP JUMP JUMPDEST PUSH0 PUSH2 0x1DF6 DUP3 DUP5 DUP7 PUSH2 0x1DC6 JUMP JUMPDEST SWAP2 POP DUP2 SWAP1 POP SWAP4 SWAP3 POP POP POP JUMP JUMPDEST PUSH0 DUP2 MLOAD SWAP1 POP SWAP2 SWAP1 POP JUMP JUMPDEST DUP3 DUP2 DUP4 MCOPY PUSH0 DUP4 DUP4 ADD MSTORE POP POP POP JUMP JUMPDEST PUSH0 PUSH1 0x1F NOT PUSH1 0x1F DUP4 ADD AND SWAP1 POP SWAP2 SWAP1 POP JUMP JUMPDEST PUSH0 PUSH2 0x1E34 DUP3 PUSH2 0x1E02 JUMP JUMPDEST PUSH2 0x1E3E DUP2 DUP6 PUSH2 0x14F2 JUMP JUMPDEST SWAP4 POP PUSH2 0x1E4E DUP2 DUP6 PUSH1 0x20 DUP7 ADD PUSH2 0x1E0C JUMP JUMPDEST PUSH2 0x1E57 DUP2 PUSH2 0x1E1A JUMP JUMPDEST DUP5 ADD SWAP2 POP POP SWAP3 SWAP2 POP POP JUMP JUMPDEST PUSH0 PUSH1 0x20 DUP3 ADD SWAP1 POP DUP2 DUP2 SUB PUSH0 DUP4 ADD MSTORE PUSH2 0x1E7A DUP2 DUP5 PUSH2 0x1E2A JUMP JUMPDEST SWAP1 POP SWAP3 SWAP2 POP POP JUMP JUMPDEST PUSH0 DUP3 DUP3 MSTORE PUSH1 0x20 DUP3 ADD SWAP1 POP SWAP3 SWAP2 POP POP JUMP JUMPDEST PUSH0 PUSH2 0x1E9D DUP4 DUP6 PUSH2 0x1E82 JUMP JUMPDEST SWAP4 POP PUSH2 0x1EAA DUP4 DUP6 DUP5 PUSH2 0x1DB8 JUMP JUMPDEST PUSH2 0x1EB3 DUP4 PUSH2 0x1E1A JUMP JUMPDEST DUP5 ADD SWAP1 POP SWAP4 SWAP3 POP POP POP JUMP JUMPDEST PUSH0 PUSH1 0x40 DUP3 ADD SWAP1 POP PUSH2 0x1ED1 PUSH0 DUP4 ADD DUP7 PUSH2 0x1174 JUMP JUMPDEST DUP2 DUP2 SUB PUSH1 0x20 DUP4 ADD MSTORE PUSH2 0x1EE4 DUP2 DUP5 DUP7 PUSH2 0x1E92 JUMP JUMPDEST SWAP1 POP SWAP5 SWAP4 POP POP POP POP JUMP JUMPDEST PUSH32 0x457865637574696F6E2063616E206F6E6C792062652074726967676572656420 PUSH0 DUP3 ADD MSTORE PUSH32 0x62792074686520456E747279506F696E742E205374617920696E20796F757220 PUSH1 0x20 DUP3 ADD MSTORE PUSH32 0x6C616E652E000000000000000000000000000000000000000000000000000000 PUSH1 0x40 DUP3 ADD MSTORE POP JUMP JUMPDEST PUSH0 PUSH2 0x1F6E PUSH1 0x45 DUP4 PUSH2 0x14F2 JUMP JUMPDEST SWAP2 POP PUSH2 0x1F79 DUP3 PUSH2 0x1EEE JUMP JUMPDEST PUSH1 0x60 DUP3 ADD SWAP1 POP SWAP2 SWAP1 POP JUMP JUMPDEST PUSH0 PUSH1 0x20 DUP3 ADD SWAP1 POP DUP2 DUP2 SUB PUSH0 DUP4 ADD MSTORE PUSH2 0x1F9B DUP2 PUSH2 0x1F62 JUMP JUMPDEST SWAP1 POP SWAP2 SWAP1 POP JUMP JUMPDEST PUSH32 0x4F6E6C7920746865206F776E65722063616E20616464207369676E6572732E20 PUSH0 DUP3 ADD MSTORE PUSH32 0x546869732061696E2774206120667265652D666F722D616C6C2E000000000000 PUSH1 0x20 DUP3 ADD MSTORE POP JUMP JUMPDEST PUSH0 PUSH2 0x1FFC PUSH1 0x3A DUP4 PUSH2 0x14F2 JUMP JUMPDEST SWAP2 POP PUSH2 0x2007 DUP3 PUSH2 0x1FA2 JUMP JUMPDEST PUSH1 0x40 DUP3 ADD SWAP1 POP SWAP2 SWAP1 POP JUMP JUMPDEST PUSH0 PUSH1 0x20 DUP3 ADD SWAP1 POP DUP2 DUP2 SUB PUSH0 DUP4 ADD MSTORE PUSH2 0x2029 DUP2 PUSH2 0x1FF0 JUMP JUMPDEST SWAP1 POP SWAP2 SWAP1 POP JUMP JUMPDEST PUSH32 0x5369676E657220616464726573732063616E6E6F74206265207A65726F2E2043 PUSH0 DUP3 ADD MSTORE PUSH32 0x276D6F6E2E000000000000000000000000000000000000000000000000000000 PUSH1 0x20 DUP3 ADD MSTORE POP JUMP JUMPDEST PUSH0 PUSH2 0x208A PUSH1 0x25 DUP4 PUSH2 0x14F2 JUMP JUMPDEST SWAP2 POP PUSH2 0x2095 DUP3 PUSH2 0x2030 JUMP JUMPDEST PUSH1 0x40 DUP3 ADD SWAP1 POP SWAP2 SWAP1 POP JUMP JUMPDEST PUSH0 PUSH1 0x20 DUP3 ADD SWAP1 POP DUP2 DUP2 SUB PUSH0 DUP4 ADD MSTORE PUSH2 0x20B7 DUP2 PUSH2 0x207E JUMP JUMPDEST SWAP1 POP SWAP2 SWAP1 POP JUMP JUMPDEST PUSH32 0x54686973206164647265737320697320616C72656164792061207369676E6572 PUSH0 DUP3 ADD MSTORE PUSH32 0x2E204368696C6C2E000000000000000000000000000000000000000000000000 PUSH1 0x20 DUP3 ADD MSTORE POP JUMP JUMPDEST PUSH0 PUSH2 0x2118 PUSH1 0x28 DUP4 PUSH2 0x14F2 JUMP JUMPDEST SWAP2 POP PUSH2 0x2123 DUP3 PUSH2 0x20BE JUMP JUMPDEST PUSH1 0x40 DUP3 ADD SWAP1 POP SWAP2 SWAP1 POP JUMP JUMPDEST PUSH0 PUSH1 0x20 DUP3 ADD SWAP1 POP DUP2 DUP2 SUB PUSH0 DUP4 ADD MSTORE PUSH2 0x2145 DUP2 PUSH2 0x210C JUMP JUMPDEST SWAP1 POP SWAP2 SWAP1 POP JUMP INVALID LOG2 PUSH5 0x6970667358 0x22 SLT KECCAK256 0x2D 0x1F 0x2A RJUMPI 0x3253 0xAA MLOAD 0xD3 PUSH2 0x7CEF CALLDATASIZE SWAP2 EXTCODECOPY REVERT BLOBHASH MCOPY MCOPY 0x4B POP 0xE9 0xBA 0xA9 RETURN MOD 0xBB 0xEB PUSH27 0x883DF064736F6C634300081E003300000000000000000000000000 "
				},
				"gasEstimates": {
					"creation": {
						"codeDepositCost": "1715600",
						"executionCost": "infinite",
						"totalCost": "infinite"
					},
					"external": {
						"": "195",
						"addSigner(address)": "30497",
						"approveERC20ForPaymaster(address,address,uint256)": "infinite",
						"authorizedSigners(address)": "2922",
						"entryPoint()": "infinite",
						"execute(address,uint256,bytes)": "infinite",
						"executeBatch(address[],uint256[],bytes[])": "infinite",
						"nonce()": "2447",
						"owner()": "2507",
						"removeSigner(address)": "32541",
						"validateUserOp((address,uint256,bytes,uint256,uint256,uint256,uint256,uint256,bytes,bytes))": "infinite"
					}
				},
				"methodIdentifiers": {
					"addSigner(address)": "eb12d61e",
					"approveERC20ForPaymaster(address,address,uint256)": "43425567",
					"authorizedSigners(address)": "5d2b6a4e",
					"entryPoint()": "b0d691fe",
					"execute(address,uint256,bytes)": "b61d27f6",
					"executeBatch(address[],uint256[],bytes[])": "47e1da2a",
					"nonce()": "affed0e0",
					"owner()": "8da5cb5b",
					"removeSigner(address)": "0e316ab7",
					"validateUserOp((address,uint256,bytes,uint256,uint256,uint256,uint256,uint256,bytes,bytes))": "2de6a880"
				}
			},
			"storageLayout": {
				"storage": [
					{
						"astId": 45,
						"contract": "wallet.sol:SmartWallet",
						"label": "owner",
						"offset": 0,
						"slot": "0",
						"type": "t_address"
					},
					{
						"astId": 47,
						"contract": "wallet.sol:SmartWallet",
						"label": "nonce",
						"offset": 0,
						"slot": "1",
						"type": "t_uint256"
					},
					{
						"astId": 51,
						"contract": "wallet.sol:SmartWallet",
						"label": "authorizedSigners",
						"offset": 0,
						"slot": "2",
						"type": "t_mapping(t_address,t_bool)"
					}
				],
				"types": {
					"t_address": {
						"encoding": "inplace",
						"label": "address",
						"numberOfBytes": "20"
					},
					"t_bool": {
						"encoding": "inplace",
						"label": "bool",
						"numberOfBytes": "1"
					},
					"t_mapping(t_address,t_bool)": {
						"encoding": "mapping",
						"key": "t_address",
						"label": "mapping(address => bool)",
						"numberOfBytes": "32",
						"value": "t_bool"
					},
					"t_uint256": {
						"encoding": "inplace",
						"label": "uint256",
						"numberOfBytes": "32"
					}
				}
			},
			"userdoc": {
				"kind": "user",
				"methods": {},
				"version": 1
			}
		}
	}
}